:100000000C9438010C9469010C9469010C946901F9
:100010000C9469010C9469010C9469010C946901B8
:100020000C9469010C9469010C9469010C946901A8
:100030000C9469010C9469010C9469010C94690198
:100040000C9469010C9469010C9469010C94690188
:100050000C9469010C9469010C9469010C940F05CE
:100060000C9469010C9469010C9469010C94690168
:100070000C9469010C9469010C9469010C94690158
:100080000C9469010C9469010C9469010C94690148
:100090000C9469010C9469010C9469010C94690138
:1000A0000C9469010C9469010C9469010C94690128
:1000B0000C9469010C9469010C9469010C94690118
:1000C0000C9469010C9469010C9469010C94690108
:1000D0000C9469010C9469010C9469010C946901F8
:1000E0000C9469010C9476020C94EC020C9472024C
:1000F0000C9449020C94B9040C9489020C94640287
:100100000C9480020C947C020C9484020C944F0298
:100110000C9457020C94BB020C94FE010C945E02EA
:100120000C9455030C945B020C9468020C945603D7
:100130000C948A020C948E020C946E020C9453025E
:100140000C942C030C9487080C94050800002100E3
:10015000240027002A002D00300033000101000098
:10016000040107010A0100002200250028002B00DD
:100170002E003100340002010000050108010B01CE
:10018000000020002300260029002C002F00320050
:100190000001000003010601090105050505070529
:1001A00008080808020202020A0A080804040404F3
:1001B000010101010101010103030303030303031F
:1001C000040707070C0C0C0C0C0C0C0C02020202AE
:1001D00006060606060606060B0B0B0B0B0B0B0B97
:1001E0000102102020080810204010204080020149
:1001F000020108040201010204081020408080402E
:10020000201008040201800402018040201008042C
:1002100002010804020101020408102040800102CA
:1002200004081020408000000A0B02090C0D0E0883
:1002300007030401000000000000000000000000AF
:1002400000000000000000000000000000000000AE
:10025000000012111000000000000000000000006B
:1002600000000000000000000000000005088708F2
:1002700011241FBECFEFD1E2DEBFCDBF00E00CBF27
:1002800023E0AAE7B2E001C01D92AA31B207E1F76C
:1002900012E0A0E0B2E0E2EAF5E100E00BBF02C04C
:1002A00007900D92AA37B107D9F711E0C7E3D1E063
:1002B00000E006C021970109802FFE010E949808E6
:1002C000C633D10780E00807A9F70E9495050C9472
:1002D000BF0A0C94000096E0899FD0011124A75713
:1002E000BD4F90967C936E935F9791E091969C930F
:1002F0009197E091F602F091F7029091F50299231F
:1003000039F0309751F0811108C08091A5021994FD
:10031000309719F05C968C91FACF0895CF92DF92C6
:10032000EF92FF920F931F9396E0899FF0011124A3
:10033000E757FD4F11A2278D30A12130310551F132
:1003400078F02230310509F451C02330310509F429
:1003500052C01F910F91FF90EF90DF90CF900895C2
:100360006623B9F361E070E00E946B012FB7F89447
:100370008091850290918602A0918702B0918802B7
:100380002FBF8093E1029093E202A093E302B09327
:10039000E402DFCF9FB7F894C0908502D090860228
:1003A000E0908702F09088029FBF0091E1021091D7
:1003B000E2022091E3023091E402C01AD10AE20A7B
:1003C000F30A0091F3021091F40230E020E00C15E2
:1003D0001D052E053F0550F462E070E01F910F915E
:1003E000FF90EF90DF90CF900C946B016111B1CF33
:1003F00063E070E0F3CF70E060E0F0CFAF92BF92C7
:10040000CF92DF92EF92FF920F931F93CF93DF93E0
:100410006C017B018B01040F151FEB015E01AE180F
:10042000BF08C017D10759F06991D601ED91FC9131
:100430000190F081E02DC6011995892B79F7C5014E
:10044000DF91CF911F910F91FF90EF90DF90CF90B0
:10045000BF90AF9008958150823108F05AC0E82FC4
:10046000F0E08827E95CFD4F8F4F0C949808570205
:100470005B0249024F02530289025E026402680273
:100480006E02720276027C028002890284028A0273
:100490008E02809180008F778093800008958091F4
:1004A00080008F7DF9CF80918000877FF5CF84B564
:1004B0008F7784BD089584B58F7DFBCF8091B00088
:1004C0008F778093B00008958091B0008F7DF9CF31
:1004D000809190008F778093900008958091900094
:1004E0008F7DF9CF80919000877FF5CF8091A0001C
:1004F0008F778093A00008958091A0008F7DF9CF21
:100500008091A000877FF5CF809120018F77809325
:1005100020010895809120018F7DF9CF80912001E5
:10052000877FF5CFCF93DF93282F30E0F901EA5D85
:10053000FD4F8491F901E052FE4FD491F901E65646
:10054000FE4FC491CC23A1F081110E942B02EC2F0D
:10055000F0E0EE0FFF1FE058FE4FA591B491EC9133
:10056000ED2381E090E009F480E0DF91CF910895E0
:1005700080E090E0FACF862F0C9492021F93CF93E5
:10058000DF93282F30E0F901EA5DFD4F8491F901F6
:10059000E052FE4FD491F901E656FE4FC491CC23B0
:1005A000A9F0162F81110E942B02EC2FF0E0EE0F24
:1005B000FF1FEA59FE4FA591B4918FB7F894EC91C3
:1005C000111108C0D095DE23DC938FBFDF91CF914E
:1005D0001F910895DE2BF8CF862F642F0C94BE0256
:1005E000CF93DF9390E0FC01E052FE4F24918656BA
:1005F0009E4FFC0184918823C9F090E0880F991FD9
:10060000FC01E45BFE4FA591B491FC01EA59FE4F59
:10061000C591D49161110DC09FB7F8948C9120952C
:1006200082238C938881282328839FBFDF91CF91D9
:100630000895623051F49FB7F8943C91822F8095D1
:1006400083238C93E8812E2BEFCF8FB7F894EC9116
:100650002E2B2C938FBFEACF862F642F0C94F002A1
:100660003FB7F89480917B0290917C02A0917D022B
:10067000B0917E0226B5A89B05C02F3F19F00196C8
:10068000A11DB11D3FBFBA2FA92F982F8827BC01EC
:10069000CD01620F711D811D911D42E0660F771F14
:1006A000881F991F4A95D1F70895089590E080E03A
:1006B0000895FC0101900020E9F73197AF01481B34
:1006C000590BBC018EEF92E00C94FE01CF93DF93A7
:1006D000EC0160E08E810E94BE0261E08E810E948A
:1006E000BE0260E08E810E94BE028BE891E001971D
:1006F000F1F7DF91CF910895CF92DF92EF92FF92C1
:100700000F931F93CF93DF936C017C0187E0E80E7A
:10071000F11CD0E0C0E0062F10E0B8010C2E02C0A2
:10072000759567950A94E2F76170F70181917F01F1
:100730000E94BE022196C430D10579F7C601DF912F
:10074000CF911F910F91FF90EF90DF90CF900C947D
:100750006603CF92DF92EF92FF920F931F93CF9396
:10076000DF93EC01F62E642F8C810E94BE028D81F6
:100770008F3F19F060E00E94BE020F2D10E08F85C0
:1007800084FF25C06E0187E0C80ED11CF12CE12C3E
:10079000B8010E2C02C0759567950A94E2F7617056
:1007A000F60181916F010E94BE02FFEFEF1AFF0A6E
:1007B00088E0E816F10461F7CE01DF91CF911F9137
:1007C0000F91FF90EF90DF90CF900C946603B801EB
:1007D00084E0759567958A95E1F7CE010E947C03C8
:1007E0006F2DCE01DF91CF911F910F91FF90EF9070
:1007F000DF90CF900C947C0340E0682F8EEF92E066
:100800000C94A90381E00E94FC038BE39FE1019714
:10081000F1F70895CF93DF93823029F490910D037F
:10082000986090930D03809311031092120380E45B
:100830008093130380E18093140380E58093150374
:1008400061E0809102030E94F002809103038F3FD8
:1008500019F061E00E94F00261E0809104030E94BF
:10086000F002CEEFD2E09E012E5F324080910D0368
:1008700084FD0BC084E090E021962817390744F4EA
:1008800061E08E810E94F002EECF88E090E0F4CF2C
:100890008BE39DE00197F1F760E0809102030E94F5
:1008A000BE0260E0809104030E94BE0280910303B7
:1008B0008F3F19F060E00E94BE0280910D0384FD1D
:1008C00034C063E08EEF92E00E947C03CBE4D6E478
:1008D000CE010197F1F763E08EEF92E00E947C0376
:1008E0002197F1F763E08EEF92E00E947C0383E5AD
:1008F00092E00197F1F762E08EEF92E00E947C03B4
:1009000080910D0380620E94FC0384E080930E03BB
:100910008CE00E94FC030E94020482E080930F039B
:1009200086E0DF91CF910C94FC0380620E94FC036F
:100930008BE496E40197F1F780910D0380620E94A9
:10094000FC0383E592E00197F1F780910D0380624B
:100950000E94FC03D5CF90911103891710F08FEFFF
:10096000890FE82FF0E0E250FD4F848980680C94F5
:10097000FC0341E00E94A90381E090E008950F93F9
:100980001F93CF93DF93EC0188819981009759F0F1
:100990002A813B812617370730F081E0DF91CF9124
:1009A0001F910F9108958B016F5F7F4F0E94C509C2
:1009B000009759F0998388831B830A832C813D819A
:1009C000232B59F7FC011082E8CF80E0E7CF70E0DD
:1009D00060E088EF92E00E94BF042091F80230911D
:1009E000F902811113C02115310519F0C9010E94C6
:1009F0003C091092F9021092F8021092FD02109236
:100A0000FC021092FB021092FA0208951092FD026D
:100A10001092FC0263E572E0C9010C94B80A1F92BF
:100A20000F920FB60F9211242F933F938F939F93A2
:100A3000AF93BF938091850290918602A091870227
:100A4000B091880230917A0223E0230F2D3758F5B8
:100A50000196A11DB11D20937A0280938502909387
:100A60008602A0938702B093880280917B029091C6
:100A70007C02A0917D02B0917E020196A11DB11D64
:100A800080937B0290937C02A0937D02B0937E02C0
:100A9000BF91AF919F918F913F912F910F900FBE7A
:100AA0000F901F90189526E8230F0296A11DB11DE7
:100AB000D2CFEF92FF920F931F93CF93DF93EC016E
:100AC0007B01198218821B821A821D821C82FB0103
:100AD00001900020E9F731978F01061B170BB80131
:100AE0000E94BF0428813981811113C0211531056D
:100AF00019F0C9010E943C09198218821D821C82CA
:100B00001B821A82DF91CF911F910F91FF90EF907E
:100B100008951D830C83B701C901DF91CF911F9107
:100B20000F91FF90EF900C94B80ACF93DF931F9230
:100B30001F92CDB7DEB7789484B5826084BD84B54A
:100B4000816084BD85B5826085BD85B5816085BDC8
:100B500080916E00816080936E0010928100809180
:100B60008100826080938100809181008160809308
:100B70008100809180008160809380008091B1002D
:100B800084608093B1008091B00081608093B00058
:100B900080919100826080939100809191008160AA
:100BA000809391008091900081608093900080916B
:100BB000A10082608093A1008091A1008160809358
:100BC000A1008091A00081608093A000809121010C
:100BD00082608093210180912101816080932101B5
:100BE0008091200181608093200180917A0084604F
:100BF00080937A0080917A00826080937A0080915D
:100C00007A00816080937A0080917A008068809376
:100C10007A001092C10082E00E940A0480E00E94E3
:100C2000AB0484E392E00E94590381E00E94AB048C
:100C300084E492E00E9459030E9430034B015C015E
:100C400058EEC52E53E0D52EE12CF12C0E94300336
:100C5000681979098A099B09683E734081059105E5
:100C6000A8F321E0C21AD108E108F10858EE850E78
:100C700053E0951EA11CB11CC114D104E104F10480
:100C800029F70E940204412C512C3201439440E088
:100C9000A42E40E0B42EF1E0F093F5028FB7F89463
:100CA000409185025091860260918702709188027E
:100CB0008FBF8091E5029091E602A091E702B0918A
:100CC000E802481B590B6A0B7B0B8091F102909153
:100CD000F202B0E0A0E084179507A607B70708F076
:100CE0001BC110E08091EF02181760F4E091EB0255
:100CF000F091EC02E10FF11D62E080810E94F002B0
:100D00001F5FF0CF312C8091F002381608F061C0DF
:100D1000E32CF12CE091ED02F091EE02EE0DFF1DBF
:100D200061E080810E94F002E091ED02F091EE021C
:100D3000EE0DFF1D60E080810E94BE02D301C20162
:100D4000032C04C0880F991FAA1FBB1F0A94D2F757
:100D50004C016C01C094D094212C8091EF02281694
:100D600008F5022D10E0E091EB02F091EC02E00FAB
:100D7000F11F80810E9492020C5F1F4F000F111F14
:100D8000F801E757FD4F892B41F480819181882933
:100D90009929918380832394E0CF808191818C2154
:100DA0009D21F7CFE091ED02F091EE02EE0DFF1DD7
:100DB00061E080810E94BE028091ED029091EE027E
:100DC000E80EF91E60E0F70180810E94F002339482
:100DD0009ACF09E812E07801F701878D90A1892B5D
:100DE00031F4148E8FEF9FEF968F858F11A296E0CE
:100DF000E90EF11CE5ECF2E0EE15FF0569F7D12CE8
:100E00008091EF02D81608F053C0C12C8D2C912C84
:100E1000880C991CC4018F569D4F4C012091F00203
:100E2000C21608F043C0F401608171810C2C02C02D
:100E3000769567950A94E2F7D29E900111242C0DC5
:100E4000311DE9E8F2E080E0458D568D2417350725
:100E500009F4C1C08F5F36968A30B1F760FF24C0B5
:100E6000E9E8F2E090E080E0448D411118C0E091A3
:100E7000E902F091EA02E20FF31F408156E0589F29
:100E8000F001599FF00D1124E757FD4F448F368F25
:100E9000258F10A2178E61E00E948E0105C0019679
:100EA00036968A30910501F7C394B8CFD394A8CF72
:100EB00080E0F80191A19111892F0A5F1F4F0E1553
:100EC0001F05B9F79FB7F8944091850250918602AB
:100ED00060918702709188029FBF4093E502509312
:100EE000E6026093E7027093E8028823A9F08091FC
:100EF000AA02882389F08091A8029091A902019703
:100F000059F41091A50211110AC0A114B10409F4F9
:100F1000C2CE0E940000BFCE1092F502F6CF1A3268
:100F200049F520918302309184028091FC029091D6
:100F3000FD0228173907C1F480917F029091800249
:100F40006091F8027091F902009709F446C06115AA
:100F5000710539F4232B09F44EC0FC01808190E027
:100F600047C00E94AF0A44C081E00E94AB0485E6FE
:100F700092E046C01D3329F40E94E7040E94020457
:100F8000C4CF41E0612F8EEF92E00E94A903198344
:100F90001A820091FC021091FD020F5F1F4FB801F1
:100FA00088EF92E00E94BF04882309F4AECF20911D
:100FB000F8023091F9028091FC029091FD02BE018D
:100FC0006F5F7F4F820F931F0E94B80A1093FD023C
:100FD0000093FC029ACF61705FCF6115710559F0E3
:100FE000232B49F0FB01808190E091958195910937
:100FF000892B09F0B9CF81E00E94AB0484E592E02F
:101000000E9459030E94E70480CF109201031092BE
:1010100000038CE292E09093FF028093FE028DE049
:10102000809302038FEF809303038CE0809304038B
:1010300088E08093050389E0809306038AE080932B
:1010400007038BE0809308031092090310920A03B0
:1010500010920B0310920C0310920D0381E00E947A
:101060000A0410928B0210928F0210928E0210923C
:10107000900282E292E090938A0280938902E5EAEC
:10108000F2E01082148213821582369682E0E13EED
:10109000F807B9F784E092E09093EC028093EB02BA
:1010A00080E092E09093EE028093ED0284E08093E2
:1010B000EF028093F00288E092E09093EA0280933E
:1010C000E9028AE090E09093F2028093F10284EFCB
:1010D00091E09093F4028093F3021092F702109241
:1010E000F6021092E5021092E6021092E7021092C8
:1010F000E8021092F50264E772E08FE792E00E9446
:10110000590563E572E088EF92E00C9459058091EF
:10111000F8029091F902009711F00E943C09809129
:101120007F0290918002009711F00C943C09089581
:10113000EE0FFF1F881F8BBF0790F691E02D1994CB
:101140000F931F93CF93DF938230910510F482E0C9
:1011500090E0E0911803F091190330E020E0B0E056
:10116000A0E0309799F42115310509F44AC0281BF5
:10117000390B24303105D8F58A819B8161157105C1
:1011800089F1FB0193838283FE0111C0408151816B
:101190000281138148175907E0F04817590799F45D
:1011A000109761F012960C93129713961C93329637
:1011B000CF01DF91CF911F910F91089500931803F4
:1011C00010931903F4CF2115310551F0421753073D
:1011D00038F0A901DB019A01BD01DF01F801C1CF9F
:1011E000EF01F9CF9093190380931803CDCFFE013F
:1011F000E20FF31F819391932250310939832883A1
:10120000D7CF2091160330911703232B41F420915F
:101210001A0230911B02309317032093160320917A
:101220001802309119022115310541F42DB73EB74E
:1012300040911C0250911D02241B350BE0911603B6
:10124000F0911703E217F307A0F42E1B3F0B2817AA
:10125000390778F0AC014E5F5F4F2417350748F02F
:101260004E0F5F1F50931703409316038193919382
:101270009FCFF0E0E0E09CCFCF93DF930097E9F0C1
:10128000FC01329713821282A0911803B0911903C6
:10129000ED0130E020E01097A1F420813181820F30
:1012A000931F20911603309117032817390709F06F
:1012B00061C0F0931703E0931603DF91CF91089577
:1012C000EA01CE17DF07E8F54A815B819E014115EF
:1012D0005105B1F7E901FB83EA8349915991C40FA4
:1012E000D51FEC17FD0761F4808191810296840F70
:1012F000951FE90199838883828193819B838A83E7
:10130000F0E0E0E012968D919C9113970097B9F56B
:101310002D913C911197CD010296820F931F209140
:101320001603309117032817390739F6309751F50E
:101330001092190310921803B0931703A093160389
:10134000BCCFD383C28340815181840F951FC817BE
:10135000D90761F44E5F5F4F88819981480F591F0B
:10136000518340838A819B81938382832115310538
:1013700009F0B0CFF0931903E09318039ECFFD015D
:10138000DC01C0CF13821282D7CF4F925F926F924F
:101390007F928F929F92AF92BF92CF92DF92EF9205
:1013A000FF920F931F93CF93DF938C01009799F4D3
:1013B000CB01DF91CF911F910F91FF90EF90DF90C4
:1013C000CF90BF90AF909F908F907F906F905F90E5
:1013D0004F900C94A008FC01E60FF71F9C012250CF
:1013E0003109E217F30708F4AEC0D901CD91DC91C1
:1013F0001197C617D70720F1C530D10578F0CE0177
:1014000004978617970750F0C61BD70B2297C193F6
:10141000D1936D937C93CF010E943C09C801DF9169
:10142000CF911F910F91FF90EF90DF90CF90BF90E1
:10143000AF909F908F907F906F905F904F900895A6
:101440005B01AC1ABD0A4C018C0E9D1EA0911803C5
:10145000B0911903512C412CF12CE12C109731F54E
:1014600080911603909117038815990509F05CC0C7
:101470004616570608F058C080911802909119023C
:10148000009741F48DB79EB740911C0250911D0208
:10149000841B950BE817F90708F055C0F093170364
:1014A000E0931603F90171836083B8CF8D919C910D
:1014B000119712966C90129713967C901397A8151B
:1014C000B90559F56C0142E0C40ED11CCA14DB0405
:1014D00020F1AC014A195B09DA011296159780F0E8
:1014E0006282738251834083D9016D937C93E114AE
:1014F000F10471F0D7011396FC93EE9312978ECFFF
:1015000022968C0F9D1FF90191838083F301EFCF09
:10151000F0931903E093180381CF4816590608F495
:101520002C017D01D3019ACFCB010E94A0087C0140
:10153000009749F0AE01B8010E94A60AC8010E94B6
:101540003C0987016BCF10E000E068CFFB01DC01B4
:1015500002C001900D9241505040D8F70895FB0110
:10156000DC018D91019080190110D9F3990B089538
:10157000FB01DC0101900D920020E1F7089511E0DC
:10158000C7E3D1E000E006C0802FFE010E9498086A
:101590002196011DC833D10780E00807A9F7F89408
:0215A000FFCF7B
:1015A20017191B1D1F2123253738392F3435362AA9
:1015B2003132332D2E303D2B00001A038000000003
:1015C20000002C03EC02BB0200000000B904FE0183
:1015D20056035503204D616864692048656A72614B
:1015E20074692000202020203937323331303020F6
:1015F20020202000436F7272656374205061737300
:10160200776F72640057726F6E67205061737377E1
:0A1612006F726400313233340000BF
:00000001FF
