:100000000C9418010C9439010C9439010C943901A9
:100010000C9439010C9439010C9439010C94390178
:100020000C9439010C9439010C9439010C94390168
:100030000C9439010C9460010C9439010C94390131
:100040000C9439010C9439010C9439010C94390148
:100050000C9439010C9439010C9439010C948002F0
:100060000C9439010C9439010C9439010C94390128
:100070000C9439010C9439010C9439010C94390118
:100080000C9439010C9439010C9439010C94390108
:100090000C9439010C9439010C9439010C943901F8
:1000A0000C9439010C9439010C9439010C943901E8
:1000B0000C9439010C9439010C9439010C943901D8
:1000C0000C9439010C9439010C9439010C943901C8
:1000D0000C9439010C9439010C9439010C943901B8
:1000E0000C9439010C9449020C946A020C942D0270
:1000F0000C9445020C9464020C943D020C946E0224
:100100000C9478020C9441020C945C020C946002F2
:100110000C944C020C9428020C9452020C9472021F
:100120000C947C020C94560200000A0B02090C0D80
:100130000E0807030401000000000000000000009A
:1001400000000000000000000000000000000000AF
:10015000000000001211100000000000000000006C
:10016000000000000000000000000000000000008F
:100170002100240027002A002D0030003300010157
:100180000000040107010A010102102020080810E4
:1001900020401020408002010201080402010102F7
:1001A00004081020408080402010080402018004D0
:1001B000020180402010080402010804020101022B
:1001C0000408102040800102040810204080000034
:1001D0002200250028002B002E00310034000201EF
:1001E0000000050108010B010505050507050808C4
:1001F0000808020202020A0A0808040404040101B1
:1002000001010101010103030303030303030407C5
:1002100007070C0C0C0C0C0C0C0C0202020206065C
:100220000606060606060B0B0B0B0B0B0B0B020050
:1002300011241FBECFEFD1E2DEBFCDBF00E00CBF67
:1002400013E0A0E0B2E0EAEAF0E100E00BBF02C098
:1002500007900D92A234B107D9F723E0A2E4B3E0EE
:1002600001C01D92AB36B207E1F70E94CA020C949E
:1002700053080C9400003FB7F89480914703909185
:100280004803A0914903B0914A0326B5A89B05C035
:100290002F3F19F00196A11DB11D3FBFBA2FA92F05
:1002A000982F8827BC01CD01620F711D811D911D02
:1002B00042E0660F771F881F991F4A95D1F708956E
:1002C0001F920F920FB60F9211240BB60F922F931D
:1002D0003F938F939F93AF93BF93EF93FF9380913F
:1002E0005F0390916003A0916103B0916203892B39
:1002F0008A2B8B2BC1F190914E03E0914F03F0912B
:10030000500380818927808380915F0390916003EF
:10031000A0916103B0916203181619061A061B0614
:100320009CF480915F0390916003A0916103B09170
:1003300062030197A109B10980935F039093600361
:10034000A0936103B0936203FF91EF91BF91AF91CE
:100350009F918F913F912F910F900BBE0F900FBEE9
:100360000F901F90189520910002EEE2F2E0E491C8
:100370008FEF80930002E23009F44DC008F036C0E0
:10038000EE2309F43FC0E13009F43FC030E0F90149
:10039000E85DFE4F8491F901E857FE4F9491285192
:1003A0003E4FF9012491222379F2882309F455C0A4
:1003B0008150823108F051C0E82FF0E08827EC51DD
:1003C000FE4F8F4F0C9421084502490228023D023E
:1003D00041022D024C02520256025C02600264028B
:1003E0006A026E022D02720278027C02E43051F140
:1003F00018F1E53009F0CACF809173008D7F8093AA
:100400007300C4CF10926E00C1CF80916F008D7FBA
:1004100080936F00BBCF809170008D7F80937000C0
:1004200081E08093B0008091B100887F84608093E8
:10043000B1001092B300AACF809171008D7F80939C
:100440007100A4CF809172008D7F809372009ECF47
:10045000809180008F7780938000E22FF0E0EE0F94
:10046000FF1FE253FE4FA591B4918FB7F894EC9122
:1004700090959E239C938FBF67CF809180008F7D46
:10048000EACF80918000877FE6CF84B58F7784BDE7
:10049000E4CF84B58F7DFBCF8091B0008F778093C0
:1004A000B000DBCF8091B0008F7DF9CF80919000BC
:1004B0008F7780939000D1CF809190008F7DF9CF7E
:1004C00080919000877FF5CF8091A0008F778093F7
:1004D000A000C3CF8091A0008F7DF9CF8091A000B4
:1004E000877FF5CF809120018F7780932001B5CF52
:1004F000809120018F7DF9CF80912001877FF5CFFA
:100500001F920F920FB60F9211242F933F938F9348
:100510009F93AF93BF938091430390914403A09125
:100520004503B09146033091420323E0230F2D375A
:1005300058F50196A11DB11D2093420380934303FA
:1005400090934403A0934503B093460380914703DF
:1005500090914803A0914903B0914A030196A11DCF
:10056000B11D8093470390934803A0934903B09330
:100570004A03BF91AF919F918F913F912F910F901F
:100580000FBE0F901F90189526E8230F0296A11D0D
:10059000B11DD2CFCF93DF93CDB7DEB72D970FB676
:1005A000F894DEBF0FBECDBF789484B5826084BD61
:1005B00084B5816084BD85B5826085BD85B5816067
:1005C00085BD80916E00816080936E0010928100E5
:1005D00080918100826080938100809181008160A0
:1005E0008093810080918000816080938000809161
:1005F000B10084608093B1008091B00081608093ED
:10060000B000809191008260809391008091910070
:100610008160809391008091900081608093900030
:100620008091A10082608093A1008091A1008160EF
:100630008093A1008091A00081608093A0008091B0
:10064000210182608093210180912101816080934A
:1006500021018091200181608093200180917A00A6
:10066000846080937A0080917A00826080937A001F
:1006700080917A00816080937A0080917A0080680E
:1006800080937A001092C10021EA32E03A832983F4
:1006900081E092E09A87898709E811E029EE222E0D
:1006A00021E0322EE1E4F3E029813A81E217F307F9
:1006B00009F439C3F90161917191FA83E98388EEF4
:1006C00093E00E94CC077C876B87E985FA852191AE
:1006D0003191FA87E98738872F83809100022B01B7
:1006E000770F66087708813011F5EEE2F2E0F491B9
:1006F000FD87FD85F7FF88C0C301B2010E94D306C4
:1007000026E636E646EA5FE30E9437070E949B062C
:100710006B01770FEE08FF080E943B014B015C0163
:10072000C114D104E104F10409F0F1C2BBCF8F3F41
:1007300019F721E020930002EEE2F2E0F491FD8748
:10074000FF3FD1F2F23009F42DC110F5FF2309F477
:1007500045C0F13071F610928000109281008091B6
:100760008100886080938100809181008160809306
:100770008100F1018491E82FF0E0EE0FFF1FE253BA
:10078000FE4F85919491F8018491809351033CC070
:100790002D85243009F446C108F425C1253009F01F
:1007A000A8CF109220011092210180912101886030
:1007B0008093210180912101816080932101F101C9
:1007C0008491E82FF0E0EE0FFF1FE253FE4F85917A
:1007D0009491F801849180934B0316C014BC15BC0E
:1007E00084B5826084BD85B5816085BDF101849149
:1007F000E82FF0E0EE0FFF1FE253FE4F859194913A
:10080000F801849180935203F8014491F10184919D
:10081000882399F090E0880F991FFC01E259FE4F60
:10082000A591B491FC01E253FE4F259134918FB70D
:10083000F8949C91492B4C938FBF2F8138854901A7
:10084000B12CA12C60E072E18AE790E0A5010E9442
:1008500002082B833C834D835E8369017A0131E07A
:10086000C31AD108E108F1088D858D7F09F074C1A4
:100870008FEFC816D104E104F10409F00CF43BC178
:1008800060E472E48FE090E0A50194010E94020808
:1008900069017A0191E0C91AD108E108F108ED85F2
:1008A000E23009F0DCC082E0FFEFCF16D104E104B2
:1008B000F10409F00CF46FC060E970ED83E090E0A2
:1008C000A50194010E94020869017A0181E0C81A19
:1008D000D108E108F10883E09FEFC916D104E104D3
:1008E000F10409F00CF457C068E478EE81E090E080
:1008F000A50194010E94020869017A0191E0C91AD8
:10090000D108E108F10884E0EFEFCE16D104E1044C
:10091000F10409F00CF43FC064E274EF80E090E071
:10092000A50194010E94020869017A0181E0C81AB8
:10093000D108E108F10885E09FEFC916D104E10470
:10094000F10449F140F162E17AE780E090E0A5012D
:1009500094010E94020869017A01F1E0CF1AD108DE
:10096000E108F10886E02FEFC216D104E104F1049A
:1009700091F088F0CB80DC80ED80FE808AE0F594F9
:10098000E794D794C7948A95D1F781E0C81AD10823
:10099000E108F10887E09091B100987F892B80935E
:1009A000B100B1C01092B0001092B1008091B000BF
:1009B00082608093B0008091B10081608093B1002B
:1009C000F1018491E82FF0E0EE0FFF1FE253FE4F9C
:1009D000859194919093500380934F03F8018491F3
:1009E00080934E0311CF109290001092910080914D
:1009F0009100886080939100809191008160809344
:100A00009100F1018491E82FF0E0EE0FFF1FE25317
:100A1000FE4F85919491F801849180934D03F3E00A
:100A2000FD87F2CE1092A0001092A1008091A1004B
:100A300088608093A1008091A10081608093A100D3
:100A4000F1018491E82FF0E0EE0FFF1FE253FE4F1B
:100A500085919491F801849180934C03D5CEEFEF6A
:100A6000CE16D104E104F10409F00CF473C068E47B
:100A700078EE81E090E0A50194010E9402086901EE
:100A80007A01F1E0CF1AD108E108F1082D8584E060
:100A9000211152CF83E03FEFC316D104E104F104EA
:100AA00071F16CF162E17AE780E090E0A5019401D8
:100AB0000E94020869017A0191E0C91AD108E1088F
:100AC000F10884E0EFEFCE16D104E104F104B9F0AF
:100AD000B0F0CB80DC80ED80FE809AE0F594E79466
:100AE000D794C7949A95D1F731E0C31AD108E10899
:100AF000F10885E004C081E0FD85F1114CCF95B58A
:100B0000987F892B85BD2FEF3FEFA9014114510438
:100B10006104710409F048C08D85823009F4D6C0A3
:100B20000CF0BDC0882309F4C2C0813009F0E4CDC7
:100B3000D0928900C09288002093630330936403AD
:100B4000409365035093660380916F0082608093A9
:100B50006F00D2CD82E0D0CF91E0C114D10421E06A
:100B6000E206F10484F068E478EE81E090E0A5010B
:100B700094010E94020869017A0181E0C81AD10833
:100B8000E108F10893E0ED85E130E9F4809181001E
:100B9000887F892B809381002FEF3FEFA9014114BB
:100BA00051046104710421F22F813885220F331F13
:100BB000AB85BC850E94290828EE33E040E050E078
:100BC0000E94E007A9CFFD85F33001F580919100E7
:100BD000887F892B809391002FEF3FEFA90141146B
:100BE00051046104710401F7D0929900C0929800F9
:100BF00020935B0330935C0340935D0350935E034B
:100C00008091710082608093710076CD2D852430B3
:100C100009F58091A100887F892B8093A1002FEF97
:100C20003FEFA901411451046104710409F0BCCFE4
:100C3000D092A900C092A800209357033093580384
:100C40004093590350935A038091720082608093BD
:100C5000720052CD3D85353009F055CF809121018C
:100C6000887F892B809321012FEF3FEFA901411449
:100C700051046104710409F097CFD0922901C09208
:100C8000280120935303309354034093550350930A
:100C90005603809173008260809373002DCD9D85F3
:100CA000943031F20CF4A0CF953039F325CDC7BC88
:100CB00020936703309368034093690350936A035A
:100CC00080916E00826080936E0016CDC092B3005A
:100CD00020935F033093600340936103509362035A
:100CE0008091700082608093700006CDE1E0CE1AA2
:100CF000D108E108F108F8EE8F0EF3E09F1EA11C69
:100D0000B11CC114D104E104F10409F409CD0E941D
:100D10003B01681979098A099B09683E734081057E
:100D2000910520F7FDCC80E090E0892B09F4ACCC54
:100D30000E940000A9CC0E94A2066894B1110C94F4
:100D4000310708950E94160788F09F5798F0B92F31
:100D50009927B751B0F0E1F0660F771F881F991FF0
:100D60001AF0BA95C9F714C0B13091F00E9430075B
:100D7000B1E008950C943007672F782F8827B85F6B
:100D800039F0B93FCCF3869577956795B395D9F748
:100D90003EF490958095709561957F4F8F4F9F4F52
:100DA0000895E89409C097FB3EF49095809570955E
:100DB00061957F4F8F4F9F4F9923A9F0F92F96E9A7
:100DC000BB279395F695879577956795B795F1111C
:100DD000F8CFFAF4BB0F11F460FF1BC06F5F7F4FB9
:100DE0008F4F9F4F16C0882311F096E911C07723CB
:100DF00021F09EE8872F762F05C0662371F096E8D4
:100E0000862F70E060E02AF09A95660F771F881FA2
:100E1000DAF7880F9695879597F9089557FD9058BA
:100E2000440F551F59F05F3F71F04795880F97FBAE
:100E3000991F61F09F3F79F0879508951216130668
:100E40001406551FF2CF4695F1DF08C01616170697
:100E50001806991FF1CF86957105610508940895CC
:100E6000E894BB2766277727CB0197F908950E945E
:100E70004A070C94BB070E94AD0738F00E94B407E4
:100E800020F0952311F00C94A4070C94AA071124C8
:100E90000C9431070E940E0770F3959FC1F3950FD4
:100EA00050E0551F629FF001729FBB27F00DB11DEE
:100EB000639FAA27F00DB11DAA1F649F6627B00D7E
:100EC000A11D661F829F2227B00DA11D621F739F67
:100ED000B00DA11D621F839FA00D611D221F749F75
:100EE0003327A00D611D231F849F600D211D822FBC
:100EF000762F6A2F11249F5750409AF0F1F08823E3
:100F00004AF0EE0FFF1FBB1F661F771F881F91500F
:100F10005040A9F79E3F510580F00C94A4070C9413
:100F200031075F3FE4F3983ED4F386957795679554
:100F3000B795F795E7959F5FC1F7FE2B880F911D39
:100F40009695879597F9089597F99F6780E870E0DF
:100F500060E008959FEF80EC089500240A9416162F
:100F6000170618060906089500240A941216130697
:100F7000140605060895092E0394000C11F4882325
:100F800052F0BB0F40F4BF2B11F460FF04C06F5F41
:100F90007F4F8F4F9F4F089597FB072E16F40094B5
:100FA00007D077FD09D00E94300807FC05D03EF439
:100FB000909581959F4F0895709561957F4F089505
:100FC000A1E21A2EAA1BBB1BFD010DC0AA1FBB1F4D
:100FD000EE1FFF1FA217B307E407F50720F0A21BBF
:100FE000B30BE40BF50B661F771F881F991F1A942C
:100FF00069F760957095809590959B01AC01BD0156
:10100000CF010895052E97FB1EF400940E94190845
:1010100057FD07D00E94E00707FC03D04EF40C9464
:10102000190850954095309521953F4F4F4F5F4F90
:10103000089590958095709561957F4F8F4F9F4F44
:101040000895EE0FFF1F881F8BBF0790F691E02DCC
:1010500019940E944408B7FF0895821B930B0895CA
:10106000AA1BBB1B51E107C0AA1FBB1FA617B707CE
:1010700010F0A61BB70B881F991F5A95A9F78095EA
:101080009095BC01CD010895A29FB001B39FC0010E
:10109000A39F700D811D1124911DB29F700D811DA4
:0A10A0001124911D0895F894FFCF6C
:1010AA00FF93029302BA0210031003BA0293024B8F
:1010BA00020B020B024B02930293024B024B0206F3
:1010CA000188010601880193029302BA02100310F3
:1010DA0003BA0293024B020B020B024B0293024B1E
:1010EA00020B020B02060188010601880106014B68
:1010FA00024B0293020B024B029302BA0293020BB7
:10110A00024B029302BA0293024B020B024B028871
:10111A0001880188018801100393029302BA021020
:10112A00031003BA0293024B020B020B024B029307
:10113A00024B020B020B0206018801060188010616
:10114A000104000400040004000400040004000474
:10115A000004000400040004000300080002000167
:10116A00000100010001000400040004000400045E
:10117A000004000400040004000400040004000346
:10118A000008000200010001000100020002000440
:10119A00000400040004000400080008000400041D
:1011AA000004000800080004000400040004000110
:1011BA000001000100010002000400040004000410
:1011CA0000040004000400040004000400040004F5
:1011DA0000030008000200010001000100020002F1
:0211EA00000003
:00000001FF
