:100000000C9451010C9482010C9482010C94820195
:100010000C9482010C9482010C9482010C94820154
:100020000C9482010C9482010C9482010C94820144
:100030000C9482010C9482010C9482010C94820134
:100040000C9482010C9482010C9482010C94820124
:100050000C9482010C9482010C9482010C943F0B4D
:100060000C9482010C94090B0C94DF0A0C9482010D
:100070000C9482010C9482010C9482010C948201F4
:100080000C9482010C9482010C9482010C948201E4
:100090000C9482010C9482010C9482010C94890BC3
:1000A0000C9482010C9482010C9482010C948201C4
:1000B0000C9482010C9482010C9482010C948201B4
:1000C0000C9482010C9482010C9482010C948201A4
:1000D0000C9482010C9482010C9482010C94820194
:1000E0000C9482010C9485070C9475030C94900376
:1000F0000C94FC020C945B070C944E040C94B0031B
:100100000C940E040C9418020C9498030C9479032C
:100110000C9477020C9494030C94E7070C94AF02B0
:100120000C946B030C94AC030C9480030C94690244
:100130000C94DD030C9498090C94AB030C9471039C
:100140000C94AD0C0C946B070C94A6030C949E03BA
:100150000C9419020C94E6070C94A2030C947D03F2
:100160000C9446020C947E070C945C070C94860356
:100170000C9455020C9417020C948A030C94B20749
:1001800000002100240027002A002D003000330049
:1001900001010000040107010A01000022002500FE
:1001A00028002B002E003100340002010000050160
:1001B00008010B01000020002300260029002C006C
:1001C0002F003200000100000301060109010505AE
:1001D0000505070508080808020202020A0A0808BD
:1001E00004040404010101010101010103030303EB
:1001F00003030303040707070C0C0C0C0C0C0C0C7A
:100200000202020206060606060606060B0B0B0B8A
:100210000B0B0B0B010210202008081020401020AF
:1002200040800201020108040201010204081020BA
:1002300040808040201008040201800402018040B8
:100240002010080402010804020101020408102021
:100250004080010204081020408000000A0B0209BF
:100260000C0D0E0807030401000000000000000050
:10027000000000000000000000000000000000007E
:10028000000000000000121110000000000000003B
:10029000000000000000000000000000000000005E
:1002A000AD0C11241FBECFEFD1E2DEBFCDBF00E009
:1002B0000CBF12E0A0E0B2E0E0E8F0E200E00BBF2B
:1002C00002C007900D92AA39B107D9F724E0AAE934
:1002D000B2E001C01D92AE38B207E1F711E0C1E50E
:1002E000D1E000E006C021970109802FFE010E94A5
:1002F0003610C035D10780E00807A9F70E94780DB5
:100300000C943E100C94000096E0899FD0011124BB
:10031000A95FBB4F90967C936E935F9791E0919607
:100320009C939197E0917404F091750490917304FB
:10033000992339F0309751F0811108C0809123043E
:100340001994309719F05C968C91FACF0895CF925A
:10035000DF92EF92FF920F931F9396E0899FF00137
:100360001124E95FFB4F11A2278D30A12130310507
:1003700051F178F02230310509F451C023303105B4
:1003800009F452C01F910F91FF90EF90DF90CF9032
:1003900008956623B9F361E070E00E9484012FB7ED
:1003A000F89480910A0390910B03A0910C03B091F3
:1003B0000D032FBF80935F0490936004A0936104AA
:1003C000B0936204DFCF9FB7F894C0900A03D09037
:1003D0000B03E0900C03F0900D039FBF00915F04AE
:1003E000109160042091610430916204C01AD10A16
:1003F000E20AF30A009171041091720430E020E0E7
:100400000C151D052E053F0550F462E070E01F91AC
:100410000F91FF90EF90DF90CF900C9484016111C9
:10042000B1CF63E070E0F3CF70E060E0F0CF08950B
:100430000895AF92BF92CF92DF92EF92FF920F9307
:100440001F93CF93DF936C017B018B01040F151F6A
:10045000EB015E01AE18BF08C017D10759F06991D2
:10046000D601ED91FC910190F081E02DC601199526
:10047000892B79F7C501DF91CF911F910F91FF90E3
:10048000EF90DF90CF90BF90AF900895FC01538D17
:10049000448D252F30E0842F90E0821B930B54175E
:1004A00010F0CF96089501970895FC01918D828DEB
:1004B000981761F0A28DAE0FBF2FB11D5D968C9184
:1004C000928D9F5F9F73928F90E008958FEF9FEFC3
:1004D0000895FC01918D828D981731F0828DE80F7F
:1004E000F11D858D90E008958FEF9FEF0895FC0139
:1004F000918D228D892F90E0805C9F4F821B910906
:100500008F73992708958EE593E00E94770221E08A
:10051000892B09F420E0822F0895FC01A48DA80FF7
:10052000B92FB11DA35ABF4F2C91848D90E0019635
:100530008F739927848FA689B7892C93A089B18955
:100540008C91837080648C93938D848D981306C0F6
:100550000288F389E02D80818F7D80830895EF925A
:10056000FF920F931F93CF93DF93EC0181E0888F6D
:100570009B8D8C8D98131AC0E889F989808185FF3D
:1005800015C09FB7F894EE89FF896083E889F989DF
:1005900080818370806480839FBF81E090E0DF91E1
:1005A000CF911F910F91FF90EF900895F62E0B8D34
:1005B00010E00F5F1F4F0F731127E02E8C8D8E11EF
:1005C0000CC00FB607FCFACFE889F989808185FF56
:1005D000F5CFCE010E948D02F1CFEB8DEC0FFD2FF8
:1005E000F11DE35AFF4FF0829FB7F8940B8FEA8911
:1005F000FB8980818062CFCFCF93DF93EC01888D20
:100600008823B9F0AA89BB89E889F9898C9185FD8D
:1006100003C0808186FD0DC00FB607FCF7CF8C911B
:1006200085FFF2CF808185FFEDCFCE010E948D0244
:10063000E9CFDF91CF91089580E090E0892B29F0F8
:100640000E94830281110E94000080E090E0892BCB
:1006500049F080E090E0892B29F00E940000811190
:100660000E94000080E090E0892B49F080E090E05B
:10067000892B29F00E94000081110E94000080E077
:1006800090E0892B49F080E090E0892B29F00E94CE
:10069000000081110C94000008958150823108F00F
:1006A0005AC0E82FF0E08827E75AFC4F8F4F0C9490
:1006B000361079037D036B0371037503AB0380036D
:1006C00086038A039003940398039E03A203AB035B
:1006D000A603AC03B003809180008F7780938000E5
:1006E0000895809180008F7DF9CF80918000877F71
:1006F000F5CF84B58F7784BD089584B58F7DFBCF0A
:100700008091B0008F778093B00008958091B00001
:100710008F7DF9CF809190008F778093900008951E
:10072000809190008F7DF9CF80919000877FF5CFE9
:100730008091A0008F778093A00008958091A00001
:100740008F7DF9CF8091A000877FF5CF8091200128
:100750008F77809320010895809120018F7DF9CFBC
:1007600080912001877FF5CFCF93DF93282F30E052
:10077000F901E65AFD4F8491F901EC5EFD4FD491E9
:10078000F901E253FE4FC491CC23A1F081110E94E4
:100790004D03EC2FF0E0EE0FFF1FEC54FE4FA59140
:1007A000B491EC91ED2381E090E009F480E0DF91D9
:1007B000CF91089580E090E0FACF862F0C94B40397
:1007C0001F93CF93DF93282F30E0F901E65AFD4FB6
:1007D0008491F901EC5EFD4FD491F901E253FE4F93
:1007E000C491CC23A9F0162F81110E944D03EC2F48
:1007F000F0E0EE0FFF1FE656FE4FA591B4918FB7C4
:10080000F894EC91111108C0D095DE23DC938FBFD2
:10081000DF91CF911F910895DE2BF8CF862F642FA3
:100820000C94E003CF93DF9390E0FC01EC5EFD4F6E
:10083000249182539E4FFC0184918823C9F090E05B
:10084000880F991FFC01E058FE4FA591B491FC015F
:10085000E656FE4FC591D49161110DC09FB7F89433
:100860008C91209582238C938881282328839FBF95
:10087000DF91CF910895623051F49FB7F8943C9185
:10088000822F809583238C93E8812E2BEFCF8FB717
:10089000F894EC912E2B2C938FBFEACF862F642FE8
:1008A0000C9412046F927F928F929F92AF92BF929C
:1008B000CF92DF92EF92FF920F931F93CF93DF932C
:1008C00081E0809373048FB7F89440910A035091AC
:1008D0000B0360910C0370910D038FBF8091630433
:1008E00090916404A0916504B0916604481B590B73
:1008F0006A0B7B0B80916F0490917004B0E0A0E0D4
:1009000084179507A607B70708F01DC1C0E08091BE
:100910006D04C81760F4E0916904F0916A04EC0F6B
:10092000F11D62E080810E941204CF5FF0CF712C34
:10093000812C912C5401839480916E04781608F0D8
:100940005FC0072D10E0E0916B04F0916C04E00FA4
:10095000F11F61E080810E941204E0916B04F0912C
:100960006C04E00FF11F60E080810E94E003D5017C
:10097000C401072C04C0880F991FAA1FBB1F0A942B
:10098000D2F76C017C01E094F094612C80916D04AD
:100990006816F8F4C62DD0E0E0916904F0916A047D
:1009A000EC0FFD1F80810E94B4032496CC0FDD1F45
:1009B000C95FDB4F892B41F4888199818C299D295E
:1009C000998388836394E2CF888199818E219F21C6
:1009D000F7CFE0916B04F0916C04E00FF11F61E040
:1009E00080810E94E00380916B0490916C04080F59
:1009F000191F60E0F80180810E94120473949CCF5B
:100A0000C7E0D4E0FE018FEF9FEF278D30A1232BAD
:100A100021F4148E968F858F11A2369624E0E3344C
:100A2000F20799F7F12C96E0D92E80916D04F81613
:100A300008F050C0E12C0F2D10E0000F111F015FD6
:100A40001B4F20916E04E21608F042C0F80160814D
:100A500071810E2C02C0769567950A94E2F7F29E9A
:100A6000900111242E0D311DE7E0F4E080E0458D6A
:100A7000568D2417350709F46AC08F5F36968A3081
:100A8000B1F760FF23C0E7E0F4E090E080E0448D40
:100A9000411117C0E0916704F0916804E20FF31F61
:100AA0004081D89EF001D99EF00D1124E95FFB4FE3
:100AB000448F368F258F10A2178E61E00E94A70108
:100AC00005C0019636968A30910509F7E394B9CFAF
:100AD000F394ABCF80E099A19111892F2696F4E091
:100AE000C334DF07C1F79FB7F89440910A035091D0
:100AF0000B0360910C0370910D039FBF409363043F
:100B00005093640460936504709366048823D9F05D
:100B1000809128048823B9F08091260490912704BD
:100B2000019789F480912304DF91CF911F910F9158
:100B3000FF90EF90DF90CF90BF90AF909F908F90FD
:100B40007F906F9008951092730480E0EDCF6170F4
:100B5000B5CF0E9452048823E1F308953FB7F8947B
:100B60008091FF0290910003A0910103B0910203D4
:100B700026B5A89B05C02F3F19F00196A11DB11DF8
:100B80003FBFBA2FA92F982F8827BC01CD01620F34
:100B9000711D811D911D42E0660F771F881F991FEF
:100BA0004A95D1F708958F929F92AF92BF92CF92BC
:100BB000DF92EF92FF924B015C010E94AE056B0148
:100BC0007C010E94AE056C197D098E099F09683E63
:100BD000734081059105A8F321E0821A9108A108CC
:100BE000B10888EEC80E83E0D81EE11CF11C811408
:100BF0009104A104B10429F7FF90EF90DF90CF900A
:100C0000BF90AF909F908F9008952091DB02260FA8
:100C10003327331F21323105ECF420913403FC01DA
:100C200090E080E0243069F082E00895A091DB023A
:100C30002191AC0145545D4FA40FB52FB11D2C93EC
:100C40000196861798F38091DB02680F6093DB02B0
:100C500080E0089581E008951092340381E080934C
:100C6000330310920E0361E084E10E94E00361E02F
:100C700085E10E94E003E9EBF0E080818E7F8083D4
:100C800080818D7F808388E48093B80085E48093A1
:100C9000BC000895CF93DF9391E09093BA0288232C
:100CA000B9F0C091B800D091BA008091BC008A7BA5
:100CB0008093BC0060E084E10E94E00360E085E195
:100CC0000E94E0030E942C06D093BA00C093B800A3
:100CD000DF91CF9108958F929F92AF92BF92CF9262
:100CE000DF92EF92FF920F931F93CF93DF93D091F8
:100CF0005D03D13208F0D7C0182FC0915C030E9469
:100D0000AE056B017C018091340381116BC082E0E0
:100D100080933403109333038FEF80933203109248
:100D20003103D0933003ACE3B3E0E0E1F3E080E0E3
:100D3000D81391C010920F0380910F03CC0FC82BD2
:100D4000C0930F0380910E03813009F088C0109288
:100D50000E030E94AE056B017C0180910F0380930E
:100D6000BB008091360390913703A0913803B09176
:100D70003903892B8A2B8B2BA1F00E94AE050091A1
:100D800036031091370320913803309139036C19E1
:100D90007D098E099F09061717072807390708F4E8
:100DA00042C08091BC0083FDD8CF85EC8093BC000D
:100DB0000E94AE056B017C0180913403823009F4FE
:100DC00050C0809132038F3F09F46FC0809132038D
:100DD000803209F46CC080913203803309F469C019
:100DE00084E026C08091360390913703A0913803A8
:100DF000B0913903892B8A2B8B2B09F484CF0E9465
:100E0000AE058090360390903703A0903803B090E1
:100E100039036C197D098E099F0986169706A80665
:100E2000B90608F070CF809135030E944A0685E02C
:100E300010923B0310925D0310923A03DF91CF9121
:100E40001F910F91FF90EF90DF90CF90BF90AF90E8
:100E50009F908F9008959D9191938F5F69CF85EEBC
:100E6000A5CF8091360390913703A0913803B091BC
:100E70003903892B8A2B8B2B09F49ECF0E94AE0558
:100E800000913603109137032091380330913903D4
:100E90006C197D098E099F0906171707280739075E
:100EA00008F08ACFC0CF81E0C3CF80E0C1CF82E01D
:100EB000BFCF83E0BDCF0895E09108038091070381
:100EC000E81730F4F0E0E656FD4F808190E0089599
:100ED0008FEF9FEF089590910803809107032FEF04
:100EE0003FEF981748F4E92FF0E0E656FD4F2081D8
:100EF00030E09F5F90930803C90108958091070334
:100F000090910803891B990B0895CF92DF92EF927D
:100F1000FF920F931F93CF93DF937C01CB018A0144
:100F200020913A03222389F0EB016B01C40ED51EF8
:100F3000CC15DD0569F06991D701ED91FC91019027
:100F4000F081E02DC7011995F3CF642F0E940506AB
:100F5000C801DF91CF911F910F91FF90EF90DF902B
:100F6000CF900895CF93DF931F92CDB7DEB76983FB
:100F700020913A032223F9F020915D03203258F0AA
:100F800021E030E0FC013383228390E080E00F9089
:100F9000DF91CF91089580913B03E82FF0E0E45C6E
:100FA000FC4F998190838F5F80933B0380935D0317
:100FB00081E090E0ECCF61E0CE0101960E94050651
:100FC000F7CF682F8BEF93E00C94B207089590E071
:100FD00080E008958F929F92AF92BF920F931F93DC
:100FE000CF93DF93CDB7DEB7A1970FB6F894DEBFEE
:100FF0000FBECDBF19A2423008F44AE08E010F5D4A
:101000001F4F842E912CB12CA12CA50194010E947C
:101010001410E62FB901CA01EA3044F5E05DD801A9
:10102000EE938D01232B242B252B79F790E080E084
:10103000109769F0FD0101900020E9F73197AF01A9
:101040004A1B5B0BBD0186E794E00E941902A19642
:101050000FB6F894DEBF0FBECDBFDF91CF911F91C9
:101060000F91BF90AF909F908F900895E95CD7CF7C
:10107000FC0101900020E9F73197AF01481B590BA3
:10108000BC0186E794E00C941902CF93DF93EC0146
:1010900060E08E810E94E00361E08E810E94E003A7
:1010A00060E08E810E94E0038BE891E00197F1F708
:1010B000DF91CF910895CF92DF92EF92FF920F933D
:1010C0001F93CF93DF936C017C0187E0E80EF11C46
:1010D000D0E0C0E0062F10E0B8010C2E02C07595DC
:1010E00067950A94E2F76170F70181917F010E9490
:1010F000E0032196C430D10579F7C601DF91CF9185
:101100001F910F91FF90EF90DF90CF900C944508C6
:10111000CF92DF92EF92FF920F931F93CF93DF93C3
:10112000EC01F62E642F8C810E94E0038D818F3FAD
:1011300019F060E00E94E0030F2D10E08F8584FF1E
:1011400025C06E0187E0C80ED11CF12CE12CB8013E
:101150000E2C02C0759567950A94E2F76170F6014E
:1011600081916F010E94E003FFEFEF1AFF0A88E010
:10117000E816F10461F7CE01DF91CF911F910F9135
:10118000FF90EF90DF90CF900C944508B80184E079
:10119000759567958A95E1F7CE010E945B086F2DE2
:1011A000CE01DF91CF911F910F91FF90EF90DF90D3
:1011B000CF900C945B0840E0682F86E794E00C9495
:1011C000880881E00E94DB088BE39FE10197F1F73B
:1011D0000895CF93DF93823029F49091850498602D
:1011E000909385048093890410928A0480E480930C
:1011F0008B0480E180938C0480E580938D0461E012
:1012000080917A040E94120480917B048F3F19F030
:1012100061E00E94120461E080917C040E9412044B
:10122000C6E7D4E09E01265734408091850484FDB2
:101230000BC084E090E021962817390744F461E060
:101240008E810E941204EECF88E090E0F4CF8BE311
:101250009DE00197F1F760E080917A040E94E0033D
:1012600060E080917C040E94E00380917B048F3FCA
:1012700019F060E00E94E0038091850484FD34C091
:1012800063E086E794E00E945B08CBE4D6E4CE01FD
:101290000197F1F763E086E794E00E945B082197ED
:1012A000F1F763E086E794E00E945B0883E592E053
:1012B0000197F1F762E086E794E00E945B08809175
:1012C000850480620E94DB0884E0809386048CE0C1
:1012D0000E94DB080E94E10882E08093870486E098
:1012E000DF91CF910C94DB0880620E94DB088BE4D5
:1012F00096E40197F1F78091850480620E94DB08F3
:1013000083E592E00197F1F78091850480620E9465
:10131000DB08D5CF90918904891710F08FEF890FE2
:10132000E82FF0E0EA58FB4F848980680C94DB08D2
:1013300041E00E94880881E090E00895CF92DF921A
:10134000EF92FF926C01990FEE08FF08F7FE16C0AE
:1013500041E06DE286E794E00E94880866277727DF
:10136000CB016C197D098E099F094AE00E94EA07AA
:101370000196FF90EF90DF90CF9008954AE0C7016B
:10138000B601FF90EF90DF90CF900C94EA07CF92D8
:10139000DF92EF92FF920F931F9381E080933A03C5
:1013A00080E580935C0310923B0310925D0390E014
:1013B00080E00E94E1078AEA90E00E94E10781E074
:1013C0000E946B060E94AE056B017C018091340384
:1013D000811163C081E080933403809333039FEFD6
:1013E00090933203109231031092300380930F03D5
:1013F00080910F03806A80930F0380910E038130E8
:1014000009F07FC010920E030E94AE056B017C01B3
:1014100080910F038093BB00809136039091370336
:10142000A0913803B0913903892B8A2B8B2BA1F023
:101430000E94AE05009136031091370320913803C6
:10144000309139036C197D098E099F09061717071A
:101450002807390708F442C08091BC0083FDD8CF2B
:1014600085EC8093BC000E94AE056B017C018091ED
:101470003403813009F447C080913103811165C084
:1014800080913103A0E1B3E0EAE9F2E090E098173F
:1014900051F12D9121939F5FFACF80913603909166
:1014A0003703A0913803B0913903892B8A2B8B2BFA
:1014B00009F48CCF0E94AE050091360310913703DA
:1014C00020913803309139036C197D098E099F09E9
:1014D000061717072807390708F078CF80913503DA
:1014E0000E944A0680E010920803809307038BEF66
:1014F00093E01F910F91FF90EF90DF90CF900C94AD
:101500006B0785EEAECF8091360390913703A091A3
:101510003803B0913903892B8A2B8B2B09F4A7CF81
:101520000E94AE05009136031091370320913803D5
:10153000309139036C197D098E099F090617170729
:101540002807390708F093CFC9CF81E09BCF85EDFD
:101550008093BC008091360390913703A0913803AB
:10156000B09139030796A11DB11D23E0B695A7954B
:10157000979587952A95D1F72091BC0024FD03C04B
:1015800010923403089540913603509137036091CF
:10159000380370913903452B462B472B69F300978D
:1015A000A105B10541F025E32A95F1F70000019767
:1015B000A109B109E1CF809135030C944A061F922D
:1015C0000F920FB60F9211240BB60F922F933F93E9
:1015D0004F935F936F937F938F939F93AF93BF933B
:1015E000EF93FF938EE593E00E948D02FF91EF91C0
:1015F000BF91AF919F918F917F916F915F914F912B
:101600003F912F910F900BBE0F900FBE0F901F9028
:1016100018951F920F920FB60F9211240BB60F92CE
:101620002F938F939F93EF93FF93E0916E03F0912D
:101630006F038081E0917403F091750382FD1DC0FA
:101640009081809177038F5F8F7320917803821749
:1016500041F0E0917703F0E0E25AFC4F958F8093E0
:101660007703FF91EF919F918F912F910F900BBE78
:101670000F900FBE0F901F9018958081F2CF1F9290
:101680000F920FB60F9211242F933F938F939F9336
:10169000AF93BF9380910A0390910B03A0910C0329
:1016A000B0910D033091FE0223E0230F2D3758F542
:1016B0000196A11DB11D2093FE0280930A03909311
:1016C0000B03A0930C03B0930D038091FF02909144
:1016D0000003A0910103B09102030196A11DB11D69
:1016E0008093FF0290930003A0930103B093020341
:1016F000BF91AF919F918F913F912F910F900FBE0E
:101700000F901F90189526E8230F0296A11DB11D7A
:10171000D2CF1F920F920FB60F9211240BB60F92D9
:101720002F933F934F935F936F937F938F939F93E9
:10173000AF93BF93EF93FF938091B900887F80367A
:1017400009F44DC008F040C0883209F4A9C028F55A
:10175000803109F49DC0C8F4882309F4FBC08830A7
:1017600009F496C0FF91EF91BF91AF919F918F9136
:101770007F916F915F914F913F912F910F900BBE91
:101780000F900FBE0F901F901895883109F488C0F4
:10179000803241F78093320314C0803409F49DC035
:1017A00040F48033B9F38833E9F68093320385EC53
:1017B000B0C0803509F485C0883509F496C08834F6
:1017C00089F60E94A70ACECF883909F48CC038F573
:1017D000883729F050F4883611F0803719F683E005
:1017E000809334031092FD0257C0883809F47BC0FF
:1017F000803919F0803809F0B5CF8091FD02803230
:1018000008F071C0E091FD0281E08E0F8093FD022F
:101810008091BB00F0E0E352FD4F80833DC0803BF0
:1018200039F0E0F4803A09F479C0883A09F09ACFA7
:1018300084E0809334031092DC021092DB02E0918A
:101840000503F091060319958091DB0281110FC009
:1018500081E08093DB021092BB0209C0803C09F456
:10186000A6CF883C09F4A3CF883B09F07BCFE09159
:10187000DC0281E08E0F8093DC02F0E0E554FD4F46
:1018800080818093BB009091DC028091DB0229C0B3
:1018900080910F038093BB0085EC8093BC0062CFE6
:1018A0009091310380913003981758F5E0913103FE
:1018B00081E08E0F80933103F0E0E05FFC4F808188
:1018C000E9CFE091310381E08E0F80933103809165
:1018D000BB00F0E0E05FFC4F80839091310380918A
:1018E00030039817C8F285E8D8CFE091310381E042
:1018F0008E0F809331038091BB00F0E0E05FFC4FDE
:1019000080838091330381115CCF81E080930E034B
:1019100084EA8093BC001092340324CF85EC80933A
:10192000BC00109234038091FD02803230F4E091CB
:10193000FD02F0E0E352FD4F10826091FD0270E085
:10194000E0910303F09104038DED92E0199510925C
:10195000FD0208CF1092320334CF1092610310922F
:10196000600388EE93E0A0E0B0E080936203909380
:101970006303A0936403B093650320E232E03093E5
:101980005F0320935E0325EC30E030936B032093DC
:101990006A0324EC30E030936D0320936C0320EC59
:1019A00030E030936F0320936E0321EC30E03093EE
:1019B00071032093700322EC30E030937303209383
:1019C000720326EC30E03093750320937403109279
:1019D0007703109278031092790310927A03109291
:1019E000FE031092FD038093FF0390930004A093E5
:1019F0000104B093020482E392E09093FC0380938D
:101A0000FB0310927904109278048EE492E0909394
:101A100077048093760486E180937A048FEF809335
:101A20007B0487E180937C0488E180937D0489E1D5
:101A300080937E048AE180937F048BE1809380040D
:101A400010928104109282041092830410928404F4
:101A50001092850481E00E94E90810920904109216
:101A60000D0410920C0410920E0484E492E0909302
:101A7000080480930704E3E2F4E0108214821382E6
:101A80001582369684E0EF35F807B9F78AE592E0DB
:101A900090936A048093690486E592E090936C04C5
:101AA00080936B0484E080936D0480936E048CE0DB
:101AB00092E090936804809367048AE090E09093AA
:101AC000700480936F0484EF91E09093720480938C
:101AD00071041092750410927404109263041092B1
:101AE00064041092650410926604109273040895C1
:101AF000789484B5826084BD84B5816084BD85B5E9
:101B0000826085BD85B5816085BD80916E008160F4
:101B100080936E001092810080918100826080939A
:101B2000810080918100816080938100809180009C
:101B30008160809380008091B10084608093B100C7
:101B40008091B00081608093B000809191008260AC
:101B500080939100809191008160809391008091A9
:101B600090008160809390008091A10082608093BA
:101B7000A1008091A10081608093A1008091A000CC
:101B800081608093A0008091210182608093210177
:101B900080912101816080932101809120018160E9
:101BA0008093200180917A00846080937A008091F4
:101BB0007A00826080937A0080917A0081608093BD
:101BC0007A0080917A00806880937A001092C10038
:101BD000E0916E03F0916F0382E08083E0916A03ED
:101BE000F0916B031082E0916C03F0916D038FEC28
:101BF000808310927603E0917203F091730386E084
:101C00008083E0917003F091710380818061808313
:101C1000E0917003F0917103808188608083E0918E
:101C20007003F0917103808180688083E09170037C
:101C3000F091710380818F7D808382E00E94E908AA
:101C40000E94E108109208031092070310923B03D0
:101C500010925D030E942C0687E192E090930603A8
:101C60008093050388E192E090930403809303033B
:101C700061E08DE10E94120461E08EE10E94120495
:101C800061E08FE10E94120461E080E20E94120490
:101C90000E94C70981E090E090930B0280930A02B2
:101CA00090930102809300020AE080E5982EAA2416
:101CB000A394B12C80910A0290910B02E09008024B
:101CC000F09009021DE181309105D1F0E09006020B
:101CD000F09007021EE18230910591F0E09004023D
:101CE000F09005021FE18330910551F0E09002026F
:101CF000F090030210E2049719F010E0F12CE12CAF
:101D000061E0812F0E94E003D12CC12CCE14DF04AE
:101D10000CF03DC10E945204809309030E94E10827
:101D200080E00E948A098EE592E00E943808809146
:101D30000002909101020E949E0981E00E948A099E
:101D40008DE692E00E943808C7018C199D090E9417
:101D50009E09809109038A3291F40E94A90580931B
:101D60000903809109038A32C1F76AE070E080E0DC
:101D700090E00E94D3058FEFC81AD80AC7CF8D32E2
:101D800009F0C0C00E94E10880E00E948A0984E74F
:101D900092E00E9438080E94A905C82F8093090389
:101DA00081E00E948A0941E06C2F86E794E00E945E
:101DB000880864E670E080E090E00E94D305C133BB
:101DC00089F50E94A90580930903082E000C990B40
:101DD000C09790930902809308020E94A9058093FE
:101DE00009032091080230910902029FE001039F3C
:101DF000D00D1124C80FD11D87FDDA95E097D0933F
:101E00000902C09308020E94E10880E00E948A094A
:101E1000CE010E949E096AEF70E080E090E00E948F
:101E2000D305A3CFC23319F50E94A90580930903F6
:101E3000082E000C990BC09790930702809306021E
:101E40000E94A905809309032091060230910702A0
:101E5000029FE001039FD00D1124C80FD11D87FD03
:101E6000DA95E097D0930702C0930602CCCFC33334
:101E700019F50E94A90580930903082E000C990BFF
:101E8000C09790930502809304020E94A905809355
:101E900009032091040230910502029FE001039F93
:101EA000D00D1124C80FD11D87FDDA95E097D0938E
:101EB0000502C0930402A7CFC43309F056CF0E9495
:101EC000A90580930903082E000C990BC0979093E5
:101ED0000302809302020E94A905809309032091C6
:101EE000020230910302029FE001039FD00D1124F2
:101EF000C80FD11D87FDDA95E097D0930302C093F8
:101F0000020281CF8B3209F030CF0E94E10880E0DD
:101F10000E948A0983E892E00E9438080E94A9057D
:101F2000C82F8093090381E00E948A0941E06C2F49
:101F300086E794E00E94880864E670E080E090E024
:101F40000E94D3058FEC8C0F843008F00ECF0C2E3E
:101F5000000CDD0BE09781E080933A0390925C03E4
:101F600010923B0310925D0390E080E00E94E10735
:101F70008AEA90E00E94E107CE010E94E10781E039
:101F80000E946B06D0930102C0930002EECE60E087
:101F9000812F0E94E00380910A0290910B0201962A
:101FA00090930B0280930A020597DCF161E08DE1CA
:101FB0000E94E00361E08EE10E94E00361E08FE1B6
:101FC0000E94E00361E080E20E94E0030E94E108D9
:101FD00080E00E948A0982E992E00E9438080E940B
:101FE000A90580930903809109038A32C1F760E053
:101FF0008DE10E94E00360E08EE10E94E00360E07A
:102000008FE10E94E00360E080E20E94E0030E9412
:10201000C709B0920B02A0920A02B0920102A092EC
:1020200000020E941C0346CEA1E21A2EAA1BBB1B73
:10203000FD010DC0AA1FBB1FEE1FFF1FA217B30794
:10204000E407F50720F0A21BB30BE40BF50B661FAA
:10205000771F881F991F1A9469F76095709580956E
:1020600090959B01AC01BD01CF010895EE0FFF1FBC
:10207000881F8BBF0790F691E02D1994F894FFCF3D
:102080000100320032003200320001003738392FAF
:10209000343536783132332D2A303D2B00000000A4
:1020A000AF0219024602FC027702550269020000E3
:1020B0000000B2078507E7075B077E076B075C0731
:1020C000000000004E040E04DD030000000098092B
:1020D0001902E707E607323334352E2F30316465B5
:1020E0006661756C74204D6F64653A200074696D8B
:1020F000653A20004368616E67652054696D652EFE
:102100002E2E004368616E6765204D6F64652E2E2C
:0A2110002E0046494E4953480000D6
:00000001FF
