:100000000C942B010C945C010C945C010C945C012D
:100010000C945C010C945C010C945C010C945C01EC
:100020000C945C010C945C010C945C010C945C01DC
:100030000C945C010C945C010C945C010C945C01CC
:100040000C945C010C94D0050C945C010C945C0144
:100050000C945C010C945C010C945C010C94FC0409
:100060000C945C010C94C6040C949C040C945C01EC
:100070000C945C010C945C010C945C010C945C018C
:100080000C94A2050C945C010C945C010C945C0132
:100090000C945C010C945C010C945C010C945C016C
:1000A0000C945C010C945C010C9474050C945C0140
:1000B0000C945C010C945C010C945C010C9446055E
:1000C0000C945C010C945C010C945C010C945C013C
:1000D0000C945C010C945C010C945C010C945C012C
:1000E0000C945C010C943C030C9465020C942A0360
:1000F0000C94DB010C9401030C94FD020C940C0392
:100100000C94CD010C9405030C947D010C942003F8
:100110000C9409030C9461090C9413020C94EB02E7
:100120000C94E6020C942E030C9416030C942403F6
:100130000C94AA010C9412030C94B9010C94320390
:100140000C9438030C94FE050C941C0300000A0B5D
:1001500002090C0D0E080703040100000000000056
:10016000000000000000000000000000000000008F
:10017000000000000000000012111000000000004C
:10018000000000000000000000000000000000006F
:10019000000000002200250028002B002E00310066
:1001A000340002010000050108010B0100002100DC
:1001B000240027002A002D00300033000101000038
:1001C000040107010A0105050505070508080808D7
:1001D000020202020A0A08080404040401010101DF
:1001E00001010101030303030303030304070707DA
:1001F0000C0C0C0C0C0C0C0C02020202060606067F
:10020000060606060B0B0B0B0B0B0B0B010210204B
:10021000200808102040102040800201020108043C
:1002200002010102040810204080804020100804D0
:100230000201800402018040201008040201080429
:10024000020101020408102040800102040810206D
:100250004080FE05610911241FBECFEFD1E2DEBF51
:10026000CDBF00E00CBF12E0A0E0B2E0E4EFF8E1A7
:1002700000E00BBF02C007900D92A234B107D9F77E
:1002800023E0A2E4B2E001C01D92AC38B207E1F76E
:1002900011E0CAE2D1E000E006C021970109802FF9
:1002A000FE010E944A0AC932D10780E00807A9F777
:1002B0000E948C060C94680C0C94000090E0FC01E9
:1002C000E45FFD4F24918A539E4FFC018491882363
:1002D00099F090E0880F991FFC01E455FE4FA5911D
:1002E000B491FC01EE56FE4F859194918FB7F8942E
:1002F000EC91E22BEC938FBF0895AF92BF92CF9217
:10030000DF92EF92FF920F931F93CF93DF936C01D5
:100310007B018B01040F151FEB015E01AE18BF08B6
:10032000C017D10759F06991D601ED91FC91019068
:10033000F081E02DC6011995892B79F7C501DF9170
:10034000CF911F910F91FF90EF90DF90CF90BF90D2
:10035000AF900895FC01538D448D252F30E0842FFC
:1003600090E0821B930B541710F0CF9608950197DD
:100370000895FC01918D828D981761F0A28DAE0FCA
:10038000BF2FB11D5D968C91928D9F5F9F73928F51
:1003900090E008958FEF9FEF0895FC01918D828D7D
:1003A000981731F0828DE80FF11D858D90E008954A
:1003B0008FEF9FEF0895FC01918D228D892F90E0A2
:1003C000805C9F4F821B91098F739927089581E567
:1003D00092E00E94DB0121E0892B09F420E0822FCA
:1003E0000895FC01A48DA80FB92FB11DA35ABF4FCA
:1003F0002C91848D90E001968F739927848FA68924
:10040000B7892C93A089B1898C91837080648C9377
:10041000938D848D981306C00288F389E02D808126
:100420008F7D80830895EF92FF920F931F93CF9358
:10043000DF93EC0181E0888F9B8D8C8D98131AC01F
:10044000E889F989808185FF15C09FB7F894EE8906
:10045000FF896083E889F989808183708064808363
:100460009FBF81E090E0DF91CF911F910F91FF90AE
:10047000EF900895F62E0B8D10E00F5F1F4F0F7356
:100480001127E02E8C8D8E110CC00FB607FCFACF11
:10049000E889F989808185FFF5CFCE010E94F101BD
:1004A000F1CFEB8DEC0FFD2FF11DE35AFF4FF082E2
:1004B0009FB7F8940B8FEA89FB8980818062CFCF48
:1004C00060E281E592E00C941302CF93DF93EC019C
:1004D000888D8823B9F0AA89BB89E889F9898C912C
:1004E00085FD03C0808186FD0DC00FB607FCF7CFE8
:1004F0008C9185FFF2CF808185FFEDCFCE010E94E8
:10050000F101E9CFDF91CF91089580E090E0892B50
:1005100029F00E94E70181110E94000080E090E034
:10052000892B49F080E090E0892B29F00E9400009F
:1005300081110E94000080E090E0892B49F080E06A
:1005400090E0892B29F00E94000081110E94000098
:1005500080E090E0892B49F080E090E0892B29F041
:100560000E94000081110C9400000895282F30E0B3
:10057000F901E45BFE4F9491F901E45FFD4F449172
:100580002A533E4FF9012491222309F435C09923BF
:1005900011F191509231F8F4E92FF0E08827EC52F4
:1005A000FD4F8F4F0C944A0A05030903E602FD0232
:1005B0000103EB020C03120316031C0320032403A4
:1005C0002A032E03EB02320338033C0380918000A0
:1005D0008F7780938000E22FF0E0EE0FFF1FEE5642
:1005E000FE4FA591B4918FB7F894EC91611148C07A
:1005F00040954E234C938FBF0895809180008F7D4E
:10060000E8CF80918000877FE4CF84B58F7784BD69
:10061000E2CF84B58F7DFBCF8091B0008F77809340
:10062000B000D9CF8091B0008F7DF9CF809190003C
:100630008F7780939000CFCF809190008F7DF9CFFE
:1006400080919000877FF5CF8091A0008F77809375
:10065000A000C1CF8091A0008F7DF9CF8091A00034
:10066000877FF5CF809120018F7780932001B3CFD2
:10067000809120018F7DF9CF80912001877FF5CF78
:100680004E2BB8CF3FB7F89480914B0290914C021B
:10069000A0914D02B0914E0226B5A89B05C02F3FF8
:1006A00019F00196A11DB11D3FBFBA2FA92F982F98
:1006B0008827BC01CD01620F711D811D911D42E093
:1006C000660F771F881F991F4A95D1F708958F925B
:1006D0009F92AF92BF92CF92DF92EF92FF924B0127
:1006E0005C010E9442036B017C010E9442036C1971
:1006F0007D098E099F09683E734081059105A8F325
:1007000021E0821A9108A108B10888EEC80E83E0A2
:10071000D81EE11CF11C81149104A104B10429F735
:10072000FF90EF90DF90CF90BF90AF909F908F9011
:100730000895AF92BF92CF92DF92EF92FF920F9304
:100740001F93CF93DF936B017A01EC01CE5BDD4FFA
:1007500028813CE0389F8001399F100D1124A09022
:100760007E03B12C27FF1FC0FB01118210828881FC
:100770008F5F888388819801280F311D87FD3A9506
:10078000F6012A153B051CF488818C30C4F1808168
:100790009181049680349C4908F473C0F6018081ED
:1007A0009181049670C088819801280F311D87FDC2
:1007B0003A952A153B05DCF68881A801480F511DA2
:1007C00087FD5A95FA01EE0FFF1FE40FF51FE25166
:1007D000FD4F808186FFCBCF8881F801E80FF11DA6
:1007E00087FDFA95CF01EE0FFF1FE80FF91FE251C9
:1007F000FD4F808160E08F730E94B602B8CF808188
:1008000091812881A801420F511D27FD5A959A0117
:10081000FA01EE0FFF1FE20FF31FE251FD4F21819E
:100820003281820F931FF701918380838881980121
:10083000280F311D87FD3A95F901EE0FFF1FE20FDA
:10084000F31FE251FD4F808186FF22C08881080F8F
:10085000111D87FD1A95F801EE0FFF1FE00FF11F24
:10086000E251FD4F808161E08F73DF91CF911F9145
:100870000F91FF90EF90DF90CF90BF90AF900C94CE
:10088000B60280E49CE9F701918380838FEF88832F
:10089000DF91CF911F910F91FF90EF90DF90CF905C
:1008A000BF90AF900895FC0101900020E9F73197C7
:1008B000AF01481B590BBC0181E592E00C947D010E
:1008C000CF93DF930E945304EC0188E192E00E94F1
:1008D00053048C0F9D1FDF91CF910895CF93DF9329
:1008E000EC0180917F0390918003009759F0209153
:1008F0008103309182032C173D0720F081E0DF91C6
:10090000CF910895BE016F5F7F4F0E94770B0097D4
:1009100089F09093800380937F03D0938203C093E8
:1009200081032091830330918403232B39F7FC0149
:100930001082E4CF80E0E3CF1F920F920FB60F92A8
:1009400011240BB60F922F933F934F935F936F93A6
:100950007F938F939F93AF93BF93EF93FF9381E523
:1009600092E00E94F101FF91EF91BF91AF919F91B1
:100970008F917F916F915F914F913F912F910F9048
:100980000BBE0F900FBE0F901F9018951F920F92E5
:100990000FB60F9211240BB60F922F938F939F9344
:1009A000EF93FF93E0916102F09162028081E09108
:1009B0006702F091680282FD1DC0908180916A02F9
:1009C0008F5F8F7320916B02821741F0E0916A0272
:1009D000F0E0EF5AFD4F958F80936A02FF91EF91FF
:1009E0009F918F912F910F900BBE0F900FBE0F9084
:1009F0001F9018958081F2CF1F920F920FB60F9221
:100A000011242F933F938F939F93AF93BF93809124
:100A1000470290914802A0914902B0914A02309158
:100A2000460223E0230F2D3758F50196A11DB11D75
:100A3000209346028093470290934802A093490274
:100A4000B0934A0280914B0290914C02A0914D02CA
:100A5000B0914E020196A11DB11D80934B0290935F
:100A60004C02A0934D02B0934E02BF91AF919F9163
:100A70008F913F912F910F900FBE0F901F9018955F
:100A800026E8230F0296A11DB11DD2CF1F920F920F
:100A90000FB60F9211240BB60F922F933F934F93E3
:100AA0005F936F937F938F939F93AF93BF93EF93D6
:100AB000FF9348E251E064E271E090E080E00E9440
:100AC0009903FF91EF91BF91AF919F918F917F918A
:100AD0006F915F914F913F912F910F900BBE0F90AF
:100AE0000FBE0F901F9018951F920F920FB60F9286
:100AF00011240BB60F922F933F934F935F936F93F5
:100B00007F938F939F93AF93BF93EF93FF9348EAA5
:100B100050E064EA70E083E090E00E949903FF9166
:100B2000EF91BF91AF919F918F917F916F915F9165
:100B30004F913F912F910F900BBE0F900FBE0F90D2
:100B40001F9018951F920F920FB60F9211240BB69B
:100B50000F922F933F934F935F936F937F938F9356
:100B60009F93AF93BF93EF93FF9348E950E064E9FD
:100B700070E082E090E00E949903FF91EF91BF91B5
:100B8000AF919F918F917F916F915F914F913F9125
:100B90002F910F900BBE0F900FBE0F901F901895C6
:100BA0001F920F920FB60F9211240BB60F922F9334
:100BB0003F934F935F936F937F938F939F93AF93E5
:100BC000BF93EF93FF9348E850E064E870E081E062
:100BD00090E00E949903FF91EF91BF91AF919F9197
:100BE0008F917F916F915F914F913F912F910F90D6
:100BF0000BBE0F900FBE0F901F90189510925402CD
:100C00001092530288EE93E0A0E0B0E0809355028A
:100C100090935602A0935702B09358028AE092E054
:100C2000909352028093510285EC90E090935E0283
:100C300080935D0284EC90E09093600280935F0269
:100C400080EC90E0909362028093610281EC90E0EE
:100C5000909364028093630282EC90E0909366022A
:100C60008093650286EC90E090936802809367021F
:100C700010926A0210926B0210926C0210926D0236
:100C800080917E038033D8F591E0980F90937E0396
:100C90008093850390E0FC01EE0FFF1FE80FF91F22
:100CA000E251FD4F88EB9BE0928381831092800399
:100CB00010927F031092820310928103109284039A
:100CC0001092830390E080E00E946E0420917F03E5
:100CD00030918003811117C02115310519F0C90128
:100CE0000E94EE0A1092800310927F0310928403F8
:100CF00010928303109282031092810308958FEF64
:100D000080938503D3CF10928403109283036AE10A
:100D100072E0C9010C94610CCF93DF93CDB7DEB7BD
:100D2000A1970FB6F894DEBF0FBECDBF789484B5FF
:100D3000826084BD84B5816084BD85B5826085BDD7
:100D400085B5816085BD80916E00816080936E0065
:100D50001092810080918100826080938100809157
:100D60008100816080938100809180008160809308
:100D700080008091B10084608093B1008091B000C8
:100D800081608093B0008091910082608093910097
:100D900080919100816080939100809190008160AA
:100DA000809390008091A10082608093A100809147
:100DB000A10081608093A1008091A0008160809358
:100DC000A000809121018260809321018091210106
:100DD00081608093210180912001816080932001B6
:100DE00080917A00846080937A0080917A0082609A
:100DF00080937A0080917A00816080937A0080915C
:100E00007A00806880937A001092C100E0916102BC
:100E1000F091620282E08083E0915D02F0915E02D7
:100E20001082E0915F02F09160028FEC808310925B
:100E30006902E0916502F091660286E08083E091AC
:100E40006302F0916402808180618083E09163029B
:100E5000F0916402808188608083E0916302F09168
:100E60006402808180688083E0916302F091640273
:100E700080818F7D808380918503803308F051C00D
:100E800086E10E945E0180918503282F30E0F90100
:100E9000EE0FFF1FE20FF31FE251FD4F9081907C98
:100EA0009661908310928603109287032CE0622F44
:100EB0000E943E0A829FB001112430E020E0AB0185
:100EC000420F531FFA01EE0FFF1FE40FF51FE2510F
:100ED000FD4F908196FD17C02F5F3F4F2C3031059D
:100EE00071F7813009F05EC01092800082E080933B
:100EF00081001092850010928400B19A80916F0059
:100F0000826080936F00E09185038E2F90E0FC015A
:100F1000EE0FFF1FE80FF91FE251FD4F8081806443
:100F2000808386E10E945E0187E10E945E018AE182
:100F30000E945E0185E30E945E01AE014F5F5F4F3C
:100F40007A01A8E82A2E312CB8E5CB2EB2E0DB2EB0
:100F50001AE0812E912CA12CB12C81E592E00E9407
:100F6000DB0118161906DCF481E592E00E94B90154
:100F7000C0978233910509F041C08BE192E00E9455
:100F8000600461E087E10E94B60264E670E080E000
:100F900090E00E94670360E087E10E94B6020E9431
:100FA0008502DBCF823061F4109290008093910033
:100FB000109295001092940088BB80937100A3CF8B
:100FC000833069F41092A00082E08093A100109217
:100FD000A5001092A40089BB8093720094CF811168
:100FE00092CF1092200182E080932101109225017E
:100FF000109224018ABB8093730085CF8C339105B6
:1010000089F483E292E00E94600461E08AE10E9438
:10101000B60264EF71E080E090E00E94670360E058
:101020008AE1BBCF8234910539F488E292E00E94D4
:10103000600461E085E3B1CF8434910531F481E34C
:1010400092E00E94600460E0F5CF8D3D5FEF950770
:1010500009F0CFC080917F0390918003412C512CE7
:101060003201009719F00E946A092B015092500238
:1010700040924F020E946002052C000C660877081F
:1010800077FEA1C06DE281E592E00E941302222763
:101090003327A901241935094609570919A28E01D8
:1010A0000F5D1F4FCA01B901A50194010E940D0AED
:1010B000605DF80162938F012115310541055105ED
:1010C00089F70115110519F0C8010E9453040E9407
:1010D0006002A0914F02B0915002A032F2E0BF072F
:1010E000C4F5809186039101281B310987FD339552
:1010F000220F331F220F331F2901330F6608770891
:10110000809187039601281B310987FD3395220FB3
:10111000331F220F331F032E000C440B550B2419D1
:10112000350946095709A53BB10514F0A4EBB0E019
:10113000B7FF02C0B0E0A0E00E94050A24EB30E057
:1011400040E050E00E94DB09240D351D461D571D6F
:10115000D90120918503203378F580918603A10180
:10116000481B510987FD5395CA01880F991F880FA5
:10117000991FA817B90784F080918703F601E81B2F
:10118000F10987FDF395CF01880F991F880F991FEB
:10119000A817B9070CF4CD010297880F991F4FB714
:1011A000F89430E0F901EE0FFF1FE20FF31FE25158
:1011B000FD4F928381834FBF64E170E080E090E057
:1011C0000E946703ECCEA301920119A28E010F5D6C
:1011D0001F4FCA01B901A50194010E940D0A605D6B
:1011E000F80162938F01211531054105510589F7F9
:1011F00068CF8E3FFFEF9F0769F590E080E00E9487
:101200006E0420917F0330918003811119C0211554
:10121000310519F0C9010E94EE0A10928003109264
:101220007F03109284031092830310928203109222
:1012300081030E9460028BE392E00E946004AFCEC3
:1012400010928403109283036AE172E0C9010E9444
:10125000610CEFCF4AE0B7010E949109F7010190BC
:101260000020E9F73197EE19FF09E1F000918303BF
:10127000109184030E0F1F1FC8010E946E04882363
:1012800089F020917F0330918003809183039091B6
:101290008403B701820F931F0E94610C1093840393
:1012A00000938303409183035091840360917F03F3
:1012B0007091800381E592E00E947D010E946002AE
:1012C0006ECE80917F0390918003009711F00C9473
:1012D000EE0A08951F93FC0199278827BC01E89422
:1012E00011911032E9F3193010F01E30C8F31B329F
:1012F00051F01D3249F4689406C00E949C09610FA8
:10130000711D811D911D119110531A30B0F33EF4DF
:1013100090958095709561957F4F8F4F9F4F1F914E
:101320000895BB274A3031F4992322F4BDE2909509
:1013300081959F4F0C94B209592F482F372F262F94
:10134000660F771F881F991F660F771F881F991FC9
:10135000620F731F841F951F660F771F881F991FC9
:101360000895BB27FB015527AA27880F991FAA1F9D
:10137000A41710F0A41B83955051B9F7A05DAA33B0
:1013800008F0A95DA193009779F7B111B19311927B
:10139000CB010C94CB09DC01FC01672F7191772301
:1013A000E1F7329704C07C916D9370836291AE1720
:1013B000BF07C8F30895052E97FB1EF400940E9402
:1013C000F20957FD07D00E940D0A07FC03D04EF426
:1013D0000C94F20950954095309521953F4F4F4F11
:1013E0005F4F089590958095709561957F4F8F4FD1
:1013F0009F4F08950E942F0AA59F900DB49F900DB6
:10140000A49F800D911D11240895B7FF0C94FA0933
:101410000E94FA09821B930B0895A1E21A2EAA1BBF
:10142000BB1BFD010DC0AA1FBB1FEE1FFF1FA21794
:10143000B307E407F50720F0A21BB30BE40BF50B91
:10144000661F771F881F991F1A9469F7609570951A
:10145000809590959B01AC01BD01CF010895A29F9D
:10146000B001B39FC001A39F700D811D1124911D78
:10147000B29F700D811D1124911D0895991B79E073
:1014800004C0991F961708F0961B881F7A95C9F714
:1014900080950895EE0FFF1F881F8BBF0790F69170
:1014A000E02D19940F931F93CF93DF938230910512
:1014B00010F482E090E0E0918A03F0918B0330E039
:1014C00020E0B0E0A0E0309799F42115310509F44F
:1014D0004AC0281B390B24303105D8F58A819B81FD
:1014E0006115710589F1FB0193838283FE0111C0AF
:1014F000408151810281138148175907E0F0481754
:10150000590799F4109761F012960C93129713965D
:101510001C933296CF01DF91CF911F910F910895C7
:1015200000938A0310938B03F4CF2115310551F0FA
:101530004217530738F0A901DB019A01BD01DF0111
:10154000F801C1CFEF01F9CF90938B0380938A0309
:10155000CDCFFE01E20FF31F819391932250310909
:1015600039832883D7CF2091880330918903232B97
:1015700041F42091020230910302309389032093B9
:10158000880320910002309101022115310541F4B8
:101590002DB73EB74091040250910502241B350B34
:1015A000E0918803F0918903E217F307A0F42E1B62
:1015B0003F0B2817390778F0AC014E5F5F4F2417B7
:1015C000350748F04E0F5F1F5093890340938803FF
:1015D000819391939FCFF0E0E0E09CCFCF93DF9396
:1015E0000097E9F0FC01329713821282A0918A03DE
:1015F000B0918B03ED0130E020E01097A1F4208141
:101600003181820F931F209188033091890328171D
:10161000390709F061C0F0938903E0938803DF91F3
:10162000CF910895EA01CE17DF07E8F54A815B8183
:101630009E0141155105B1F7E901FB83EA83499108
:101640005991C40FD51FEC17FD0761F4808191817A
:101650000296840F951FE901998388838281938183
:101660009B838A83F0E0E0E012968D919C91139722
:101670000097B9F52D913C911197CD010296820FFB
:10168000931F20918803309189032817390739F671
:10169000309751F510928B0310928A03B09389030F
:1016A000A0938803BCCFD383C28340815181840F30
:1016B000951FC817D90761F44E5F5F4F88819981E4
:1016C000480F591F518340838A819B819383828372
:1016D0002115310509F0B0CFF0938B03E0938A0315
:1016E0009ECFFD01DC01C0CF13821282D7CF4F9273
:1016F0005F926F927F928F929F92AF92BF92CF92A2
:10170000DF92EF92FF920F931F93CF93DF938C01A1
:10171000009799F4CB01DF91CF911F910F91FF902A
:10172000EF90DF90CF90BF90AF909F908F907F9081
:101730006F905F904F900C94520AFC01E60FF71FD8
:101740009C0122503109E217F30708F4AEC0D90119
:10175000CD91DC911197C617D70720F1C530D1057F
:1017600078F0CE0104978617970750F0C61BD70B69
:101770002297C193D1936D937C93CF010E94EE0A7F
:10178000C801DF91CF911F910F91FF90EF90DF90F3
:10179000CF90BF90AF909F908F907F906F905F9011
:1017A0004F9008955B01AC1ABD0A4C018C0E9D1E32
:1017B000A0918A03B0918B03512C412CF12CE12C88
:1017C000109731F5809188039091890388159905C8
:1017D00009F05CC04616570608F058C08091000218
:1017E00090910102009741F48DB79EB74091040299
:1017F00050910502841B950BE817F90708F055C0B6
:10180000F0938903E0938803F90171836083B8CF73
:101810008D919C91119712966C90129713967C90D3
:101820001397A815B90559F56C0142E0C40ED11CF7
:10183000CA14DB0420F1AC014A195B09DA011296E3
:10184000159780F06282738251834083D9016D9332
:101850007C93E114F10471F0D7011396FC93EE939D
:1018600012978ECF22968C0F9D1FF9019183808352
:10187000F301EFCFF0938B03E0938A0381CF4816F7
:10188000590608F42C017D01D3019ACFCB010E94A7
:10189000520A7C01009749F0AE01B8010E94580C31
:1018A000C8010E94EE0A87016BCF10E000E068CF0C
:1018B000FB01DC0102C001900D9241505040D8F76D
:1018C0000895FB01DC0101900D920020E1F70895DD
:1018D00011E0CAE2D1E000E006C0802FFE010E94C4
:1018E0004A0A2196011DCB32D10780E00807A9F7EB
:0418F000F894FFCF9A
:1018F40000008C0380000000000013027D01AA0197
:101904006502DB01B901CD010D0A0042757A7A65E1
:101914007220004C4544200052656172204F4E20D5
:101924000052656172204F46462000636C65617207
:021934000000B1
:00000001FF
