:100000000C9438010C9469010C9469010C946901F9
:100010000C9469010C9469010C9469010C946901B8
:100020000C9469010C9469010C9469010C946901A8
:100030000C9469010C9469010C9469010C94690198
:100040000C9469010C9469010C9469010C94690188
:100050000C9469010C9469010C9469010C94B0052D
:100060000C9469010C9469010C9469010C94690168
:100070000C9469010C9469010C9469010C94690158
:100080000C9469010C9469010C9469010C94690148
:100090000C9469010C9469010C9469010C94690138
:1000A0000C9469010C9469010C9469010C94690128
:1000B0000C9469010C9469010C9469010C94690118
:1000C0000C9469010C9469010C9469010C94690108
:1000D0000C9469010C9469010C9469010C946901F8
:1000E0000C9469010C9476020C94EC020C9472024C
:1000F0000C9449020C9489020C9464020C948002C2
:100100000C947C020C94A5080C9484020C944F026D
:100110000C9457020C94FA040C94BB020C94FE014C
:100120000C945E020C9455030C945B020C946802D0
:100130000C9456030C948A020C948E020C946E025A
:100140000C9453020C942C030C94280900002100F9
:10015000240027002A002D00300033000101000098
:10016000040107010A0100002200250028002B00DD
:100170002E003100340002010000050108010B01CE
:10018000000020002300260029002C002F00320050
:100190000001000003010601090105050505070529
:1001A00008080808020202020A0A080804040404F3
:1001B000010101010101010103030303030303031F
:1001C000040707070C0C0C0C0C0C0C0C02020202AE
:1001D00006060606060606060B0B0B0B0B0B0B0B97
:1001E0000102102020080810204010204080020149
:1001F000020108040201010204081020408080402E
:10020000201008040201800402018040201008042C
:1002100002010804020101020408102040800102CA
:1002200004081020408000000A0B02090C0D0E0883
:1002300007030401000000000000000000000000AF
:1002400000000000000000000000000000000000AE
:10025000000012111000000000000000000000006B
:10026000000000000000000000000000A5082809B0
:1002700011241FBECFEFD1E2DEBFCDBF00E00CBF27
:1002800022E0A8E5B2E001C01D92A93FB207E1F764
:1002900012E0A0E0B2E0ECECF7E100E00BBF02C03E
:1002A00007900D92A835B107D9F711E0C7E3D1E067
:1002B00000E006C021970109802FFE010E94B609C7
:1002C000C633D10780E00807A9F70E94FA050C940D
:1002D000D40B0C94000096E0899FD0011124A25900
:1002E000BD4F90967C936E935F9791E091969C930F
:1002F0009197E091DB02F091DC029091DA02992370
:1003000039F0309751F0811108C080918A02199418
:10031000309719F05C968C91FACF0895CF92DF92C6
:10032000EF92FF920F931F9396E0899FF0011124A3
:10033000E259FD4F11A2278D30A12130310551F135
:1003400078F02230310509F451C02330310509F429
:1003500052C01F910F91FF90EF90DF90CF900895C2
:100360006623B9F361E070E00E946B012FB7F89447
:1003700080916A0290916B02A0916C02B0916D0223
:100380002FBF8093C6029093C702A093C802B09378
:10039000C902DFCF9FB7F894C0906A02D0906B0279
:1003A000E0906C02F0906D029FBF0091C602109128
:1003B000C7022091C8023091C902C01AD10AE20ACC
:1003C000F30A0091D8021091D90230E020E00C1518
:1003D0001D052E053F0550F462E070E01F910F915E
:1003E000FF90EF90DF90CF900C946B016111B1CF33
:1003F00063E070E0F3CF70E060E0F0CFAF92BF92C7
:10040000CF92DF92EF92FF920F931F93CF93DF93E0
:100410006C017B018B01040F151FEB015E01AE180F
:10042000BF08C017D10759F06991D601ED91FC9131
:100430000190F081E02DC6011995892B79F7C5014E
:10044000DF91CF911F910F91FF90EF90DF90CF90B0
:10045000BF90AF9008958150823108F05AC0E82FC4
:10046000F0E08827E95CFD4F8F4F0C94B6095702E6
:100470005B0249024F02530289025E026402680273
:100480006E02720276027C028002890284028A0273
:100490008E02809180008F778093800008958091F4
:1004A00080008F7DF9CF80918000877FF5CF84B564
:1004B0008F7784BD089584B58F7DFBCF8091B00088
:1004C0008F778093B00008958091B0008F7DF9CF31
:1004D000809190008F778093900008958091900094
:1004E0008F7DF9CF80919000877FF5CF8091A0001C
:1004F0008F778093A00008958091A0008F7DF9CF21
:100500008091A000877FF5CF809120018F77809325
:1005100020010895809120018F7DF9CF80912001E5
:10052000877FF5CFCF93DF93282F30E0F901EA5D85
:10053000FD4F8491F901E052FE4FD491F901E65646
:10054000FE4FC491CC23A1F081110E942B02EC2F0D
:10055000F0E0EE0FFF1FE058FE4FA591B491EC9133
:10056000ED2381E090E009F480E0DF91CF910895E0
:1005700080E090E0FACF862F0C9492021F93CF93E5
:10058000DF93282F30E0F901EA5DFD4F8491F901F6
:10059000E052FE4FD491F901E656FE4FC491CC23B0
:1005A000A9F0162F81110E942B02EC2FF0E0EE0F24
:1005B000FF1FEA59FE4FA591B4918FB7F894EC91C3
:1005C000111108C0D095DE23DC938FBFDF91CF914E
:1005D0001F910895DE2BF8CF862F642F0C94BE0256
:1005E000CF93DF9390E0FC01E052FE4F24918656BA
:1005F0009E4FFC0184918823C9F090E0880F991FD9
:10060000FC01E45BFE4FA591B491FC01EA59FE4F59
:10061000C591D49161110DC09FB7F8948C9120952C
:1006200082238C938881282328839FBFDF91CF91D9
:100630000895623051F49FB7F8943C91822F8095D1
:1006400083238C93E8812E2BEFCF8FB7F894EC9116
:100650002E2B2C938FBFEACF862F642F0C94F002A1
:100660003FB7F8948091590290915A02A0915B0291
:10067000B0915C0226B5A89B05C02F3F19F00196EA
:10068000A11DB11D3FBFBA2FA92F982F8827BC01EC
:10069000CD01620F711D811D911D42E0660F771F14
:1006A000881F991F4A95D1F70895089590E080E03A
:1006B00008958F929F92AF92BF920F931F93CF9303
:1006C000DF93CDB7DEB7A1970FB6F894DEBF0FBEAC
:1006D000CDBF19A2423008F44AE08E010F5D1F4FD2
:1006E000842E912CB12CA12CA50194010E94750996
:1006F000E62FB901CA01EA3044F5E05DD801EE9376
:100700008D01232B242B252B79F790E080E0109787
:1007100069F0FD0101900020E9F73197AF014A1B14
:100720005B0BBD018DED92E00E94FE01A1960FB61C
:10073000F894DEBF0FBECDBFDF91CF911F910F9117
:10074000BF90AF909F908F900895E95CD7CFCF93E3
:10075000DF93EC0160E08E810E94BE0261E08E8139
:100760000E94BE0260E08E810E94BE028BE891E092
:100770000197F1F7DF91CF910895CF92DF92EF9239
:10078000FF920F931F93CF93DF936C017C0187E05F
:10079000E80EF11CD0E0C0E0062F10E0B8010C2EEE
:1007A00002C0759567950A94E2F76170F70181912F
:1007B0007F010E94BE022196C430D10579F7C6019F
:1007C000DF91CF911F910F91FF90EF90DF90CF902D
:1007D0000C94A703CF92DF92EF92FF920F931F9397
:1007E000CF93DF93EC01F62E642F8C810E94BE0222
:1007F0008D818F3F19F060E00E94BE020F2D10E046
:100800008F8584FF25C06E0187E0C80ED11CF12CB6
:10081000E12CB8010E2C02C0759567950A94E2F799
:100820006170F60181916F010E94BE02FFEFEF1A25
:10083000FF0A88E0E816F10461F7CE01DF91CF915D
:100840001F910F91FF90EF90DF90CF900C94A70332
:10085000B80184E0759567958A95E1F7CE010E940D
:10086000BD036F2DCE01DF91CF911F910F91FF90AE
:10087000EF90DF90CF900C94BD0340E0682F8DED9A
:1008800092E00C94EA0381E00E943D048BE39FE137
:100890000197F1F70895CF93DF93823029F4909177
:1008A000EC0298609093EC028093F0021092F102B7
:1008B00080E48093F20280E18093F30280E58093EC
:1008C000F40261E08091E1020E94F0028091E20274
:1008D0008F3F19F061E00E94F00261E08091E30235
:1008E0000E94F002CDEDD2E09E012D5D324080915C
:1008F000EC0284FD0BC084E090E0219628173907B4
:1009000044F461E08E810E94F002EECF88E090E036
:10091000F4CF8BE39DE00197F1F760E08091E10275
:100920000E94BE0260E08091E3020E94BE028091BC
:10093000E2028F3F19F060E00E94BE028091EC025B
:1009400084FD34C063E08DED92E00E94BD03CBE4F2
:10095000D6E4CE010197F1F763E08DED92E00E94BD
:10096000BD032197F1F763E08DED92E00E94BD0396
:1009700083E592E00197F1F762E08DED92E00E944D
:10098000BD038091EC0280620E943D0484E080936C
:10099000ED028CE00E943D040E94430482E08093BB
:1009A000EE0286E0DF91CF910C943D0480620E94BC
:1009B0003D048BE496E40197F1F78091EC028062AC
:1009C0000E943D0483E592E00197F1F78091EC02EB
:1009D00080620E943D04D5CF9091F002891710F0FB
:1009E0008FEF890FE82FF0E0E352FD4F8489806894
:1009F0000C943D0441E00E94EA0381E090E00895F8
:100A0000FC0180819181009711F00C94390960E01C
:100A100070E0CB0108950F931F93CF93DF93EC0108
:100A200088819981009759F02A813B8126173707E1
:100A300030F081E0DF91CF911F910F9108958B01EC
:100A40006F5F7F4F0E94E30A009759F09983888374
:100A50001B830A832C813D81232B59F7FC011082D3
:100A6000E8CF80E0E7CFCF93DF93EC0119821882C3
:100A70001B821A821D821C8270E060E00E940B05BE
:100A80002881398181110FC02115310519F0C90163
:100A90000E945A0A198218821D821C821B821A82A5
:100AA000DF91CF9108951D821C8266E572E0C90135
:100AB000DF91CF910C94CD0BCF93DF93EC0170E0DD
:100AC00060E00E940B052881398181110FC021153A
:100AD000310519F0C9010E945A0A198218821D8233
:100AE0001C821B821A82DF91CF9108951D821C8285
:100AF00066E572E0C901DF91CF910C94CD0BEF92C6
:100B0000FF920F931F93CF93DF931F921F92CDB746
:100B1000DEB78C0169831A82FC01E480F580FFEF67
:100B2000EF1AFF0AB7010E940B05882381F0F80134
:100B30002081318184819581BE016F5F7F4F820F5B
:100B4000931F0E94CD0BF801F582E48281E00F90A3
:100B50000F90DF91CF911F910F91FF90EF9008952B
:100B60001F920F920FB60F9211242F933F938F93E2
:100B70009F93AF93BF9380916A0290916B02A09173
:100B80006C02B0916D023091580223E0230F2D3793
:100B900058F50196A11DB11D2093580280936A0259
:100BA00090936B02A0936C02B0936D0280915902F6
:100BB00090915A02A0915B02B0915C020196A11D36
:100BC000B11D8093590290935A02A0935B02B09397
:100BD0005C02BF91AF919F918F913F912F910F90A8
:100BE0000FBE0F901F90189526E8230F0296A11DA7
:100BF000B11DD2CF789484B5826084BD84B5816004
:100C000084BD85B5826085BD85B5816085BD8091D7
:100C10006E00816080936E0010928100809181004F
:100C20008260809381008091810081608093810047
:100C3000809180008160809380008091B100846009
:100C40008093B1008091B00081608093B00080916A
:100C500091008260809391008091910081608093E7
:100C60009100809190008160809390008091A1001C
:100C700082608093A1008091A10081608093A10097
:100C80008091A00081608093A0008091210182600A
:100C900080932101809121018160809321018091C5
:100CA000200181608093200180917A00846080938C
:100CB0007A0080917A00826080937A0080917A0035
:100CC000816080937A0080917A00806880937A00B6
:100CD0001092C10082E00E944B0480E00E94EC046C
:100CE0004FE050E067E372E08DED92E00E94FE017C
:100CF00081E00E94EC044FE050E067E472E08DED8B
:100D000092E00E94FE010E9430034B015C0178EEEC
:100D1000C72E73E0D72EE12CF12C0E943003681906
:100D200079098A099B09683E734081059105A8F3FA
:100D300021E0C21AD108E108F10838EE830E33E051
:100D4000931EA11CB11CC114D104E104F10429F7C4
:100D50000E944304812C912C5401839456E0652E0B
:100D600060E0262E60E0362E772473947092DA02CB
:100D70008FB7F89440916A0250916B0260916C02B7
:100D800070916D028FBF8091CA029091CB02A091A9
:100D9000CC02B091CD02481B590B6A0B7B0B8091A2
:100DA000D6029091D702B0E0A0E084179507A6077D
:100DB000B70708F015C1C0E08091D402C81760F4ED
:100DC000E091D002F091D102EC0FF11D62E0808140
:100DD0000E94F002CF5FF0CF512C8091D5025816BF
:100DE00008F05FC0052D10E0E091D202F091D3022F
:100DF000E00FF11F61E080810E94F002E091D202D9
:100E0000F091D302E00FF11F60E080810E94BE02EA
:100E1000D501C401052C04C0880F991FAA1FBB1F50
:100E20000A94D2F76C017C01E094F094412C8091FB
:100E3000D4024816F8F4C42DD0E0E091D002F0912D
:100E4000D102EC0FFD1F80810E9492022496CC0FEC
:100E5000DD1FC259DD4F892B41F4888199818C298E
:100E60009D29998388834394E2CF888199818E213B
:100E70009F21F7CFE091D202F091D302E00FF11F52
:100E800061E080810E94BE028091D2029091D302E3
:100E9000080F191F60E0F80180810E94F00253944E
:100EA0009CCF0EE612E0E8018F8D98A1892B31F4DA
:100EB0001C8E2FEF3FEF3E8F2D8F19A226968AEAC8
:100EC00092E08C179D0781F7F12C8091D402F816DF
:100ED00008F052C0E12C8F2D90E0880F991FFC0183
:100EE000EA58FD4F6F012091D502E21608F042C08A
:100EF000F601608171810E2C02C0769567950A9487
:100F0000E2F7F29E900111242E0D311DEEE6F2E083
:100F100080E0458D568D2417350709F414C18F5F85
:100F200036968A30B1F760FF23C0EEE6F2E090E03B
:100F300080E0448D411117C0E091CE02F091CF02C4
:100F4000E20FF31F4081689EF001699EF00D1124AD
:100F5000E259FD4F448F368F258F10A2178E61E026
:100F60000E948E0105C0019636968A30910509F7D8
:100F7000E394B9CFF394A9CF80E0F80191A1911146
:100F8000892F0A5F1F4FC017D107B9F79FB7F89491
:100F900040916A0250916B0260916C0270916D02F7
:100FA0009FBF4093CA025093CB026093CC027093D0
:100FB000CD028823A9F080918F02882389F0809147
:100FC0008D0290918E02019759F4C0918A02C1114D
:100FD0000AC02114310409F4C9CE0E940000C4CE15
:100FE0001092DA02F6CF41E06C2F8DED92E00E9474
:100FF000EA0380ED8C0F8A3068F480911A026C2F1E
:10100000882329F084E692E00E947F05E2CF8EE5F6
:1010100092E0FACF86ED8C0F823020F08C2F8D7FFE
:101020008D3229F4C0935D0210921A02D2CFCD33D3
:1010300009F080C080915D028B3209F042C084E6E5
:1010400092E00E9400056B018EE592E00E9400058F
:10105000C60ED71ED0921902C092180281E00E94DB
:10106000EC04C0901802D09019020D2C000CEE0870
:10107000FF084AE0C701B601F7FE0EC041E06DE28D
:101080008DED92E00E94EA0366277727CB016C1969
:101090007D098E099F094AE00E94590384E692E087
:1010A0000E945C058EE592E00E945C0526E532E038
:1010B00020935D0270921A02109219021092180287
:1010C00088CF8D3261F484E692E00E9400056B01C6
:1010D0008EE592E00E940005C61AD70ABBCF8A327D
:1010E000A9F484E692E00E9400056B018EE592E08F
:1010F0000E940005C69E9001C79E300DD69E300D01
:1011000011243093190220931802A8CF8F3209F0CE
:10111000A5CF84E692E00E9400056B017C018EE57C
:1011200092E00E9400059B01AC01C701B6010E943C
:101130009709E7CFCE3209F04CCF0E94430480E0FC
:101140000E94EC0446CF61700BCF1092E002109227
:10115000DF028FE292E09093DE028093DD028DE069
:101160008093E1028FEF8093E2028CE08093E302B0
:1011700088E08093E40289E08093E5028AE080932E
:10118000E6028BE08093E7021092E8021092E902F7
:101190001092EA021092EB021092EC0281E00E949F
:1011A0004B0410927002109274021092730210920B
:1011B000750285E292E090936F0280936E02EAE8F6
:1011C000F2E01082148213821582369682E0E63CA9
:1011D000F807B9F784E092E09093D1028093D002AF
:1011E00080E092E09093D3028093D20284E08093D7
:1011F000D4028093D50288E092E09093CF0280934E
:10120000CE028AE090E09093D7028093D60284EFDA
:1012100091E09093D9028093D8021092DC02109250
:10122000DB021092CA021092CB021092CC021092F2
:10123000CD021092DA0284E692E00E9433058EE538
:1012400092E00E94330586E592E080935D02089566
:1012500080915E0290915F02009711F00E945A0AFD
:101260008091640290916502009711F00C945A0AE3
:1012700008951F93FC0199278827BC01E8941191D8
:101280001032E9F3193010F01E30C8F31B3251F060
:101290001D3249F4689406C00E946009610F711DF7
:1012A000811D911D119110531A30B0F33EF49095A9
:1012B0008095709561957F4F8F4F9F4F1F91089537
:1012C000592F482F372F262F660F771F881F991FFA
:1012D000660F771F881F991F620F731F841F951F4A
:1012E000660F771F881F991F0895A1E21A2EAA1B67
:1012F000BB1BFD010DC0AA1FBB1FEE1FFF1FA217C6
:10130000B307E407F50720F0A21BB30BE40BF50BC2
:10131000661F771F881F991F1A9469F7609570954B
:10132000809590959B01AC01BD01CF010895052EDC
:1013300097FB1EF400940E94AE0957FD07D00E944F
:10134000750907FC03D04EF40C94AE0950954095F6
:10135000309521953F4F4F4F5F4F08959095809561
:10136000709561957F4F8F4F9F4F0895EE0FFF1F30
:10137000881F8BBF0790F691E02D19940F931F9350
:10138000CF93DF938230910510F482E090E0E091FA
:10139000F702F091F80230E020E0B0E0A0E03097F2
:1013A00099F42115310509F44AC0281B390B243062
:1013B0003105D8F58A819B816115710589F1FB01A1
:1013C00093838283FE0111C0408151810281138188
:1013D00048175907E0F04817590799F4109761F03A
:1013E00012960C93129713961C933296CF01DF91AD
:1013F000CF911F910F9108950093F7021093F80277
:10140000F4CF2115310551F04217530738F0A901E7
:10141000DB019A01BD01DF01F801C1CFEF01F9CF76
:101420009093F8028093F702CDCFFE01E20FF31FF5
:10143000819391932250310939832883D7CF20910A
:10144000F5023091F602232B41F420911D023091D8
:101450001E023093F6022093F50220911B02309178
:101460001C022115310541F42DB73EB740911F02F2
:1014700050912002241B350BE091F502F091F60209
:10148000E217F307A0F42E1B3F0B2817390778F05B
:10149000AC014E5F5F4F2417350748F04E0F5F1FBA
:1014A0005093F6024093F502819391939FCFF0E021
:1014B000E0E09CCFCF93DF930097E9F0FC013297F7
:1014C00013821282A091F702B091F802ED0130E090
:1014D00020E01097A1F420813181820F931F209189
:1014E000F5023091F6022817390709F061C0F09330
:1014F000F602E093F502DF91CF910895EA01CE174D
:10150000DF07E8F54A815B819E0141155105B1F77E
:10151000E901FB83EA8349915991C40FD51FEC1768
:10152000FD0761F4808191810296840F951FE90186
:1015300099838883828193819B838A83F0E0E0E0B2
:1015400012968D919C9113970097B9F52D913C912E
:101550001197CD010296820F931F2091F5023091D1
:10156000F6022817390739F6309751F51092F8022C
:101570001092F702B093F602A093F502BCCFD3838A
:10158000C28340815181840F951FC817D90761F428
:101590004E5F5F4F88819981480F591F5183408367
:1015A0008A819B81938382832115310509F0B0CF15
:1015B000F093F802E093F7029ECFFD01DC01C0CF6B
:1015C00013821282D7CF4F925F926F927F928F9247
:1015D0009F92AF92BF92CF92DF92EF92FF920F93C2
:1015E0001F93CF93DF938C01009799F4CB01DF9188
:1015F000CF911F910F91FF90EF90DF90CF90BF9010
:10160000AF909F908F907F906F905F904F900C94D1
:10161000BE09FC01E60FF71F9C0122503109E217B9
:10162000F30708F4AEC0D901CD91DC911197C6172C
:10163000D70720F1C530D10578F0CE010497861781
:10164000970750F0C61BD70B2297C193D1936D9388
:101650007C93CF010E945A0AC801DF91CF911F915C
:101660000F91FF90EF90DF90CF90BF90AF909F9041
:101670008F907F906F905F904F9008955B01AC1AB0
:10168000BD0A4C018C0E9D1EA091F702B091F8028C
:10169000512C412CF12CE12C109731F58091F50261
:1016A0009091F6028815990509F05CC04616570618
:1016B00008F058C080911B0290911C02009741F4E1
:1016C0008DB79EB740911F0250912002841B950B4D
:1016D000E817F90708F055C0F093F602E093F50219
:1016E000F90171836083B8CF8D919C911197129607
:1016F0006C90129713967C901397A815B90559F51D
:101700006C0142E0C40ED11CCA14DB0420F1AC0110
:101710004A195B09DA011296159780F0628273828A
:1017200051834083D9016D937C93E114F10471F0EE
:10173000D7011396FC93EE9312978ECF22968C0FBF
:101740009D1FF90191838083F301EFCFF093F8029D
:10175000E093F70281CF4816590608F42C017D0169
:10176000D3019ACFCB010E94BE097C01009749F0BA
:10177000AE01B8010E94C40BC8010E945A0A870139
:101780006BCF10E000E068CFFB01DC0102C00190EC
:101790000D9241505040D8F70895FB01DC010190B3
:1017A0000D920020E1F7089511E0C7E3D1E000E0D9
:1017B00006C0802FFE010E94B6092196011DC83384
:0C17C000D10780E00807A9F7F894FFCFDC
:1017CC0017191B1D1F2123253738392F3435362A7D
:1017DC003132332D2E303D2B5602010000F90280A0
:1017EC0000000000002C03EC02BB0200000000FA19
:1017FC0004FE0156035503204D6168646920486559
:10180C006A7261746920002020202039373233310C
:08181C003030202020200000E4
:00000001FF
