:100000000C943E010C946F010C946F010C946F01E1
:100010000C946F010C946F010C946F010C946F01A0
:100020000C946F010C946F010C946F010C946F0190
:100030000C946F010C946F010C946F010C946F0180
:100040000C946F010C94CC060C946F010C946F010E
:100050000C946F010C946F010C946F010C94F805D3
:100060000C946F010C94C2050C9498050C946F01CC
:100070000C946F010C946F010C946F010C946F0140
:100080000C949E060C946F010C946F010C946F01FC
:100090000C946F010C946F010C946F010C946F0120
:1000A0000C946F010C946F010C9470060C946F010A
:1000B0000C946F010C946F010C946F010C94420628
:1000C0000C946F010C946F010C946F010C946F01F0
:1000D0000C946F010C946F010C946F010C946F01E0
:1000E0000C946F010C9464030C9431020C94E7029D
:1000F0000C94F9030C9454020C9475030C94390479
:100100000C949A020C9497030C94FA060C945603E0
:100110000C94730B0C94C8030C949B030C94620214
:100120000C9471030C9440020C9404020C949603FA
:100130000C9468030C9489030C946B030C94600377
:100140000C947B030C947F030C9491030C948D030B
:100150000C9483030C945C0300002100240027000E
:100160002A002D00300033000101000004010701C6
:100170000A0100002200250028002B002E0031007B
:10018000340002010000050108010B0100002000FD
:100190002300260029002C002F003200000100005F
:1001A00003010601090105050505070508080808FA
:1001B000020202020A0A08080404040401010101FF
:1001C00001010101030303030303030304070707FA
:1001D0000C0C0C0C0C0C0C0C02020202060606069F
:1001E000060606060B0B0B0B0B0B0B0B010210206C
:1001F000200808102040102040800201020108045D
:1002000002010102040810204080804020100804F0
:100210000201800402018040201008040201080449
:10022000020101020408102040800102040810208D
:10023000408000000A0B02090C0D0E0807030401A0
:1002400000000000000000000000000000000000AE
:10025000000000000000000000000000000012117B
:10026000100000000000000000000000000000007E
:100270000000000000000000FA06730B11241FBEEE
:10028000CFEFD1E2DEBFCDBF00E00CBF12E0A0E0B7
:10029000B2E0EEEAFCE100E00BBF02C007900D9275
:1002A000AC33B107D9F723E0ACE3B2E001C01D9253
:1002B000A53FB207E1F711E0CDE3D1E000E006C0D1
:1002C00021970109802FFE010E94270CCC33D10712
:1002D00080E00807A9F70E94D2070C94450E0C9401
:1002E000000096E0899FD0011124AE57BC4F909634
:1002F0007C936E935F9791E091969C939197E09198
:10030000EF03F091F0039091EE03992339F03097C9
:1003100051F0811108C080919E031994309719F013
:100320005C968C91FACF0895CF92DF92EF92FF9274
:100330000F931F9396E0899FF0011124EE57FC4F15
:1003400011A2278D30A12130310551F178F02230F2
:10035000310509F451C02330310509F452C01F9111
:100360000F91FF90EF90DF90CF9008956623B9F33F
:1003700061E070E00E9471012FB7F894809147020C
:1003800090914802A0914902B0914A022FBF8093F8
:10039000DA039093DB03A093DC03B093DD03DFCF9C
:1003A0009FB7F894C0904702D0904802E09049026D
:1003B000F0904A029FBF0091DA031091DB03209175
:1003C000DC033091DD03C01AD10AE20AF30A00917E
:1003D000EC031091ED0330E020E00C151D052E0517
:1003E0003F0550F462E070E01F910F91FF90EF9095
:1003F000DF90CF900C9471016111B1CF63E070E098
:10040000F3CF70E060E0F0CFAF92BF92CF92DF9277
:10041000EF92FF920F931F93CF93DF936C017B01B9
:100420008B01040F151FEB015E01AE18BF08C0174A
:10043000D10759F06991D601ED91FC910190F081BD
:10044000E02DC6011995892B79F7C501DF91CF9170
:100450001F910F91FF90EF90DF90CF90BF90AF90E2
:100460000895FC01538D448D252F30E0842F90E0BA
:10047000821B930B541710F0CF960895019708959F
:10048000FC01918D828D981761F0A28DAE0FBF2F68
:10049000B11D5D968C91928D9F5F9F73928F90E0BE
:1004A00008958FEF9FEF0895FC01918D828D98172D
:1004B00031F0828DE80FF11D858D90E008958FEF6A
:1004C0009FEF0895FC01918D228D892F90E0805C33
:1004D0009F4F821B91098F73992708958BE492E0B7
:1004E0000E94620221E0892B09F420E0822F089506
:1004F000FC01A48DA80FB92FB11DA35ABF4F2C9199
:10050000848D90E001968F739927848FA689B7898F
:100510002C93A089B1898C91837080648C93938D86
:10052000848D981306C00288F389E02D80818F7D29
:1005300080830895EF92FF920F931F93CF93DF93E1
:10054000EC0181E0888F9B8D8C8D98131AC0E8890F
:10055000F989808185FF15C09FB7F894EE89FF89DE
:100560006083E889F98980818370806480839FBF7C
:1005700081E090E0DF91CF911F910F91FF90EF907C
:100580000895F62E0B8D10E00F5F1F4F0F7311278C
:10059000E02E8C8D8E110CC00FB607FCFACFE889C7
:1005A000F989808185FFF5CFCE010E947802F1CFD5
:1005B000EB8DEC0FFD2FF11DE35AFF4FF0829FB73B
:1005C000F8940B8FEA89FB8980818062CFCFCF932B
:1005D000DF93EC01888D8823B9F0AA89BB89E8896B
:1005E000F9898C9185FD03C0808186FD0DC00FB611
:1005F00007FCF7CF8C9185FFF2CF808185FFEDCF8F
:10060000CE010E947802E9CFDF91CF91089580E07A
:1006100090E0892B29F00E946E0281110E94000057
:1006200080E090E0892B49F080E090E0892B29F070
:100630000E94000081110E94000080E090E0892B60
:1006400049F080E090E0892B29F00E9400008111A0
:100650000E94000080E090E0892B49F080E090E06B
:10066000892B29F00E94000081110C94000008954C
:100670008150823108F05AC0E82FF0E08827EC5B07
:10068000FC4F8F4F0C94270C6403680356035C03E4
:10069000600396036B03710375037B037F0383037E
:1006A00089038D039603910397039B038091800038
:1006B0008F77809380000895809180008F7DF9CF9F
:1006C00080918000877FF5CF84B58F7784BD0895B2
:1006D00084B58F7DFBCF8091B0008F778093B00081
:1006E00008958091B0008F7DF9CF809190008F7731
:1006F000809390000895809190008F7DF9CF809134
:100700009000877FF5CF8091A0008F778093A00025
:1007100008958091A0008F7DF9CF8091A000877F00
:10072000F5CF809120018F778093200108958091EB
:1007300020018F7DF9CF80912001877FF5CFCF9366
:10074000DF93282F30E0F901EE5CFD4F8491F90131
:10075000E451FE4FD491F901EA55FE4FC491CC23E8
:10076000A1F081110E943803EC2FF0E0EE0FFF1F83
:10077000E457FE4FA591B491EC91ED2381E090E018
:1007800009F480E0DF91CF91089580E090E0FACF06
:10079000862F0C949F031F93CF93DF93282F30E075
:1007A000F901EE5CFD4F8491F901E451FE4FD491C3
:1007B000F901EA55FE4FC491CC23A9F0162F8111FF
:1007C0000E943803EC2FF0E0EE0FFF1FEE58FE4FB3
:1007D000A591B4918FB7F894EC91111108C0D09500
:1007E000DE23DC938FBFDF91CF911F910895DE2B25
:1007F000F8CF862F642F0C94CB03CF93DF9390E038
:10080000FC01E451FE4F24918A559E4FFC018491D6
:100810008823C9F090E0880F991FFC01E85AFE4F29
:10082000A591B491FC01EE58FE4FC591D491611190
:100830000DC09FB7F8948C91209582238C9388816A
:10084000282328839FBFDF91CF910895623051F410
:100850009FB7F8943C91822F809583238C93E881F5
:100860002E2BEFCF8FB7F894EC912E2B2C938FBFBC
:10087000EACF862F642F0C94FD033FB7F894809144
:10088000410290914202A0914302B091440226B5E8
:10089000A89B05C02F3F19F00196A11DB11D3FBFB8
:1008A000BA2FA92F982F8827BC01CD01620F711D87
:1008B000811D911D42E0660F771F881F991F4A9581
:1008C000D1F70895AF92BF92CF92DF92EF92FF924D
:1008D0000F931F93CF93DF936B017A01EC01C45CFC
:1008E000DD4F28813CE0389F8001399F100D112495
:1008F000A0907803B12C27FF1FC0FB01118210824A
:1009000088818F5F888388819801280F311D87FD3A
:100910003A95F6012A153B051CF488818C30C4F108
:1009200080819181049680349C4908F473C0F6015B
:1009300080819181049670C088819801280F311DB3
:1009400087FD3A952A153B05DCF68881A801480FFA
:10095000511D87FD5A95FA01EE0FFF1FE40FF51F99
:10096000E851FD4F808186FFCBCF8881F801E80FE9
:10097000F11D87FDFA95CF01EE0FFF1FE80FF91F5C
:10098000E851FD4F808160E08F730E94CB03B8CFA8
:10099000808191812881A801420F511D27FD5A9520
:1009A0009A01FA01EE0FFF1FE20FF31FE851FD4F0E
:1009B00021813281820F931FF70191838083888187
:1009C0009801280F311D87FD3A95F901EE0FFF1FA1
:1009D000E20FF31FE851FD4F808186FF22C088811E
:1009E000080F111D87FD1A95F801EE0FFF1FE00F8C
:1009F000F11FE851FD4F808161E08F73DF91CF914E
:100A00001F910F91FF90EF90DF90CF90BF90AF902C
:100A10000C94CB0380E49CE9F701918380838FEFF2
:100A20008883DF91CF911F910F91FF90EF90DF901E
:100A3000CF90BF90AF9008958F929F92AF92BF9248
:100A40000F931F93CF93DF93CDB7DEB7A1970FB668
:100A5000F894DEBF0FBECDBF19A2423008F44AE0C1
:100A60008E010F5D1F4F842E912CB12CA12CA5015E
:100A700094010E94EA0BE62FB901CA01EA3044F55D
:100A8000E05DD801EE938D01232B242B252B79F7E4
:100A900090E080E0109769F0FD0101900020E9F7F7
:100AA0003197AF014A1B5B0BBD018BE492E00E94C2
:100AB0000402A1960FB6F894DEBF0FBECDBFDF9142
:100AC000CF911F910F91BF90AF909F908F900895FD
:100AD000E95CD7CFCF93DF93EC01809179039091BC
:100AE0007A03009759F020917B0330917C032C17F7
:100AF0003D0720F081E0DF91CF910895BE016F5F47
:100B00007F4F0E94540D009789F090937A03809351
:100B10007903D0937C03C0937B0320917D033091B4
:100B20007E03232B39F7FC011082E4CF80E0E3CF72
:100B30001F920F920FB60F9211240BB60F922F93A4
:100B40003F934F935F936F937F938F939F93AF9355
:100B5000BF93EF93FF938BE492E00E947802FF91A2
:100B6000EF91BF91AF919F918F917F916F915F9125
:100B70004F913F912F910F900BBE0F900FBE0F9092
:100B80001F9018951F920F920FB60F9211240BB65B
:100B90000F922F938F939F93EF93FF93E0915B02BC
:100BA000F0915C028081E0916102F091620282FD2D
:100BB0001DC09081809164028F5F8F7320916502C8
:100BC000821741F0E0916402F0E0E55BFD4F958F04
:100BD00080936402FF91EF919F918F912F910F90DD
:100BE0000BBE0F900FBE0F901F9018958081F2CF13
:100BF0001F920F920FB60F9211242F933F938F9352
:100C00009F93AF93BF938091470290914802A09128
:100C10004902B0914A023091400223E0230F2D3760
:100C200058F50196A11DB11D209340028093470203
:100C300090934802A0934902B0934A0280914102E6
:100C400090914202A0914302B09144020196A11DED
:100C5000B11D8093410290934202A0934302B0934E
:100C60004402BF91AF919F918F913F912F910F902F
:100C70000FBE0F901F90189526E8230F0296A11D16
:100C8000B11DD2CF1F920F920FB60F9211240BB647
:100C90000F922F933F934F935F936F937F938F9315
:100CA0009F93AF93BF93EF93FF9348E251E064E2C9
:100CB00071E090E080E00E946204FF91EF91BF91AB
:100CC000AF919F918F917F916F915F914F913F91E4
:100CD0002F910F900BBE0F900FBE0F901F90189585
:100CE0001F920F920FB60F9211240BB60F922F93F3
:100CF0003F934F935F936F937F938F939F93AF93A4
:100D0000BF93EF93FF9348EA50E064EA70E083E01A
:100D100090E00E946204FF91EF91BF91AF919F918B
:100D20008F917F916F915F914F913F912F910F9094
:100D30000BBE0F900FBE0F901F9018951F920F9231
:100D40000FB60F9211240BB60F922F933F934F9330
:100D50005F936F937F938F939F93AF93BF93EF9323
:100D6000FF9348E950E064E970E082E090E00E947F
:100D70006204FF91EF91BF91AF919F918F917F910D
:100D80006F915F914F913F912F910F900BBE0F90FC
:100D90000FBE0F901F9018951F920F920FB60F92D3
:100DA00011240BB60F922F933F934F935F936F9342
:100DB0007F938F939F93AF93BF93EF93FF9348E8F5
:100DC00050E064E870E081E090E00E946204FF91EE
:100DD000EF91BF91AF919F918F917F916F915F91B3
:100DE0004F913F912F910F900BBE0F900FBE0F9020
:100DF0001F90189510924E0210924D0288EE93E0CB
:100E0000A0E0B0E080934F0290935002A093510273
:100E1000B093520282E292E090934C0280934B0294
:100E200085EC90E0909358028093570284EC90E018
:100E300090935A028093590280EC90E090935C0268
:100E400080935B0281EC90E090935E0280935D0260
:100E500082EC90E09093600280935F0286EC90E0D9
:100E60009093620280936102109264021092650274
:100E70001092660210926702109284031092880307
:100E8000109287031092890384E392E09093830386
:100E900080938203EEE9F3E01082148213821582BC
:100EA000369683E0EA3DF807B9F784E092E0909344
:100EB000E5038093E40380E092E09093E70380935E
:100EC000E60384E08093E8038093E90388E092E0FE
:100ED0009093E3038093E2038AE090E09093EB0326
:100EE0008093EA0384EF91E09093ED038093EC0309
:100EF0001092F0031092EF031092DE031092DF03C2
:100F00001092E0031092E1031092EE0380917803B7
:100F10008033D8F591E0980F9093780380937F0306
:100F200090E0FC01EE0FFF1FE80FF91FE851FD4FA5
:100F300088EB9BE09283818310927A03109279036D
:100F400010927C0310927B0310927E0310927D031B
:100F500090E080E00E946A052091790330917A0345
:100F6000811117C02115310519F0C9010E94CB0C60
:100F700010927A031092790310927E0310927D03EF
:100F800010927C0310927B0308958FEF80937F0370
:100F9000D3CF10927E0310927D036AE372E0C90101
:100FA0000C943E0ECF93DF931F921F92CDB7DEB706
:100FB000789484B5826084BD84B5816084BD85B534
:100FC000826085BD85B5816085BD80916E00816040
:100FD00080936E00109281008091810082608093E6
:100FE00081008091810081608093810080918000E8
:100FF0008160809380008091B10084608093B10013
:101000008091B00081608093B000809191008260F7
:1010100080939100809191008160809391008091F4
:1010200090008160809390008091A1008260809305
:10103000A1008091A10081608093A1008091A00017
:1010400081608093A00080912101826080932101C2
:101050008091210181608093210180912001816034
:101060008093200180917A00846080937A0080913F
:101070007A00826080937A0080917A008160809308
:101080007A0080917A00806880937A001092C10083
:10109000E0915B02F0915C0282E08083E091570274
:1010A000F09158021082E0915902F0915A028FECAF
:1010B000808310926302E0915F02F091600286E00B
:1010C0008083E0915D02F0915E0280818061808387
:1010D000E0915D02F0915E02808188608083E09102
:1010E0005D02F0915E02808180688083E0915D0204
:1010F000F0915E0280818F7D808380917F038033B9
:1011000008F052C061E08DE00E94FD0380917F03F2
:10111000282F30E0F901EE0FFF1FE20FF31FE85117
:10112000FD4F9081907C9D6090831092800310927F
:1011300081032CE0622F0E941B0C829FB0011124BE
:1011400030E020E0AB01420F531FFA01EE0FFF1F0A
:10115000E40FF51FE851FD4F908196FD17C02F5FFA
:101160003F4F2C30310571F7813009F05BC0109290
:10117000800082E0809381001092850010928400AC
:10118000B19A80916F00826080936F00E0917F033D
:101190008E2F90E0FC01EE0FFF1FE80FF91FE851C2
:1011A000FD4F80818064808336E0232E44EB442E03
:1011B000512C612C712C81E08093EE038FB7F89451
:1011C00040914702509148026091490270914A0251
:1011D0008FBF8091DE039091DF03A091E003B09177
:1011E000E103481B590B6A0B7B0B8091EA0390913A
:1011F000EB03B0E0A0E084179507A607B70708F057
:1012000046C110E08091E8031817C0F5E091E403AF
:10121000F091E503E10FF11D62E080810E94FD0382
:101220001F5FF0CF823061F41092900080939100A4
:10123000109295001092940088BB80937100A6CF05
:10124000833069F41092A00082E08093A100109294
:10125000A5001092A40089BB8093720097CF8111E2
:1012600095CF1092200182E08093210110922501F8
:10127000109224018ABB8093730088CFF12C809157
:10128000E903F81608F063C0CF2CD12CE091E603F7
:10129000F091E703EC0DFD1D61E080810E94FD03EC
:1012A000E091E603F091E703EC0DFD1D60E0808125
:1012B0000E94CB0381E090E0A0E0B0E00F2C04C0DE
:1012C000880F991FAA1FBB1F0A94D2F74C015C011B
:1012D000A094B094312C8091E803381608F5032DC2
:1012E00010E0E091E403F091E503E00FF11F80814D
:1012F0000E949F030C5F1F4F000F111FF801EE5754
:10130000FC4F892B41F4808191818829992991830F
:1013100080833394E0CF808191818A219B21F7CF14
:10132000E091E603F091E703EC0DFD1D61E08081A3
:101330000E94CB038091E6039091E703C80ED91E6B
:1013400060E0F60180810E94FD03F39498CF92E85B
:10135000C92E93E0D92E8601F801878D90A1892BA3
:1013600031F4148E4FEF5FEF568F458F11A20A5F55
:101370001F4F8EEB93E08017910771F7F12C80914E
:10138000E803F81608F052C0B12C8F2C912C880C71
:10139000991CF401E657FC4F4F012091E903B21666
:1013A00008F042C0F401608171810B2C02C0769577
:1013B00067950A94E2F7F29E900111242B0D311DDE
:1013C000E2E8F3E080E0458D568D2417350709F4F7
:1013D00088C18F5F36968A30B1F760FF23C0E2E89C
:1013E000F3E090E080E0448D411117C0E091E2030A
:1013F000F091E303E20FF31F4081289EF001299E44
:10140000F00D1124EE57FC4F448F368F258F10A21C
:10141000178E61E00E94940105C0019636968A30CD
:10142000910509F7B394B9CFF394A9CF80E0F60101
:1014300091A19111892FF6E0CF0ED11CC016D106D3
:10144000B1F79FB7F89440914702509148026091DC
:10145000490270914A029FBF4093DE035093DF031D
:101460006093E0037093E103882389F08091A303E4
:10147000882369F08091A1039091A203019739F428
:1014800080919E03811106C00E94070394CE1092A2
:10149000EE03FACF8D3309F0C9C0809179039091A2
:1014A0007A03009709F4BEC00E947C0B7093460239
:1014B000609345024B01770FAA08BB084AE0C501BB
:1014C000B401B7FE0DC06DE28BE492E00E949A0277
:1014D00066277727CB01681979098A099B094AE0B1
:1014E0000E941C0560E28BE492E00E949A02A091A7
:1014F0004502B0914602A03222E0B207CCF58091BD
:101500008003E8E88E2E912C881A910887FD939429
:10151000880C991C880C991C092C000CAA08BB0883
:101520008091810328E532E0281B310987FD33953E
:10153000220F331F220F331F032E000C440B550BB9
:10154000281939094A095B09A53BB10514F0A4EB38
:10155000B0E0B7FF02C0B0E0A0E00E94E20BA30140
:1015600092010E94B80B820E931EA41EB51ED401D8
:1015700020917F03203388F58091800348E850E074
:10158000481B510987FD5395CA01880F991F880F81
:10159000991FA817B9078CF080918103E8E5F2E064
:1015A000E81BF10987FDF395CF01880F991F880F7C
:1015B000991FA817B9070CF4CD010297880F991F3E
:1015C0004FB7F89430E0F901EE0FFF1FE20FF31F61
:1015D000E851FD4F928381834FBF0E943D046B0110
:1015E0007C0184E1882E912CA12CB12C0E943D0419
:1015F0006C197D098E099F09683E7340810591052C
:10160000A8F3F1E08F1A9108A108B10828EEC20EE4
:1016100023E0D21EE11CF11C81149104A104B10449
:1016200029F732CF60E070E0CB0140CF8E3239F540
:1016300090E080E00E946A052091790330917A035E
:10164000811113C02115310519F0C9010E94CB0C7D
:1016500010927A031092790310927E0310927D0308
:1016600010927C0310927B030FCF10927E03109296
:101670007D036AE372E0C9010E943E0E05CF8983B3
:101680001A8200917D0310917E030F5F1F4FC801E6
:101690000E946A05882399F02091790330917A039A
:1016A00080917D0390917E03BE016F5F7F4F820F1B
:1016B000931F0E943E0E10937E0300937D03409182
:1016C0007D0350917E036091790370917A038BE4DE
:1016D00092E00E94040260E28BE492E00E949A028F
:1016E000D3CE617097CE8091790390917A03009761
:1016F00011F00C94CB0C08951F93FC0199278827B7
:10170000BC01E89411911032E9F3193010F01E3049
:10171000C8F31B3251F01D3249F4689406C00E9490
:10172000A30B610F711D811D911D119110531A3072
:10173000B0F33EF490958095709561957F4F8F4FF3
:101740009F4F1F910895592F482F372F262F660F2F
:10175000771F881F991F660F771F881F991F620FB9
:10176000731F841F951F660F771F881F991F089589
:10177000052E97FB1EF400940E94CF0B57FD07D057
:101780000E94EA0B07FC03D04EF40C94CF0B50954B
:101790004095309521953F4F4F4F5F4F089590955D
:1017A0008095709561957F4F8F4F9F4F08950E9450
:1017B0000C0CA59F900DB49F900DA49F800D911DC2
:1017C00011240895B7FF0C94D70B0E94D70B821BEE
:1017D000930B0895A1E21A2EAA1BBB1BFD010DC09D
:1017E000AA1FBB1FEE1FFF1FA217B307E407F507D1
:1017F00020F0A21BB30BE40BF50B661F771F881FAD
:10180000991F1A9469F760957095809590959B0142
:10181000AC01BD01CF010895A29FB001B39FC001EB
:10182000A39F700D811D1124911DB29F700D811D0C
:101830001124911D0895991B79E004C0991F9617F2
:1018400008F0961B881F7A95C9F780950895EE0FCA
:10185000FF1F881F8BBF0790F691E02D19940F93FF
:101860001F93CF93DF938230910510F482E090E0D4
:10187000E091F303F091F40330E020E0B0E0A0E069
:10188000309799F42115310509F44AC0281B390B0A
:1018900024303105D8F58A819B816115710589F164
:1018A000FB0193838283FE0111C04081518102813B
:1018B000138148175907E0F04817590799F4109712
:1018C00061F012960C93129713961C933296CF01E7
:1018D000DF91CF911F910F9108950093F30310931F
:1018E000F403F4CF2115310551F04217530738F0B6
:1018F000A901DB019A01BD01DF01F801C1CFEF01B0
:10190000F9CF9093F4038093F303CDCFFE01E20F60
:10191000F31F819391932250310939832883D7CFC4
:101920002091F1033091F203232B41F420911A020C
:1019300030911B023093F2032093F103209118029F
:10194000309119022115310541F42DB73EB7409170
:101950001C0250911D02241B350BE091F103F09104
:10196000F203E217F307A0F42E1B3F0B28173907E9
:1019700078F0AC014E5F5F4F2417350748F04E0FEB
:101980005F1F5093F2034093F103819391939FCF94
:10199000F0E0E0E09CCFCF93DF930097E9F0FC010B
:1019A000329713821282A091F303B091F403ED01F8
:1019B00030E020E01097A1F420813181820F931F45
:1019C0002091F1033091F2032817390709F061C023
:1019D000F093F203E093F103DF91CF910895EA01D0
:1019E000CE17DF07E8F54A815B819E01411551055D
:1019F000B1F7E901FB83EA8349915991C40FD51FDF
:101A0000EC17FD0761F4808191810296840F951F88
:101A1000E90199838883828193819B838A83F0E0A3
:101A2000E0E012968D919C9113970097B9F52D9156
:101A30003C911197CD010296820F931F2091F103E3
:101A40003091F2032817390739F6309751F5109283
:101A5000F4031092F303B093F203A093F103BCCF0D
:101A6000D383C28340815181840F951FC817D90742
:101A700061F44E5F5F4F88819981480F591F5183F0
:101A800040838A819B81938382832115310509F0EC
:101A9000B0CFF093F403E093F3039ECFFD01DC019C
:101AA000C0CF13821282D7CF4F925F926F927F92F4
:101AB0008F929F92AF92BF92CF92DF92EF92FF925E
:101AC0000F931F93CF93DF938C01009799F4CB0171
:101AD000DF91CF911F910F91FF90EF90DF90CF900A
:101AE000BF90AF909F908F907F906F905F904F903E
:101AF0000C942F0CFC01E60FF71F9C0122503109BA
:101B0000E217F30708F4AEC0D901CD91DC9111972B
:101B1000C617D70720F1C530D10578F0CE0104975C
:101B20008617970750F0C61BD70B2297C193D19306
:101B30006D937C93CF010E94CB0CC801DF91CF91B4
:101B40001F910F91FF90EF90DF90CF90BF90AF90DB
:101B50009F908F907F906F905F904F9008955B0162
:101B6000AC1ABD0A4C018C0E9D1EA091F303B091DE
:101B7000F403512C412CF12CE12C109731F580917C
:101B8000F1039091F2038815990509F05CC046169F
:101B9000570608F058C080911802909119020097DA
:101BA00041F48DB79EB740911C0250911D02841BD9
:101BB000950BE817F90708F055C0F093F203E0938E
:101BC000F103F90171836083B8CF8D919C911197D6
:101BD00012966C90129713967C901397A815B905DE
:101BE00059F56C0142E0C40ED11CCA14DB0420F18B
:101BF000AC014A195B09DA011296159780F06282EE
:101C0000738251834083D9016D937C93E114F10475
:101C100071F0D7011396FC93EE9312978ECF229614
:101C20008C0F9D1FF90191838083F301EFCFF09317
:101C3000F403E093F30381CF4816590608F42C010E
:101C40007D01D3019ACFCB010E942F0C7C0100971C
:101C500049F0AE01B8010E94350EC8010E94CB0CBC
:101C600087016BCF10E000E068CFFB01DC0102C010
:101C700001900D9241505040D8F70895FB01DC01CE
:101C800001900D920020E1F7089511E0CDE3D1E03D
:101C900000E006C0802FFE010E94270C2196011D46
:0E1CA000CE33D10780E00807A9F7F894FFCFF4
:101CAE00292A2B2C252627283738392F3435362A42
:101CBE003132332D2E303D2B0000F5038000000015
:101CCE0000009A0204023102E7026202400254024C
:0C1CDE00000000003904F903C8030000F6
:00000001FF
