:100000000C944E010C947F010C947F010C947F01A1
:100010000C947F010C947F010C947F010C947F0160
:100020000C947F010C94E0080C94E0080C94E00818
:100030000C947F010C947F010C947F010C947F0140
:100040000C947F010C947F010C947F010C947F0130
:100050000C947F010C947F010C947F010C94960802
:100060000C947F010C9460080C9436080C947F016A
:100070000C947F010C947F010C947F010C947F0100
:100080000C947F010C947F010C947F010C947F01F0
:100090000C947F010C947F010C947F010C947F01E0
:1000A0000C947F010C947F010C947F010C947F01D0
:1000B0000C947F010C947F010C947F010C947F01C0
:1000C0000C947F010C947F010C947F010C947F01B0
:1000D0000C947F010C947F010C947F010C947F01A0
:1000E0000C947F010C94D8030C94CA050C94A103C2
:1000F0000C94E3050C94F7020C94E2050C94850330
:100100000C9478060C943F060C94AA020C94AB0352
:100110000C94810D0C9409040C9499030C94CE0753
:100120000C9493030C9414020C94A6030C9478037F
:100130000C9441020C9472020C9457060C947B03AD
:100140000C946C030C9464020C9466030C9481036D
:100150000C9449040C949D030C948B030C94A703FA
:100160000C94C9050C9474030C9450020C94700305
:100170000C945C090C948F030000210024002700DC
:100180002A002D00300033000101000004010701A6
:100190000A0100000A0B02090C0D0E0807030401F6
:1001A000000000000000000000000000000000004F
:1001B000000000000000000000000000000012111C
:1001C000100000000000000000000000000000001F
:1001D00000000000000000000000200023002600B6
:1001E00029002C002F00320000010000030106014D
:1001F000090100002200250028002B002E003100FC
:10020000340002010000050108010B010505050588
:10021000070508080808020202020A0A080804047E
:1002200004040101010101010101030303030303AC
:100230000303040707070C0C0C0C0C0C0C0C02023B
:10024000020206060606060606060B0B0B0B0B0B38
:100250000B0B0102102020080810204010204080C5
:10026000020102010804020101020408102040807A
:100270008040201008040201800402018040201008
:100280000804020108040201010204081020408051
:1002900001020408102040805C09810D11241FBE5A
:1002A000CFEFD1E2DEBFCDBF00E00CBF24E0A0E97C
:1002B000B2E001C01D92A43AB207E1F712E0A0E05B
:1002C000B2E0EEE2F0E200E00BBF02C007900D9258
:1002D000A039B107D9F711E0CDE4D1E000E006C0C4
:1002E00021970109802FFE010E94CA0DCC34D1074D
:1002F00080E00807A9F70E94AC0A0C9405100C9442
:10030000000096E0899FD0011124A75EBB4F909614
:100310007C936E935F9791E091969C939197E09177
:100320008604F091870490918504992339F03097E1
:1003300051F0811108C0809135041994309719F05B
:100340005C968C91FACF0895CF92DF92EF92FF9254
:100350000F931F9396E0899FF0011124E75EFB4FF6
:1003600011A2278D30A12130310551F178F02230D2
:10037000310509F451C02330310509F452C01F91F1
:100380000F91FF90EF90DF90CF9008956623B9F31F
:1003900061E070E00E9481012FB7F8948091DB0248
:1003A0009091DC02A091DD02B091DE022FBF80931C
:1003B000710490937204A0937304B0937404DFCF1C
:1003C0009FB7F894C090DB02D090DC02E090DD0291
:1003D000F090DE029FBF0091710410917204209191
:1003E000730430917404C01AD10AE20AF30A00912E
:1003F00083041091840430E020E00C151D052E05C7
:100400003F0550F462E070E01F910F91FF90EF9074
:10041000DF90CF900C9481016111B1CF63E070E067
:10042000F3CF70E060E0F0CFAF92BF92CF92DF9257
:10043000EF92FF920F931F93CF93DF936C017B0199
:100440008B01040F151FEB015E01AE18BF08C0172A
:10045000D10759F06991D601ED91FC910190F0819D
:10046000E02DC6011995892B79F7C501DF91CF9150
:100470001F910F91FF90EF90DF90CF90BF90AF90C2
:100480000895FC01538D448D252F30E0842F90E09A
:10049000821B930B541710F0CF960895019708957F
:1004A000FC01918D828D981761F0A28DAE0FBF2F48
:1004B000B11D5D968C91928D9F5F9F73928F90E09E
:1004C00008958FEF9FEF0895FC01918D828D98170D
:1004D00031F0828DE80FF11D858D90E008958FEF4A
:1004E0009FEF0895FC01918D228D892F90E0805C13
:1004F0009F4F821B91098F73992708958FED92E08A
:100500000E94720221E0892B09F420E0822F0895D5
:10051000FC01A48DA80FB92FB11DA35ABF4F2C9178
:10052000848D90E001968F739927848FA689B7896F
:100530002C93A089B1898C91837080648C93938D66
:10054000848D981306C00288F389E02D80818F7D09
:1005500080830895EF92FF920F931F93CF93DF93C1
:10056000EC0181E0888F9B8D8C8D98131AC0E889EF
:10057000F989808185FF15C09FB7F894EE89FF89BE
:100580006083E889F98980818370806480839FBF5C
:1005900081E090E0DF91CF911F910F91FF90EF905C
:1005A0000895F62E0B8D10E00F5F1F4F0F7311276C
:1005B000E02E8C8D8E110CC00FB607FCFACFE889A7
:1005C000F989808185FFF5CFCE010E948802F1CFA5
:1005D000EB8DEC0FFD2FF11DE35AFF4FF0829FB71B
:1005E000F8940B8FEA89FB8980818062CFCFCF930B
:1005F000DF93EC01888D8823B9F0AA89BB89E8894B
:10060000F9898C9185FD03C0808186FD0DC00FB6F0
:1006100007FCF7CF8C9185FFF2CF808185FFEDCF6E
:10062000CE010E948802E9CFDF91CF91089580E04A
:1006300090E0892B29F00E947E0281110E94000027
:1006400080E090E0892B49F080E090E0892B29F050
:100650000E94000081110E94000080E090E0892B40
:1006600049F080E090E0892B29F00E940000811180
:100670000E94000080E090E0892B49F080E090E04B
:10068000892B29F00E94000081110C94000008952C
:100690008150823108F05AC0E82FF0E08827EC5AE8
:1006A000FC4F8F4F0C94CA0D7403780366036C03E0
:1006B0007003A6037B03810385038B038F039303DE
:1006C00099039D03A603A103A703AB0380918000B8
:1006D0008F77809380000895809180008F7DF9CF7F
:1006E00080918000877FF5CF84B58F7784BD089592
:1006F00084B58F7DFBCF8091B0008F778093B00061
:1007000008958091B0008F7DF9CF809190008F7710
:10071000809390000895809190008F7DF9CF809113
:100720009000877FF5CF8091A0008F778093A00005
:1007300008958091A0008F7DF9CF8091A000877FE0
:10074000F5CF809120018F778093200108958091CB
:1007500020018F7DF9CF80912001877FF5CFCF9346
:10076000DF93282F30E0F901EE56FE4F8491F90116
:10077000EE5AFD4FD491F901E45FFD4FC491CC23B3
:10078000A1F081110E944803EC2FF0E0EE0FFF1F53
:10079000E852FE4FA591B491EC91ED2381E090E0F9
:1007A00009F480E0DF91CF91089580E090E0FACFE6
:1007B000862F0C94AF031F93CF93DF93282F30E045
:1007C000F901EE56FE4F8491F901EE5AFD4FD49196
:1007D000F901E45FFD4FC491CC23A9F0162F8111DC
:1007E0000E944803EC2FF0E0EE0FFF1FEE50FE4F8B
:1007F000A591B4918FB7F894EC91111108C0D095E0
:10080000DE23DC938FBFDF91CF911F910895DE2B04
:10081000F8CF862F642F0C94DB03CF93DF9390E007
:10082000FC01EE5AFD4F2491845F9D4FFC018491A1
:100830008823C9F090E0880F991FFC01E858FE4F0B
:10084000A591B491FC01EE50FE4FC591D491611178
:100850000DC09FB7F8948C91209582238C9388814A
:10086000282328839FBFDF91CF910895623051F4F0
:100870009FB7F8943C91822F809583238C93E881D5
:100880002E2BEFCF8FB7F894EC912E2B2C938FBF9C
:10089000EACF862F642F0C940D046F927F928F9273
:1008A0009F92AF92BF92CF92DF92EF92FF920F93FF
:1008B0001F93CF93DF9381E0809385048FB7F894E3
:1008C0004091DB025091DC026091DD027091DE020A
:1008D0008FBF8091750490917604A0917704B091B8
:1008E0007804481B590B6A0B7B0B80918104909113
:1008F0008204B0E0A0E084179507A607B70708F0C8
:100900001DC1C0E080917F04C81760F4E0917B04B2
:10091000F0917C04EC0FF11D62E080810E940D04D7
:10092000CF5FF0CF712C812C912C54018394809156
:100930008004781608F05FC0072D10E0E0917D0478
:10094000F0917E04E00FF11F61E080810E940D04B0
:10095000E0917D04F0917E04E00FF11F60E0808162
:100960000E94DB03D501C401072C04C0880F991F26
:10097000AA1FBB1F0A94D2F76C017C01E094F0948B
:10098000612C80917F046816F8F4C62DD0E0E091C8
:100990007B04F0917C04EC0FFD1F80810E94AF036B
:1009A0002496CC0FDD1FC75EDB4F892B41F4888175
:1009B00099818C299D29998388836394E2CF8881CA
:1009C00099818E219F21F7CFE0917D04F0917E04E3
:1009D000E00FF11F61E080810E94DB0380917D04C4
:1009E00090917E04080F191F60E0F80180810E9439
:1009F0000D0473949CCFC9E1D4E0FE018FEF9FEF0B
:100A0000278D30A1232B21F4148E968F858F11A270
:100A1000369624E0E535F20799F7F12C96E0D92EC9
:100A200080917F04F81608F050C0E12C0F2D10E0E3
:100A3000000F111F0F5D1B4F20918004E21608F07C
:100A400042C0F801608171810E2C02C076956795D5
:100A50000A94E2F7F29E900111242E0D311DE9E176
:100A6000F4E080E0458D568D2417350709F46AC0FF
:100A70008F5F36968A30B1F760FF23C0E9E1F4E07A
:100A800090E080E0448D411117C0E0917904F0912D
:100A90007A04E20FF31F4081D89EF001D99EF00D39
:100AA0001124E75EFB4F448F368F258F10A2178EDF
:100AB00061E00E94A40105C0019636968A30910536
:100AC00009F7E394B9CFF394ABCF80E099A19111EA
:100AD000892F2696F4E0C535DF07C1F79FB7F89454
:100AE0004091DB025091DC026091DD027091DE02E8
:100AF0009FBF40937504509376046093770470937E
:100B000078048823D9F080913A048823B9F0809141
:100B1000380490913904019789F480913504DF916C
:100B2000CF911F910F91FF90EF90DF90CF90BF90EA
:100B3000AF909F908F907F906F9008951092850452
:100B400080E0EDCF6170B5CF3FB7F8948091D102CE
:100B50009091D202A091D302B091D40226B5A89B65
:100B600005C02F3F19F00196A11DB11D3FBFBA2F3F
:100B7000A92F982F8827BC01CD01620F711D811DFF
:100B8000911D42E0660F771F881F991F4A95D1F784
:100B9000089508952091D7023091D8022817390777
:100BA00071F49091D5028091D602981741F0E091AE
:100BB000D502F0E0E057FD4F808190E008958FEF7F
:100BC0009FEF08950895EF92FF920F931F93CF9395
:100BD000DF93DC015C96ED90FC905D97E114F104ED
:100BE00079F481E090E013969C938E93129790E0B5
:100BF00080E0DF91CF911F910F91FF90EF900895CA
:100C00005196ED91FC91529750968C915097982F58
:100C100090950FB75E962C915E97122F127021FD62
:100C20006095F8942081112319F1282B2083E70186
:100C30002197F1F728E0462F50E0308160FF1AC07D
:100C4000382B3083E7012197F1F7BA017595679545
:100C5000215089F7112381F08081892380830FBF80
:100C60005C968D919C910197F1F781E090E0C1CF66
:100C70002923DCCF3923E5CF9081892BEFCF209139
:100C8000D7023091D8022817390771F48091D60223
:100C90002091D50290E0805C9F4F821B910960E417
:100CA00070E00E94B60D089590E080E008952091D4
:100CB000D7023091D80228173907B9F49091D5029C
:100CC0008091D602981789F0E091D502F0E0E057C4
:100CD000FD4F80812091D50230E02F5F3F4F2F7371
:100CE00033272093D50290E008958FEF9FEF08956A
:100CF00090E080E00895CF93DF93EC0160E08E8177
:100D00000E94DB0361E08E810E94DB0360E08E8144
:100D10000E94DB038BE891E00197F1F7DF91CF911F
:100D20000895CF92DF92EF92FF920F931F93CF938C
:100D3000DF936C017C0187E0E80EF11CD0E0C0E09D
:100D4000062F10E0B8010C2E02C0759567950A9425
:100D5000E2F76170F70181917F010E94DB03219628
:100D6000C430D10579F7C601DF91CF911F910F9162
:100D7000FF90EF90DF90CF900C947B06CF92DF92A4
:100D8000EF92FF920F931F93CF93DF93EC01F62E18
:100D9000642F8C810E94DB038D818F3F19F060E00E
:100DA0000E94DB030F2D10E08F8584FF25C06E01AC
:100DB00087E0C80ED11CF12CE12CB8010E2C02C02A
:100DC000759567950A94E2F76170F60181916F015C
:100DD0000E94DB03FFEFEF1AFF0A88E0E816F10438
:100DE00061F7CE01DF91CF911F910F91FF90EF90AE
:100DF000DF90CF900C947B06B80184E075956795E1
:100E00008A95E1F7CE010E9491066F2DCE01DF9108
:100E1000CF911F910F91FF90EF90DF90CF900C94A6
:100E2000910640E0682F88E894E00C94BE0681E0CB
:100E30000E9411078BE39FE10197F1F70895CF938B
:100E4000DF93823029F490919704986090939704EF
:100E500080939B0410929C0480E480939D0480E125
:100E600080939E0480E580939F0461E080918C04D0
:100E70000E940D0480918D048F3F19F061E00E9463
:100E80000D0461E080918E040E940D04C8E8D4E056
:100E90009E01285834408091970484FD0BC084E063
:100EA00090E021962817390744F461E08E810E9472
:100EB0000D04EECF88E090E0F4CF8BE39DE0019746
:100EC000F1F760E080918C040E94DB0360E0809188
:100ED0008E040E94DB0380918D048F3F19F060E047
:100EE0000E94DB038091970484FD34C063E088E8AE
:100EF00094E00E949106CBE4D6E4CE010197F1F78D
:100F000063E088E894E00E9491062197F1F763E09E
:100F100088E894E00E94910683E592E00197F1F75A
:100F200062E088E894E00E949106809197048062D4
:100F30000E94110784E0809398048CE00E941107BE
:100F40000E94170782E08093990486E0DF91CF9199
:100F50000C94110780620E9411078BE496E40197BC
:100F6000F1F78091970480620E94110783E592E077
:100F70000197F1F78091970480620E941107D5CF05
:100F800090919B04891710F08FEF890FE82FF0E004
:100F9000E857FB4F848980680C94110741E00E9458
:100FA000BE0681E090E00895FB0101900020E9F782
:100FB0003197AF01461B570BDC01ED91FC9102808C
:100FC000F381E02D19940F931F93CF93DF93EC01DE
:100FD00088819981009759F02A813B81261737072C
:100FE00030F081E0DF91CF911F910F9108958B0137
:100FF0006F5F7F4F0E940B0F009759F09983888392
:101000001B830A832C813D81232B59F7FC0110821D
:10101000E8CF80E0E7CFEF92FF920F931F93CF933B
:10102000DF93EC017B018A01BA010E94E30728816A
:101030003981811114C02115310519F0C9010E94AF
:10104000820E198218821D821C821B821A82CE0196
:10105000DF91CF911F910F91FF90EF9008951D8325
:101060000C83B701C9010E94FE0FF1CF1F920F92AE
:101070000FB60F9211240BB60F922F933F934F93FD
:101080005F936F937F938F939F93AF93BF93EF93F0
:10109000FF938FED92E00E948802FF91EF91BF9144
:1010A000AF919F918F917F916F915F914F913F9100
:1010B0002F910F900BBE0F900FBE0F901F901895A1
:1010C0001F920F920FB60F9211240BB60F922F930F
:1010D0008F939F93EF93FF93E091EF02F091F002D3
:1010E0008081E091F502F091F60282FD1DC09081B1
:1010F0008091F8028F5F8F732091F902821741F07F
:10110000E091F802F0E0E152FD4F958F8093F802F4
:10111000FF91EF919F918F912F910F900BBE0F90A8
:101120000FBE0F901F9018958081F2CF1F920F92E3
:101130000FB60F9211242F933F938F939F93AF93EA
:10114000BF938091DB029091DC02A091DD02B0910F
:10115000DE023091D00223E0230F2D3758F501969F
:10116000A11DB11D2093D0028093DB029093DC027D
:10117000A093DD02B093DE028091D1029091D20261
:10118000A091D302B091D4020196A11DB11D80930C
:10119000D1029093D202A093D302B093D402BF9114
:1011A000AF919F918F913F912F910F900FBE0F9014
:1011B0001F90189526E8230F0296A11DB11DD2CFCE
:1011C0001F920F920FB60F9211240BB60F922F930E
:1011D0003F934F935F936F937F938F939F93AF93BF
:1011E000BF93EF93FF93E091D702F091D80230972D
:1011F00049F0A685B7858585968D91FF16C09C918F
:101200008923B1F4FF91EF91BF91AF919F918F919D
:101210007F916F915F914F913F912F910F900BBEF6
:101220000F900FBE0F901F9018959C91892351F736
:10123000A389B4899C918589809589238C9386891B
:1012400097890197F1F7608D718DA685B7855585D2
:1012500038E020E0CB010197F1F7822F90E09595DF
:101260008795282F4C91452309F02068315091F73C
:10127000868D81FD20958091D60290E001968F7336
:1012800099273091D502381799F0A091D602B0E095
:10129000A057BD4F2C938093D602828D938D0197DA
:1012A000F1F7A389B4898C919589892B8C93AACF66
:1012B000868D8160868FF1CFCF93DF931092E2020B
:1012C0001092E10288EE93E0A0E0B0E08093E302A8
:1012D0009093E402A093E502B093E60282E292E0EA
:1012E0009093E0028093DF0285EC90E09093EC0213
:1012F0008093EB0284EC90E09093EE028093ED02F9
:1013000080EC90E09093F0028093EF0281EC90E00B
:101310009093F2028093F10282EC90E09093F402B9
:101320008093F30286EC90E09093F6028093F502AE
:101330001092F8021092F9021092FA021092FB0237
:1013400010928B0410928A0480E592E090938904B5
:101350008093880487E080938C048FEF80938D04C2
:1013600086E080938E0482E080938F0483E08093F4
:10137000900484E08093910485E08093920410921D
:101380009304109294041092950410929604109273
:10139000970481E00E941F0710921B0410921F0403
:1013A00010921E041092200486E492E090931A0496
:1013B00080931904E5E3F4E010821482138215820D
:1013C000369684E0E137F807B9F784E092E090932D
:1013D0007C0480937B0480E092E090937E04809371
:1013E0007D0484E080937F048093800488E092E011
:1013F00090937A04809379048AE090E09093820439
:101400008093810484EF91E090938404809383041B
:10141000109287041092860410927504109276043C
:101420001092770410927804109285041092FD03B4
:101430001092FC0388EE93E0A0E0B0E08093FE03FE
:101440009093FF03A0930004B093010484E392E01F
:101450009093FB038093FA031092110410921004EE
:101460001092130410921204109215041092140496
:101470001092170410921604609118046E7F6D7F0D
:10148000609318046695617081E068278BE00E9484
:10149000DB0361E08BE00E940D04EDE5F2E0E491F6
:1014A000E0930A04E7E1F2E0E491F0E0EE0FFF1FC1
:1014B000EE50FE4F8591949190930C0480930B0411
:1014C00060E08AE00E940D048091180481FD04C050
:1014D00061E08AE00E94DB038AE080930604ECE589
:1014E000F2E0E491E0930704E6E1F2E0E491F0E059
:1014F000EE0FFF1FE852FE4F8591949190930904DF
:1015000080930804C2E8D3E0198218821B821A82F1
:101510001D821C8250E040E06EE772E0CE010E9426
:101520000B08269683E0CA3FD80771F710927D0317
:1015300010927C0310927F0310927E03109281031D
:101540001092800350E040E06EE772E08CE793E099
:10155000DF91CF910C940B08CF93DF931F921F92D2
:10156000CDB7DEB7789484B5826084BD84B58160E0
:1015700084BD85B5826085BD85B5816085BD80915E
:101580006E00816080936E001092810080918100D6
:1015900082608093810080918100816080938100CE
:1015A000809180008160809380008091B100846090
:1015B0008093B1008091B00081608093B0008091F1
:1015C000910082608093910080919100816080936E
:1015D0009100809190008160809390008091A100A3
:1015E00082608093A1008091A10081608093A1001E
:1015F0008091A00081608093A00080912101826091
:10160000809321018091210181608093210180914B
:10161000200181608093200180917A008460809312
:101620007A0080917A00826080937A0080917A00BB
:10163000816080937A0080917A00806880937A003C
:101640001092C100E091EF02F091F00282E08083FD
:10165000E091EB02F091EC021082E091ED02F0914A
:10166000EE028FEC80831092F702E091F302F0918A
:10167000F40286E08083E091F102F091F202808131
:1016800080618083E091F102F091F20280818860B4
:101690008083E091F102F091F20280818068808382
:1016A000E091F102F091F20280818F7D80831092AF
:1016B0001504109214041092130410921204109244
:1016C0001104109210048DE991E090931704809317
:1016D00016048091060496EF980F943048F02EEC93
:1016E000280F243028F022EC280F283008F061C0A1
:1016F0002DEB30E030931104209310042BE931E0FE
:1017000030931304209312042CE231E0309315043B
:1017100020931404943050F02EEC280F243030F035
:1017200022EC280FF0E0E0E0283010F4E8E6F0E0EA
:101730002081943028F032EC380F383008F4F0C0B3
:1017400031E0232B943048F09EEC980F943028F031
:101750008E53F0E0E0E0883010F4E8E6F0E020831B
:101760002091060436EF320F343008F4DBC08EECE3
:10177000820F843008F4D6C082EC820F883008F0E3
:10178000D4C08DE690E090930E0480930D04343025
:1017900008F0CEC02650330B81E001C0880F2A9597
:1017A000EAF780930F048091160490911704019733
:1017B000F1F78091140490911504892B49F1E0917F
:1017C000D702F091D80223E0EA3FF20709F13097FF
:1017D00039F0A389B4899C918589809589238C935C
:1017E000809118048E7F809318041092D602109274
:1017F000D5028AEF93E09093D8028093D702E091CC
:101800000D04F0910E04808190910F04892B808348
:1018100082E00E941F0780E00E94C00761E086E32B
:101820000E940D0461E087E30E940D043AEF832ECD
:1018300033E0932E46E0742E0E944D04182F0E9430
:1018400017071E3209F030C180E00E94C00768E52A
:1018500072E088E894E00E94D40781E00E94C0070B
:1018600050E040E06EE772E08CE793E00E940B08E6
:1018700024E0E22EF12C0E944D04182F8823D9F386
:1018800041E0682F88E894E00E94BE0619831A821E
:1018900000918003109181030F5F1F4FB8018CE707
:1018A00093E00E94E307882399F020917C03309114
:1018B0007D038091800390918103BE016F5F7F4F14
:1018C000820F931F0E94FE0F1093810300938003E9
:1018D00081E0E81AF10879F6C0908003D090810386
:1018E000A0907C03B0907D0392E8E92E93E0F92E5E
:1018F00001E010E0F70184819581C816D906E9F569
:1019000060817181A114B10441F16115710509F083
:10191000CEC0C114D10479F1F501808190E029C0D5
:1019200034E00FCF8BE690E02ECF90E080E02BCF1D
:1019300088E0223309F435CF84E0233309F431CF32
:1019400082E0243309F42DCF82EC820F883018F422
:101950002E53330B21CF81E024CF6115710559F04F
:10196000C114D10441F0FB01808190E091958195F3
:101970009109892B11F410E000E0F6E0EF0EF11C64
:101980008E149F0409F0B6CF0E94170780E00E94D2
:10199000C007012B09F4AAC00091D9021091DA0204
:1019A00060917C0370917D036115710509F483C01A
:1019B0004091800350918103709EC001719E900DF3
:1019C00011248E579C4F0E940B080F5F1F4F1093DE
:1019D000DA020093D90261E086E30E94DB0367E646
:1019E00072E088E894E00E94D4070E944D04182F0A
:1019F0008823D9F381E00E94C00741E0612F88E885
:101A000094E00E94BE064091800350918103609152
:101A10007C0370917D038FED92E00E94140268E7D1
:101A200072E08FED92E00E94D407612F8FED92E07B
:101A30000E94AA0242E050E06CE772E08FED92E073
:101A40000E941402612F8AEF93E00E94E3050E9436
:101A5000A4051B012C0184EFC82EDD24D394E12CB6
:101A6000F12C0E94A4056219730984099509683E46
:101A7000734081059105A8F321E0C21AD108E1085D
:101A8000F10888EE280E83E0381E411C511CC11459
:101A9000D104E104F10429F760E086E30E94DB034E
:101AA00060E087E30E94DB030E941703C5CEC501F7
:101AB0000E94F50F5ECF709EF001719EF00D112413
:101AC000EE57FC4F80819181009711F00E94820EA9
:101AD000709EF001719EF00D1124EE57FC4F1182A3
:101AE000108215821482138212826FCF61E087E325
:101AF0000E94DB036FE772E088E894E00E94D4075D
:101B0000A6CFCF93DF9380917C0390917D030097C4
:101B100011F00E94820ECAEFD3E026978881998146
:101B2000009711F00E94820E23E0C238D207A9F775
:101B300084E392E09093FB038093FA038091D702B1
:101B40009091D8028A5F934071F4E0910D04F09176
:101B50000E04908180910F048095892380831092D8
:101B6000D8021092D702DF91CF91089597FB072EEC
:101B700016F4009407D077FD09D00E94D20D07FC1F
:101B800005D03EF4909581959F4F0895709561958D
:101B90007F4F0895EE0FFF1F881F8BBF0790F691B0
:101BA000E02D1994AA1BBB1B51E107C0AA1FBB1F44
:101BB000A617B70710F0A61BB70B881F991F5A95D9
:101BC000A9F780959095BC01CD0108950F931F93BF
:101BD000CF93DF938230910510F482E090E0E091A2
:101BE000A204F091A30430E020E0B0E0A0E0309740
:101BF00099F42115310509F44AC0281B390B24300A
:101C00003105D8F58A819B816115710589F1FB0148
:101C100093838283FE0111C040815181028113812F
:101C200048175907E0F04817590799F4109761F0E1
:101C300012960C93129713961C933296CF01DF9154
:101C4000CF911F910F9108950093A2041093A304C4
:101C5000F4CF2115310551F04217530738F0A9018F
:101C6000DB019A01BD01DF01F801C1CFEF01F9CF1E
:101C70009093A3048093A204CDCFFE01E20FF31F43
:101C8000819391932250310939832883D7CF2091B2
:101C9000A0043091A104232B41F420911A02309129
:101CA0001B023093A1042093A004209118023091CC
:101CB00019022115310541F42DB73EB740911C02A0
:101CC00050911D02241B350BE091A004F091A1045A
:101CD000E217F307A0F42E1B3F0B2817390778F003
:101CE000AC014E5F5F4F2417350748F04E0F5F1F62
:101CF0005093A1044093A004819391939FCFF0E06F
:101D0000E0E09CCFCF93DF930097E9F0FC0132979E
:101D100013821282A091A204B091A304ED0130E0DD
:101D200020E01097A1F420813181820F931F209130
:101D3000A0043091A1042817390709F061C0F0937D
:101D4000A104E093A004DF91CF910895EA01CE179A
:101D5000DF07E8F54A815B819E0141155105B1F726
:101D6000E901FB83EA8349915991C40FD51FEC1710
:101D7000FD0761F4808191810296840F951FE9012E
:101D800099838883828193819B838A83F0E0E0E05A
:101D900012968D919C9113970097B9F52D913C91D6
:101DA0001197CD010296820F931F2091A0043091CC
:101DB000A1042817390739F6309751F51092A3047A
:101DC0001092A204B093A104A093A004BCCFD3832B
:101DD000C28340815181840F951FC817D90761F4D0
:101DE0004E5F5F4F88819981480F591F518340830F
:101DF0008A819B81938382832115310509F0B0CFBD
:101E0000F093A304E093A2049ECFFD01DC01C0CFB8
:101E100013821282D7CF4F925F926F927F928F92EE
:101E20009F92AF92BF92CF92DF92EF92FF920F9369
:101E30001F93CF93DF938C01009799F4CB01DF912F
:101E4000CF911F910F91FF90EF90DF90CF90BF90B7
:101E5000AF909F908F907F906F905F904F900C9479
:101E6000E60DFC01E60FF71F9C0122503109E21735
:101E7000F30708F4AEC0D901CD91DC911197C617D4
:101E8000D70720F1C530D10578F0CE010497861729
:101E9000970750F0C61BD70B2297C193D1936D9330
:101EA0007C93CF010E94820EC801DF91CF911F91D8
:101EB0000F91FF90EF90DF90CF90BF90AF909F90E9
:101EC0008F907F906F905F904F9008955B01AC1A58
:101ED000BD0A4C018C0E9D1EA091A204B091A304DA
:101EE000512C412CF12CE12C109731F58091A0045C
:101EF0009091A1048815990509F05CC04616570613
:101F000008F058C08091180290911902009741F48E
:101F10008DB79EB740911C0250911D02841B950BFA
:101F2000E817F90708F055C0F093A104E093A00466
:101F3000F90171836083B8CF8D919C9111971296AE
:101F40006C90129713967C901397A815B90559F5C4
:101F50006C0142E0C40ED11CCA14DB0420F1AC01B8
:101F60004A195B09DA011296159780F06282738232
:101F700051834083D9016D937C93E114F10471F096
:101F8000D7011396FC93EE9312978ECF22968C0F67
:101F90009D1FF90191838083F301EFCFF093A30498
:101FA000E093A20481CF4816590608F42C017D0164
:101FB000D3019ACFCB010E94E60D7C01009749F036
:101FC000AE01B8010E94EC0FC8010E94820E870189
:101FD0006BCF10E000E068CFFB01DC0102C0019094
:101FE0000D9241505040D8F70895FB01DC018D91CE
:101FF000019080190110D9F3990B0895FB01DC01C0
:1020000001900D920020E1F7089511E0CDE4D1E0B8
:1020100000E006C0802FFE010E94CA0D2196011D1E
:0E202000CE34D10780E00807A9F7F894FFCF6F
:10202E00292A2B2C252627283738392F3435362ABE
:10203E003132332D2E303D2B0000A40480000000E1
:10204E000000AA0214024102F70272025002640258
:10205E0000000000E30514027806E2053F0657066D
:10206E00CA050000000049040904D803000000005E
:10207E00CE0714027806C905456E74657220796F15
:10208E0075722049443A00456E74657220796F75F9
:10209E007220766F74653A00203A20000D0A0059BE
:1020AE006F7520766F746564206265666F72650069
:00000001FF
