:100000000C9453010C9484010C9484010C9484018D
:100010000C9484010C9484010C9484010C9484014C
:100020000C9484010C941B0D0C941B0D0C941B0D53
:100030000C9484010C94BE090C9484010C948401EA
:100040000C9484010C9484010C9484010C9484011C
:100050000C9484010C9484010C9484010C94AD0BD9
:100060000C9484010C94830B0C94590B0C94840114
:100070000C9484010C9484010C9484010C948401EC
:100080000C9484010C9484010C9484010C948401DC
:100090000C942F0B0C94050B0C9484010C94F70B0F
:1000A0000C9484010C9484010C9484010C948401BC
:1000B0000C9484010C9484010C9484010C948401AC
:1000C0000C9484010C9484010C9484010C94DB0A3C
:1000D0000C94B10A0C9484010C94870A0C945D0A68
:1000E0000C9484010C94C9020C9429080C94970D6B
:1000F0000C9408080C9486030C9459030C94430345
:100100000C9494030C9494070C9482030C94AD010A
:100110000C9474030C947C020C94F5010C943E0333
:100120000C941B070C9455030C947C070C946E03E1
:100130000C9490030C945D030C94F2060C94480705
:100140000C94F0070C948A030C9461030C946403E0
:100150000C94AF010C9478030C9418020C94B81111
:100160000C9414070C94F1060C9404020C942602CF
:100170000C9401070C946A030C947C030C94AE015C
:1001800000002100240027002A002D003000330049
:1001900001010000040107010A0100000A0B020925
:1001A0000C0D0E0807030401000000000000000011
:1001B000000000000000000000000000000000003F
:1001C00000000000000012111000000000000000FC
:1001D000000000000000000000000000000000001F
:1001E00002000020002300260029002C002F0032EE
:1001F00000000100000301060109010000220025A2
:100200000028002B002E0031003400020100000500
:100210000108010B01050505050705080808080286
:100220000202020A0A08080404040401010101018F
:100230000101010303030303030303040707070C7E
:100240000C0C0C0C0C0C0C02020202060606060634
:100250000606060B0B0B0B0B0B0B0B0102102020E1
:10026000080810204010204080020102010804020A
:100270000101020408102040808040201008040280
:1002800001800402018040201008040201080402D9
:1002900001010204081020408001020408102040DF
:1002A0008000970DB81111241FBECFEFD1E2DEBF41
:1002B000CDBF00E00CBF12E0A0E0B2E0E8EDF9E253
:1002C00000E00BBF02C007900D92AC36B107D9F722
:1002D00026E0ACE6B2E001C01D92AB33B207E1F715
:1002E00011E0C2E5D1E000E006C021970109802FAE
:1002F000FE010E94E811C135D10780E00807A9F787
:100300000E94080F0C94DA140C940000FC01A089E0
:10031000B18982E08C93A485B5851C92A685B785AA
:100320008FEC8C93108EA489B58986E08C93A2897A
:10033000B3898C9180618C93A289B3898C918860F8
:100340008C93A289B3898C9180688C930288F389FD
:10035000E02D80818F7D8083089508950895AF9268
:10036000BF92CF92DF92EF92FF920F931F93CF93A2
:10037000DF936C017B018B01040F151FEB015E0104
:10038000AE18BF08C017D10759F06991D601ED9199
:10039000FC910190F081E02DC6011995892B79F728
:1003A000C501DF91CF911F910F91FF90EF90DF90EA
:1003B000CF90BF90AF900895FC01A089B1898C9136
:1003C000A689B78982FD0FC09C91818D8F5F8F7345
:1003D000228D821749F0A18DAE0FBF2FB11D5D9602
:1003E0009C93818F08958C910895FC01538D448DC9
:1003F000252F30E0842F90E0821B930B541710F0D0
:10040000CF96089501970895FC01918D828D9817DC
:1004100061F0A28DAE0FBF2FB11D5D968C91928DB4
:100420009F5F9F73928F90E008958FEF9FEF0895E5
:10043000FC01918D828D981731F0828DE80FF11DAE
:10044000858D90E008958FEF9FEF0895FC01918DC9
:10045000228D892F90E0805C9F4F821B91098F73C2
:10046000992708958CE993E00E94260221E0892BC8
:1004700009F420E0822F089589E394E00E94260287
:1004800021E0892B09F420E0822F089586ED94E085
:100490000E94260221E0892B09F420E0822F089592
:1004A00083E795E00E94260221E0892B09F420E0F1
:1004B000822F0895FC01A48DA80FB92FB11DA35A56
:1004C000BF4F2C91848D90E001968F739927848F74
:1004D000A689B7892C93A089B1898C918370806497
:1004E0008C93938D848D981306C00288F389E02D38
:1004F00080818F7D80830895EF92FF920F931F93E9
:10050000CF93DF93EC0181E0888F9B8D8C8D9813C6
:100510001AC0E889F989808185FF15C09FB7F894D2
:10052000EE89FF896083E889F9898081837080641E
:1005300080839FBF81E090E0DF91CF911F910F9169
:10054000FF90EF900895F62E0B8D10E00F5F1F4F78
:100550000F731127E02E8C8D8E110CC00FB607FC87
:10056000FACFE889F989808185FFF5CFCE010E9415
:100570005A02F1CFEB8DEC0FFD2FF11DE35AFF4F27
:10058000F0829FB7F8940B8FEA89FB8980818062A3
:10059000CFCFCF93DF93EC01888D8823B9F0AA8960
:1005A000BB89E889F9898C9185FD03C0808186FD2E
:1005B0000DC00FB607FCF7CF8C9185FFF2CF80817D
:1005C00085FFEDCFCE010E945A02E9CFDF91CF9196
:1005D000089580E090E0892B29F00E94500281115B
:1005E0000E94000080E090E0892B29F00E944602E2
:1005F00081110E94000080E090E0892B29F00E9488
:100600003C0281110E94000080E090E0892B29F0DB
:100610000E94320281110C9400000895282F30E0CE
:10062000F901E656FE4F9491F901E55AFD4F4491C8
:100630002B5E3D4FF9012491222309F435C0992303
:1006400011F191509231F8F4E92FF0E08827E45D40
:10065000FC4F8F4F0C94E8115D0361033E0355037B
:100660005903430364036A036E03740378037C0332
:100670008203860343038A039003940380918000DE
:100680008F7780938000E22FF0E0EE0FFF1FE550A0
:10069000FE4FA591B4918FB7F894EC91611148C0C9
:1006A00040954E234C938FBF0895809180008F7D9D
:1006B000E8CF80918000877FE4CF84B58F7784BDB9
:1006C000E2CF84B58F7DFBCF8091B0008F77809390
:1006D000B000D9CF8091B0008F7DF9CF809190008C
:1006E0008F7780939000CFCF809190008F7DF9CF4E
:1006F00080919000877FF5CF8091A0008F778093C5
:10070000A000C1CF8091A0008F7DF9CF8091A00083
:10071000877FF5CF809120018F7780932001B3CF21
:10072000809120018F7DF9CF80912001877FF5CFC7
:100730004E2BB8CFCF93DF9390E0FC01E55AFD4FED
:1007400024918B5E9D4FFC0184918823D1F090E031
:10075000880F991FFC01E058FE4FA591B491FC0150
:10076000E550FE4FC591D49161110EC09FB7F8942A
:100770008C91E22FE0958E238C932881E223E883ED
:100780009FBFDF91CF9108958FB7F894EC91E22B42
:10079000EC938FBFF6CFCF9380910002883021F089
:1007A0008F3F61F1CF910895E0EEF1E0C491C7FD74
:1007B000F9CF61E088E00E949A03CC2309F4F1C0EC
:1007C000C23009F006C18091B100887F83608093B8
:1007D000B10089EF8093B30080E991E0A0E0B0E040
:1007E0008093400390934103A0934203B09343034B
:1007F00080917000826080937000D4CF88E08093F5
:100800000002E0EEF1E0C4918C2FCF3F59F2C230EC
:1008100009F468C060F4CC2379F1C13009F444C014
:1008200087FDC0CF61E088E00E949A03C9CFC43041
:1008300009F499C008F478C0C53091F710922001EE
:100840001092210180912101886080932101809183
:100850002101816080932101EDE1F2E0E491F0E07B
:10086000EE0FFF1FE550FE4F85919491E3E6F2E015
:10087000E491E0932C039DCF14BC15BC84B5826039
:1008800084BD85B5816085BDEDE1F2E0E491F0E0E5
:10089000EE0FFF1FE550FE4F85919491E3E6F2E0E5
:1008A000E491E093330385CF109280001092810091
:1008B00080918100886080938100809181008160B7
:1008C00080938100EDE1F2E0E491F0E0EE0FFF1F94
:1008D000E550FE4F85919491E3E6F2E0E491E093D8
:1008E000320367CF1092B0001092B1008091B00037
:1008F00082608093B0008091B10081608093B100EC
:10090000EDE1F2E0E491F0E0EE0FFF1FE550FE4F65
:10091000859194919093310380933003E3E6F2E064
:10092000E491E0932F0345CF109290001092910034
:100930008091910088608093910080919100816006
:1009400080939100EDE1F2E0E491F0E0EE0FFF1F03
:10095000E550FE4F85919491E3E6F2E0E491E09357
:100960002E03C3E026CF1092A0001092A100809128
:10097000A10088608093A1008091A1008160809394
:10098000A100EDE1F2E0E491F0E0EE0FFF1FE55091
:10099000FE4F85919491E3E6F2E0E491E0932D031C
:1009A00008CF85B5887F836085BD8CE787BD80E9EA
:1009B00091E0A0E0B0E08093480390934903A093B6
:1009C0004A03B0934B0380916E00826080936E0067
:1009D000E9CEC130F1F480918100887F81608093FD
:1009E00081008FE39FE1909389008093880080E9E4
:1009F00091E0A0E0B0E08093440390934503A0937E
:100A00004603B093470380916F00826080936F002C
:100A1000C9CEC330F1F480919100887F81608093CA
:100A200091008FE39FE1909399008093980080E973
:100A300091E0A0E0B0E080933C0390933D03A0934D
:100A40003E03B0933F0380917100826080937100F8
:100A5000A9CEC430F1F48091A100887F8160809399
:100A6000A1008FE39FE19093A9008093A80080E903
:100A700091E0A0E0B0E08093380390933903A09315
:100A80003A03B0933B0380917200826080937200BE
:100A900089CEC530F1F480912101887F81608093F7
:100AA00021018FE39FE1909329018093280180E940
:100AB00091E0A0E0B0E08093340390933503A093DD
:100AC0003603B09337038091730082608093730084
:100AD00069CEC23091F034F4CC2369F0C13009F012
:100AE00061CE7FCFC43009F4BCCF0CF49ACFC530AF
:100AF00009F058CED6CF8FE359CF8FE36BCE3FB7F7
:100B0000F8948091150390911603A0911703B0916A
:100B1000180326B5A89B05C02F3F19F00196A11D0B
:100B2000B11D3FBFBA2FA92F982F8827BC01CD0137
:100B3000620F711D811D911D42E0660F771F881F96
:100B4000991F4A95D1F708952091ED02260F33277A
:100B5000331F21323105ECF420917203FC0190E047
:100B600080E0243069F082E00895A091ED022191A7
:100B7000AC0143535D4FA40FB52FB11D2C930196CB
:100B8000861798F38091ED02680F6093ED0280E084
:100B9000089581E008951092720381E080937103BB
:100BA00010924C0361E084E10E940E0361E085E154
:100BB0000E940E03E9EBF0E080818E7F80838081CC
:100BC0008D7F808388E48093B80085E48093BC00A7
:100BD0000895CF93DF9391E09093CC028823B9F0EE
:100BE000C091B800D091BA008091BC008A7B8093FC
:100BF000BC0060E084E10E940E0360E085E10E9499
:100C00000E030E94CB05D093BA00C093B800DF91C9
:100C1000CF910895CF92DF92EF92FF920F931F939F
:100C2000CF93DF93D0919B0381E0D13208F09CC039
:100C3000C0919A030E947F056B017C018091720331
:100C400081116CC082E08093720381E08093710314
:100C50008FEF8093700310926F03D0936E03AAE717
:100C6000B3E0EEE4F3E080E0D8138DC010924D03C2
:100C700080914D03CC0FC82BC0934D0380914C0342
:100C8000813009F084C010924C030E947F056B01F3
:100C90007C0180914D038093BB00809174039091FF
:100CA0007503A0917603B0917703892B8A2B8B2B48
:100CB000A1F00E947F0500917403109175032091AB
:100CC0007603309177036C197D098E099F09061709
:100CD00017072807390708F442C08091BC0083FD3C
:100CE000D8CF85EC8093BC000E947F056B017C010E
:100CF00080917203823009F44CC0809170038F3F61
:100D000009F469C080917003803209F466C0809153
:100D10007003803309F463C084E026C080917403BB
:100D200090917503A0917603B0917703892B8A2B5C
:100D30008B2B09F483CF0E947F05009174031091DF
:100D4000750320917603309177036C197D098E0924
:100D50009F09061717072807390708F06FCF8091FA
:100D600073030E94E90585E01092790310929B03BA
:100D700010927803DF91CF911F910F91FF90EF9028
:100D8000DF90CF9008959D9191938F5F6DCF85EE09
:100D9000A9CF8091740390917503A0917603B091CF
:100DA0007703892B8A2B8B2B09F4A2CF0E947F0516
:100DB00000917403109175032091760330917703AD
:100DC0006C197D098E099F0906171707280739072F
:100DD00008F08ECFC4CF80E0C7CF82E0C5CF83E0DC
:100DE000C3CF0895E091220380912103E81730F4E6
:100DF000F0E0E455FD4F808190E008958FEF9FEF84
:100E0000089590912203809121032FEF3FEF9817CF
:100E100048F4E92FF0E0E455FD4F208130E09F5F7A
:100E200090932203C9010895809121039091220398
:100E3000891B990B0895CF92DF92EF92FF920F9347
:100E40001F93CF93DF937C01CB018A01209178031C
:100E5000222389F0EB016B01C40ED51ECC15DD05F4
:100E600069F06991D701ED91FC910190F081E02D3D
:100E7000C7011995F3CF642F0E94A405C801DF9123
:100E8000CF911F910F91FF90EF90DF90CF90089539
:100E9000CF93DF931F92CDB7DEB76983209178039C
:100EA0002223F9F020919B03203258F021E030E01A
:100EB000FC013383228390E080E00F90DF91CF919B
:100EC000089580917903E82FF0E0E658FC4F99816E
:100ED00090838F5F8093790380939B0381E090E000
:100EE000ECCF61E0CE0101960E94A405F7CF682FF8
:100EF00080E196E00C94480720911B0330911C037D
:100F00002817390771F49091190380911A039817E3
:100F100041F0E0911903F0E0E459FD4F808190E049
:100F200008958FEF9FEF0895EF92FF920F931F9315
:100F3000CF93DF93DC015C96ED90FC905D97E1141C
:100F4000F10479F481E090E013969C938E931297CC
:100F500090E080E0DF91CF911F910F91FF90EF9093
:100F600008955196ED91FC91529750968C9150971F
:100F7000982F90950FB75E962C915E97122F127056
:100F800021FD6095F8942081112319F1282B2083ED
:100F9000E7012197F1F728E0462F50E0308160FF0C
:100FA0001AC0382B3083E7012197F1F7BA01759504
:100FB0006795215089F7112381F0808189238083EF
:100FC0000FBF5C968D919C910197F1F781E090E0C5
:100FD000C1CF2923DCCF3923E5CF9081892BEFCFF7
:100FE00020911B0330911C032817390771F480915D
:100FF0001A032091190390E0805C9F4F821B910996
:1010000060E470E00E94D411089590E080E00895BB
:1010100020911B0330911C0328173907B9F49091D4
:10102000190380911A03981789F0E0911903F0E0F1
:10103000E459FD4F80812091190330E02F5F3F4F2D
:101040002F7333272093190390E008958FEF9FEFBC
:10105000089590E080E0089581E08093780380E532
:1010600080939A031092790310929B0390E080E0A2
:101070000E9477078AEA90E00E947707809129030F
:1010800090912A030E947707809123039091240373
:101090000E94770780912503909126030E9477078D
:1010A00080912703909128030E9477070C940A06E9
:1010B000CF92DF92EF92FF920F931F9381E0809384
:1010C000780380E580939A031092790310929B0332
:1010D00090E080E00E9477078AEA90E00E9477071C
:1010E0000E940A060E947F056B017C0180917203B9
:1010F000811165C081E080937203809371039FEF3B
:101100009093700310926F0393E090936E0380931B
:101110004D0380914D03806A80934D0380914C0371
:10112000813009F0A1C010924C030E947F056B0131
:101130007C0180914D038093BB008091740390915A
:101140007503A0917603B0917703892B8A2B8B2BA3
:10115000A1F00E947F050091740310917503209106
:101160007603309177036C197D098E099F09061764
:1011700017072807390708F443C08091BC0083FD96
:10118000D8CF85EC8093BC000E947F056B017C0169
:1011900080917203813009F469C080916F038430BB
:1011A00008F086C080916F03AEE4B3E0ECEAF2E0B1
:1011B00090E0981751F12D9121939F5FFACF809184
:1011C000740390917503A0917603B0917703892BF6
:1011D0008A2B8B2B09F48ACF0E947F050091740320
:1011E0001091750320917603309177036C197D0976
:1011F0008E099F09061717072807390708F076CFC9
:10120000809173030E94E90580E01092220380938D
:10121000210380E196E00E940107992790932A0319
:101220008093290380E196E00E940107992790931B
:1012300024038093230380E196E00E94010799270D
:10124000909326038093250380E196E00E94010796
:10125000992790932803809327031F910F91FF9064
:10126000EF90DF90CF90089585EE8CCF809174033E
:1012700090917503A0917603B0917703892B8A2B07
:101280008B2B09F485CF0E947F0500917403109188
:10129000750320917603309177036C197D098E09CF
:1012A0009F09061717072807390708F071CFA8CF3D
:1012B00084E07ACFFC0101900020E9F73197AF017B
:1012C000481B590BBC018CE196E00C94AF01CF9305
:1012D000DF930E945A09EC0187E392E00E945A09C9
:1012E0008C0F9D1FDF91CF910895CF93DF93682FCF
:1012F0008CE196E00E949407EC0187E392E00E9463
:101300005A098C0F9D1FDF91CF91089585ED809331
:10131000BC008091740390917503A0917603B09105
:1013200077030796A11DB11D23E0B695A795979564
:1013300087952A95D1F72091BC0024FD03C0109217
:101340007203089540917403509175036091760380
:1013500070917703452B462B472B69F30097A10526
:10136000B10541F025E32A95F1F700000197A109A5
:10137000B109E1CF809173030C94E9051F920F929C
:101380000FB60F9211240BB60F922F933F934F93EA
:101390005F936F937F938F939F93AF93BF93EF93DD
:1013A000FF938091400390914103A0914203B0913B
:1013B0004303892B8A2B8B2BE1F190912F03E09132
:1013C0003003F0913103808189278083809140032D
:1013D00090914103A0914203B0914303181619065E
:1013E0001A061B069CF48091400390914103A09142
:1013F0004203B09143030197A109B10980934003CF
:1014000090934103A0934203B0934303FF91EF9164
:10141000BF91AF919F918F917F916F915F914F910C
:101420003F912F910F900BBE0F900FBE0F901F900A
:10143000189580910002E0EEF1E0E4919FEF909327
:101440000002E230E9F040F4EE2389F0E13091F05F
:1014500060E00E940E03DACFE43049F110F1E5308C
:10146000B9F7909173009D7F90937300F1CF109224
:101470006E00EECF90916F009D7F90936F00E8CF4C
:10148000909170009D7F9093700091E09093B000D8
:101490009091B100987F94609093B1001092B30046
:1014A000D7CF909171009D7F90937100D1CF909193
:1014B00072009D7F90937200CBCF1F920F920FB658
:1014C0000F9211240BB60F922F933F934F935F937C
:1014D0006F937F938F939F93AF93BF93EF93FF93FC
:1014E0008CE993E00E945A02FF91EF91BF91AF9176
:1014F0009F918F917F916F915F914F913F912F912C
:101500000F900BBE0F900FBE0F901F9018951F925B
:101510000F920FB60F9211240BB60F922F933F9399
:101520004F935F936F937F938F939F93AF93BF93EB
:10153000EF93FF938CE993E00E94DC01FF91EF9120
:10154000BF91AF919F918F917F916F915F914F91DB
:101550003F912F910F900BBE0F900FBE0F901F90D9
:1015600018951F920F920FB60F9211240BB60F927F
:101570002F933F934F935F936F937F938F939F939B
:10158000AF93BF93EF93FF9389E394E00E945A02D5
:10159000FF91EF91BF91AF919F918F917F916F914B
:1015A0005F914F913F912F910F900BBE0F900FBE07
:1015B0000F901F9018951F920F920FB60F92112443
:1015C0000BB60F922F933F934F935F936F937F933D
:1015D0008F939F93AF93BF93EF93FF9389E394E02F
:1015E0000E94DC01FF91EF91BF91AF919F918F918C
:1015F0007F916F915F914F913F912F910F900BBE13
:101600000F900FBE0F901F9018951F920F920FB65C
:101610000F9211240BB60F922F933F934F935F932A
:101620006F937F938F939F93AF93BF93EF93FF93AA
:1016300086ED94E00E945A02FF91EF91BF91AF9125
:101640009F918F917F916F915F914F913F912F91DA
:101650000F900BBE0F900FBE0F901F9018951F920A
:101660000F920FB60F9211240BB60F922F933F9348
:101670004F935F936F937F938F939F93AF93BF939A
:10168000EF93FF9386ED94E00E94DC01FF91EF91D0
:10169000BF91AF919F918F917F916F915F914F918A
:1016A0003F912F910F900BBE0F900FBE0F901F9088
:1016B00018951F920F920FB60F9211240BB60F922E
:1016C0002F933F934F935F936F937F938F939F934A
:1016D000AF93BF93EF93FF9383E795E00E945A0285
:1016E000FF91EF91BF91AF919F918F917F916F91FA
:1016F0005F914F913F912F910F900BBE0F900FBEB6
:101700000F901F9018951F920F920FB60F921124F1
:101710000BB60F922F933F934F935F936F937F93EB
:101720008F939F93AF93BF93EF93FF9383E795E0DE
:101730000E94DC01FF91EF91BF91AF919F918F913A
:101740007F916F915F914F913F912F910F900BBEC1
:101750000F900FBE0F901F9018951F920F920FB60B
:101760000F9211242F933F938F939F93AF93BF9327
:101770008091110390911203A0911303B09114036F
:101780003091100323E0230F2D3758F50196A11D4A
:10179000B11D209310038093110390931203A09323
:1017A0001303B09314038091150390911603A09135
:1017B0001703B09118030196A11DB11D8093150365
:1017C00090931603A0931703B0931803BF91AF91A2
:1017D0009F918F913F912F910F900FBE0F901F906F
:1017E000189526E8230F0296A11DB11DD2CF1F9296
:1017F0000F920FB60F9211240BB60F922F933F93B7
:101800004F935F936F937F938F939F93AF93BF9308
:10181000EF93FF938091B900887F803609F44DC023
:1018200008F040C0883209F4A9C028F5803109F4D5
:101830009DC0C8F4882309F4FBC0883009F496C021
:10184000FF91EF91BF91AF919F918F917F916F9198
:101850005F914F913F912F910F900BBE0F900FBE54
:101860000F901F901895883109F488C0803241F795
:101870008093700314C0803409F49DC040F4803319
:10188000B9F38833E9F68093700385ECB0C08035F6
:1018900009F485C0883509F496C0883489F60E9419
:1018A0008609CECF883909F48CC038F5883729F0FD
:1018B00050F4883611F0803719F683E08093720374
:1018C00010920F0357C0883809F47BC0803919F093
:1018D000803809F0B5CF80910F03803208F071C0D5
:1018E000E0910F0381E08E0F80930F038091BB0086
:1018F000F0E0E151FD4F80833DC0803B39F0E0F4E2
:10190000803A09F479C0883A09F09ACF84E080934C
:1019100072031092EE021092ED02E0911F03F0911B
:10192000200319958091ED0281110FC081E0809311
:10193000ED021092CD0209C0803C09F4A6CF883C8C
:1019400009F4A3CF883B09F07BCFE091EE0281E060
:101950008E0F8093EE02F0E0E353FD4F8081809381
:10196000BB009091EE028091ED0229C080914D0361
:101970008093BB0085EC8093BC0062CF90916F0395
:1019800080916E03981758F5E0916F0381E08E0FF8
:1019900080936F03F0E0E25BFC4F8081E9CFE09140
:1019A0006F0381E08E0F80936F038091BB00F0E0A6
:1019B000E25BFC4F808390916F0380916E039817D8
:1019C000C8F285E8D8CFE0916F0381E08E0F809355
:1019D0006F038091BB00F0E0E25BFC4F808380915D
:1019E000710381115CCF81E080934C0384EA809382
:1019F000BC001092720324CF85EC8093BC0010923F
:101A0000720380910F03803230F4E0910F03F0E015
:101A1000E151FD4F108260910F0370E0E0911D03D2
:101A2000F0911E038FEE92E0199510920F0308CFEC
:101A30001092700334CF1F920F920FB60F921124A1
:101A40000BB60F922F933F934F935F936F937F93B8
:101A50008F939F93AF93BF93EF93FF93E0911B03FB
:101A6000F0911C03309749F0A685B7858585968D42
:101A700091FF16C09C918923B1F4FF91EF91BF9122
:101A8000AF919F918F917F916F915F914F913F9116
:101A90002F910F900BBE0F900FBE0F901F901895B7
:101AA0009C91892351F7A389B4899C91858980955C
:101AB00089238C93868997890197F1F7608D718DC1
:101AC000A685B785558538E020E0CB010197F1F771
:101AD000822F90E095958795282F4C91452309F00A
:101AE0002068315091F7868D81FD209580911A03F1
:101AF00090E001968F73992730911903381799F068
:101B0000A0911A03B0E0A459BD4F2C9380931A03FF
:101B1000828D938D0197F1F7A389B4898C91958972
:101B2000892B8C93AACF868D8160868FF1CF1092FE
:101B30009F0310929E0388EE93E0A0E0B0E08093B4
:101B4000A0039093A103A093A203B093A30325E065
:101B500032E030939D0320939C0345E351E0509382
:101B6000A9034093A80344E351E05093AB0340938F
:101B7000AA0340E351E05093AD034093AC0341E32B
:101B800051E05093AF034093AE0342E351E05093D2
:101B9000B1034093B00346E351E05093B303409345
:101BA000B2031092B5031092B6031092B7031092CD
:101BB000B80310923C0410923B0480933D04909330
:101BC0003E04A0933F04B093400430933A04209322
:101BD000390445ED50E0509346044093450444EDEC
:101BE00050E0509348044093470440ED50E0509338
:101BF0004A044093490441ED50E050934C04409313
:101C00004B0442ED50E050934E0440934D0446ED9A
:101C100050E05093500440934F041092520410929D
:101C2000530410925404109255041092D904109247
:101C3000D8048093DA049093DB04A093DC04B0937F
:101C4000DD043093D7042093D6044DEC50E050933C
:101C5000E3044093E2044CEC50E05093E5044093DD
:101C6000E40448EC50E05093E7044093E60449EC68
:101C700050E05093E9044093E8044AEC50E050935C
:101C8000EB044093EA044EEC50E05093ED04409393
:101C9000EC041092EF041092F0041092F1041092F0
:101CA000F204109276051092750580937705909353
:101CB0007805A0937905B0937A0530937405209345
:101CC000730525EC30E03093800520937F0524ECEC
:101CD00030E0309382052093810520EC30E0309392
:101CE00084052093830521EC30E030938605209312
:101CF000850522EC30E0309388052093870526EC9B
:101D000030E030938A052093890510928C0510925B
:101D10008D0510928E0510928F0510921306109269
:101D200012068093140690931506A0931606B0939E
:101D3000170627E132E03093110620931006109227
:101D40001F0610921E068093200690932106A093F2
:101D50002206B093230689E292E090931D068093B9
:101D60001C0610923306109232061092350610921D
:101D700034061092370610923606109239061092E9
:101D8000380660913A066E7F6D7F60933A066695DD
:101D9000617081E068278BE00E940E0361E08BE0B8
:101DA0000E949A03E6E6F2E0E491E0932C06E0E27A
:101DB000F2E0E491F0E0EE0FFF1FE550FE4F859159
:101DC000949190932E0680932D0660E08AE00E9405
:101DD0009A0380913A0681FD04C061E08AE00E9486
:101DE0000E038AE080932806E5E6F2E0E491E093B2
:101DF0002906EFE1F2E0E491F0E0EE0FFF1FEF5172
:101E0000FE4F8591949190932B0680932A06089516
:101E1000CF93DF93CDB7DEB7EC970FB6F894DEBF64
:101E20000FBECDBF789484B5826084BD84B58160D7
:101E300084BD85B5826085BD85B5816085BD809195
:101E40006E00816080936E0010928100809181000D
:101E50008260809381008091810081608093810005
:101E6000809180008160809380008091B1008460C7
:101E70008093B1008091B00081608093B000809128
:101E800091008260809391008091910081608093A5
:101E90009100809190008160809390008091A100DA
:101EA00082608093A1008091A10081608093A10055
:101EB0008091A00081608093A000809121018260C8
:101EC0008093210180912101816080932101809183
:101ED000200181608093200180917A00846080934A
:101EE0007A0080917A00826080937A0080917A00F3
:101EF000816080937A0080917A00806880937A0074
:101F00001092C10083E795E00E94860186ED94E07F
:101F10000E94860189E394E00E9486018CE993E0A7
:101F20000E948601109237061092360610923506EE
:101F30001092340610923306109232068DE991E029
:101F400090933906809338068091280696EF980F73
:101F5000943048F02EEC280F243028F022EC280F83
:101F6000283008F061C02DEB30E030933306209329
:101F700032062BE931E030933506209334062CE20B
:101F800031E03093370620933606943050F02EEC33
:101F9000280F243030F022EC280FF0E0E0E0283069
:101FA00010F4E8E6F0E02081943028F032EC380FAD
:101FB000383008F4C0C131E0232B943048F09EEC57
:101FC000980F943028F08E53F0E0E0E0883010F461
:101FD000E8E6F0E020832091280636EF320F343017
:101FE00008F4ABC18EEC820F843008F4A6C182ECF9
:101FF000820F883008F4A4C190E080E0909330060E
:1020000080932F06343008F09EC12650330B81E0B8
:1020100001C0880F2A95EAF780933106809138062F
:10202000909139060197F1F7809136069091370625
:10203000892B49F1E0911B03F0911C0386E0EC3100
:10204000F80709F1309739F0A389B4899C91858903
:10205000809589238C9380913A068E7F80933A06EF
:1020600010921A03109219038CE196E090931C03CE
:1020700080931B03E0912F06F091300680819091B0
:102080003106892B808361E088E00E949A031092D8
:102090002203109221031092790310929B030E9455
:1020A000CB058DEA91E09093200380931F038EEA85
:1020B00091E090931E0380931D030E942C080EE371
:1020C00012E0CE0101967C0183E795E00E94260292
:1020D000892B09F446C00E9458080E94CB0383E76D
:1020E00095E00E94040280932B038AE392E00E9411
:1020F0005A0980912B030E94750980912B03082EA9
:10210000000C990BC0972091290330912A03820F6C
:10211000931F90932A0380932903209128032F93E0
:10212000209127032F93209126032F93209125039D
:102130002F93209124032F93209123032F939F9378
:102140008F931F930F93FF92EF920E940412C70187
:102150000E9467090E942C080FB6F894DEBF0FBEDC
:10216000CDBF86ED94E00E942602892B09F446C07B
:102170000E9458080E94CB0386ED94E00E9404025E
:1021800080932B0380E692E00E945A0980912B03F2
:102190000E94750980912B03082E000C990BC097A3
:1021A0002091230330912403820F931F90932403E3
:1021B00080932303209128032F93209127032F93AB
:1021C000209126032F93209125032F939F938F9384
:1021D00080912A038F93809129038F931F930F93EC
:1021E000FF92EF920E940412C7010E9467090E94A9
:1021F0002C080FB6F894DEBF0FBECDBF89E394E084
:102200000E942602892B09F446C00E9458080E94A9
:10221000CB0389E394E00E94040280932B0384E6BD
:1022200092E00E945A0980912B030E9475098091C7
:102230002B03082E000C990BC09720912503309199
:102240002603820F931F90932603809325032091EA
:1022500028032F93209127032F939F938F9380918F
:1022600024038F93809123038F9380912A038F936C
:10227000809129038F931F930F93FF92EF920E94F7
:102280000412C7010E9467090E942C080FB6F89437
:10229000DEBF0FBECDBF8CE993E00E942602892BE2
:1022A00009F446C00E9458080E94CB038CE993E0D1
:1022B0000E94040280932B0388E692E00E945A0950
:1022C00080912B030E94750980912B03082E000C2E
:1022D000990BC0972091270330912803820F931FF9
:1022E00090932803809327039F938F9380912603D5
:1022F0008F93809125038F93809124038F938091F6
:1023000023038F9380912A038F93809129038F93C6
:102310001F930F93FF92EF920E940412C7010E9435
:1023200067090E942C080FB6F894DEBF0FBECDBF20
:102330000E94E902C9CE34E03FCE8BE690E05ECE4B
:102340008DE690E05BCE88E0223309F465CE84E030
:10235000233309F461CE82E0243309F45DCE82ECAC
:10236000820F883018F42E53330B51CE81E054CEB7
:1023700089E292E090931D0680931C0680911B03D6
:1023800090911C038C51964071F4E0912F06F091CE
:102390003006908180913106809589238083109248
:1023A0001C0310921B03089597FB072E16F400944C
:1023B00007D077FD09D00E94F01107FC05D03EF44C
:1023C000909581959F4F0895709561957F4F0895E1
:1023D000EE0FFF1F881F8BBF0790F691E02D199419
:1023E000AA1BBB1B51E107C0AA1FBB1FA617B7073B
:1023F00010F0A61BB70B881F991F5A95A9F7809557
:102400009095BC01CD0108950F931F93CF93DF9357
:10241000CDB7DEB72E970FB6F894DEBF0FBECDBF97
:102420000E891F8986E08C831A8309838FEF9FE7CB
:102430009E838D83AE01465E5F4F688D798DCE01A0
:1024400001960E9434122F813885020F131FF80164
:1024500010822E960FB6F894DEBF0FBECDBFDF916F
:10246000CF911F910F9108952F923F924F925F92BB
:102470006F927F928F929F92AF92BF92CF92DF9294
:10248000EF92FF920F931F93CF93DF9300D000D072
:1024900000D01F921F92CDB7DEB77C013B018A01AD
:1024A000FC0117821682838181FFDDC1CE01019676
:1024B0005C01F7019381F30193FD859193FF819175
:1024C0003F01882309F453C1853239F493FD859186
:1024D00093FF81913F01853229F4B70190E00E947A
:1024E0004C14E7CF912C212C312CFFE1F31538F05F
:1024F0008B3211F190F4803209F1833229F137FCEB
:102500003CC020ED280F2A3050F536FE20C08AE06E
:10251000989E200D1124922E06C08D3291F08033AA
:1025200071F7689430F8F30193FD859193FF8191E1
:102530003F018111DACF21C0689431F8689432F8F4
:10254000F2CF689433F8EFCF689434F8ECCFEAE038
:102550002E9E200D1124222E689435F8E4CF8E3261
:1025600029F436FC04C1689436F8DDCF8C3619F4B2
:10257000689437F8D8CF8836B1F2982F9F7D95545C
:102580009330E0F08336A1F18337C1F1833509F050
:1025900063C02801F2E04F0E511CF801C080D180C9
:1025A000692D70E036FC02C06FEF7FEFC6010E941C
:1025B00036144C01689437F882010AC00C5F1F4F33
:1025C000FFE3F98388248394912C6501E89437F81C
:1025D00033FE2DC0522C8114910471F5552009F45D
:1025E00068CFB70180E290E00E944C145A94F6CF75
:1025F000F801808189830E5F1F4FE4CF2801F2E04C
:102600004F0E511CF801C080D180692D70E036FC5E
:1026100002C06FEF7FEFC6010E9441144C0182019E
:10262000D5CFB70180E290E00E944C142A94281480
:10263000190409F0B0F7CECFF60137FC859137FECB
:1026400081916F01B70190E00E944C1451105A948F
:10265000F1E08F1A9108BFCF843619F0893609F05E
:1026600077C0F80137FE6BC06081718182819381F0
:102670000C5F1F4FF32DFF763F2E97FF09C09095FB
:102680008095709561957F4F8F4F9F4F689437F875
:102690002AE030E0A5010E947C14C82ECA188C2CB8
:1026A000432C36FE0CC0E89440F8C91440F434FEC4
:1026B00005C032FC03C0F32DFE7E4F2E892C44FE54
:1026C000AAC0FE01EC0DF11D8081803309F09CC091
:1026D000242D297E422E842D8870582E43FCAAC0BA
:1026E00040FEA4C09C2C821418F42C0C922C981838
:1026F00044FEA6C0B70180E390E00E944C1442FE65
:1027000009C088E790E041FE02C088E590E0B7018B
:102710000E944C14C91408F49FC0CA94D12C9FEF96
:10272000C91AD90ACA0CDB1CF60182916F01B701E4
:1027300090E00E944C14AC14BD04B1F74FCF6081FF
:102740007181072E000C880B990B0E5F1F4F92CFE3
:10275000D32CE894D4F82AE030E08537E1F1232D3A
:10276000297FD22E8F36A9F1F0F4883551F1F70187
:10277000868197812B960FB6F894DEBF0FBECDBF32
:10278000DF91CF911F910F91FF90EF90DF90CF904D
:10279000BF90AF909F908F907F906F905F904F9081
:1027A0003F902F900895803749F0883701F7D4FE85
:1027B00002C06894D2F820E130E00DC06894D4F8EB
:1027C000F6CF34FE03C0822F8660D82E20E132E09F
:1027D00002C028E030E0F801D7FE0FC060817181AF
:1027E000828193810C5F1F4FA5010E947C14C82E2B
:1027F000CA183D2CE89437F852CF6081718190E07F
:1028000080E00E5F1F4FF0CF42FC02C0839463CF85
:102810008394839460CF842D867809F45CCFF6CFBF
:10282000B70180E290E00E944C1483948214C0F3BC
:10283000512C5ECF522C5818821408F459CFF8CF7F
:10284000842D867809F466CF8BE241FE80E247FC56
:102850008DE2B70190E05CCFB70180E390E00E9489
:102860004C149A9457CF8FEF9FEF84CFFC010590C3
:10287000615070400110D8F7809590958E0F9F1F82
:102880000895FC016150704001900110D8F78095C7
:1028900090958E0F9F1F08950F931F93CF93DF93F3
:1028A000182F092FEB018B8181FD09C01FEF0FEF5E
:1028B000812F902FDF91CF911F910F91089582FF6B
:1028C00014C02E813F818C819D81281739073CF4EB
:1028D000E881F981CF0101969983888310838E81E5
:1028E0009F8101969F838E83E3CFE885F985812FB1
:1028F0001995892BA1F3DACFFA01AA27283051F1D3
:10290000203181F1E8946F936E7F6E5F7F4F8F4F20
:102910009F4FAF4FB1E03ED0B4E03CD0670F781F7F
:10292000891F9A1FA11D680F791F8A1F911DA11D64
:102930006A0F711D811D911DA11D20D009F468949D
:102940003F912AE0269F11243019305D3193DEF645
:10295000CF010895462F4770405D4193B3E00FD0FB
:10296000C9F7F6CF462F4F70405D4A3318F0495DE6
:1029700031FD4052419302D0A9F7EACFB4E0A695C9
:102980009795879577956795BA95C9F700976105EB
:10299000710508959B01AC010A2E06945795479541
:1029A00037952795BA95C9F7620F731F841F951F36
:1029B000A01D089511E0C2E5D1E000E006C0802F1F
:1029C000FE010E94E8112196011DC335D10780E068
:0829D0000807A9F7F894FFCFF6
:1029D800FF000000007C02AF01F501C902260204D5
:1029E8000218020000000048071B072908F1061416
:1029F800070107F206000000009407AF012908F15B
:102A080006F00708087C070D0A00413A2000546FB9
:102A180074616C3A20413A2025642C20423A2025E2
:102A2800642C20433A2025642C20443A2025640055
:0C2A3800423A2000433A2000443A2000BB
:00000001FF
