:100000000C9425010C9446010C9446010C94460175
:100010000C9446010C9446010C9446010C94460144
:100020000C9446010C9446010C9446010C94460134
:100030000C9446010C94D4010C9446010C94460196
:100040000C9446010C9446010C9446010C94460114
:100050000C9446010C9446010C9446010C949902B0
:100060000C9446010C9446010C9446010C944601F4
:100070000C9446010C9446010C9446010C944601E4
:100080000C9446010C9446010C9446010C944601D4
:100090000C9446010C9446010C9446010C944601C4
:1000A0000C9446010C9446010C9446010C944601B4
:1000B0000C9446010C9446010C9446010C944601A4
:1000C0000C9446010C9446010C9446010C94460194
:1000D0000C9446010C9446010C9446010C94460184
:1000E0000C9446010C9474010C946C010C947001F6
:1000F0000C9493010C94A6010C9478010C94660165
:100100000C947B010C948F010C948B010C949D0139
:100110000C9481010C9499010C94A7010C94850115
:100120000C94AB010C94A1010000200023002600D8
:1001300029002C002F0032000001000003010601FD
:10014000090100000A0B02090C0D0E080703040147
:10015000000000000000000000000000000000009F
:10016000000000000000000000000000000012116C
:10017000100000000000000000000000000000006F
:100180000000000000000000000021002400270003
:100190002A002D0030003300010100000401070196
:1001A0000A01010210202008081020401020408081
:1001B000020102010804020101020408102040802B
:1001C00080402010080402018004020180402010B9
:1001D0000804020108040201010204081020408002
:1001E00001020408102040800000220025002800A1
:1001F0002B002E003100340002010000050108012F
:100200000B0105050505070508080808020202029A
:100210000A0A0808040404040101010101010101A2
:100220000303030303030303040707070C0C0C0C6D
:100230000C0C0C0C02020202060606060606060656
:100240000B0B0B0B0B0B0B0B020011241FBECFEF84
:10025000D1E2DEBFCDBF00E00CBF12E0A0E0B2E013
:10026000E8E1F1E100E00BBF02C007900D92AA3671
:10027000B107D9F722E0AAE6B2E001C01D92A33986
:10028000B207E1F70E94E3020C948A080C94000084
:100290008150823108F05AC0E82FF0E08827EC5AEC
:1002A000FE4F8F4F0C9458087401780166016C0161
:1002B0007001A6017B01810185018B018F019301F2
:1002C00099019D01A601A101A701AB0180918000C8
:1002D0008F77809380000895809180008F7DF9CF83
:1002E00080918000877FF5CF84B58F7784BD089596
:1002F00084B58F7DFBCF8091B0008F778093B00065
:1003000008958091B0008F7DF9CF809190008F7714
:10031000809390000895809190008F7DF9CF809117
:100320009000877FF5CF8091A0008F778093A00009
:1003300008958091A0008F7DF9CF8091A000877FE4
:10034000F5CF809120018F778093200108958091CF
:1003500020018F7DF9CF80912001877FF5CF3FB7B6
:10036000F89480916F0290917002A0917102B09107
:10037000720226B5A89B05C02F3F19F00196A11D5A
:10038000B11D3FBFBA2FA92F982F8827BC01CD01DF
:10039000620F711D811D911D42E0660F771F881F3E
:1003A000991F4A95D1F708951F920F920FB60F9299
:1003B00011240BB60F922F933F934F935F936F933C
:1003C0007F938F939F93AF93BF93CF93DF93EF93DD
:1003D000FF938091870290918802A0918902B09149
:1003E0008A02892B8A2B8B2BF1F190917602E09176
:1003F0007702F0917802808189278083809187023B
:1004000090918802A0918902B0918A02181619066B
:100410001A061B069CF48091870290918802A09195
:100420008902B0918A020197A109B10980938702DC
:1004300090938802A0938902B0938A02FF91EF9172
:10044000DF91CF91BF91AF919F918F917F916F91EC
:100450005F914F913F912F910F900BBE0F900FBE68
:100460000F901F90189520910002E8E4F2E0E491CB
:100470008FEF80930002E23009F43EC048F5EE238E
:1004800009F431C0E13009F431C030E0F901EE5B2C
:10049000FE4F8491F901EE55FE4FD491F901EE5FC4
:1004A000FD4FC491CC2309F4C9CF81110E944801AA
:1004B000EC2FF0E0EE0FFF1FE851FE4FA591B49135
:1004C0008FB7F894EC91D095DE23DC938FBFB6CF35
:1004D000E43049F110F1E530C1F6809173008D7F71
:1004E00080937300D2CF10926E00CFCF80916F00B7
:1004F0008D7F80936F00C9CF809170008D7F809336
:10050000700081E08093B0008091B100887F8460AA
:100510008093B1001092B300B8CF809171008D7FAD
:1005200080937100B2CF809172008D7F80937200B2
:10053000ACCF1F920F920FB60F9211242F933F93BF
:100540008F939F93AF93BF9380916B0290916C02B6
:10055000A0916D02B0916E0230916A0223E0230FE8
:100560002D3758F50196A11DB11D20936A02809385
:100570006B0290936C02A0936D02B0936E02809117
:100580006F0290917002A0917102B0917202019677
:10059000A11DB11D80936F0290937002A093710210
:1005A000B0937202BF91AF919F918F913F912F9124
:1005B0000F900FBE0F901F90189526E8230F0296FC
:1005C000A11DB11DD2CFCF93DF93CDB7DEB72D974D
:1005D0000FB6F894DEBF0FBECDBF789484B58260AD
:1005E00084BD84B5816084BD85B5826085BD85B5D7
:1005F000816085BD80916E00816080936E00109255
:1006000081008091810082608093810080918100CF
:100610008160809381008091800081608093800060
:100620008091B10084608093B1008091B0008160BE
:100630008093B000809191008260809391008091BE
:1006400091008160809391008091900081608093FF
:1006500090008091A10082608093A1008091A10010
:1006600081608093A1008091A00081608093A000B0
:10067000809121018260809321018091210181601C
:1006800080932101809120018160809320018091DD
:100690007A00846080937A0080917A0082608093EF
:1006A0007A0080917A00816080937A0080917A004C
:1006B000806880937A001092C100EAE4F1E08491AE
:1006C000EAEAF1E024912983EAE0F2E034913B8305
:1006D000332309F45FC381110E9448018B81E82F05
:1006E000F0E0EE0FFF1FE85DFE4FA591B491EC9195
:1006F00099819E2309F44EC3E5E3F2E0FA83E9838E
:1007000021E032E03A87298703EA11E023E0222E34
:1007100022E0322E89E692E0E981FA818E179F0766
:1007200009F438C361917191FA83E98388EE93E00B
:100730000E9403087C876B87E985FA8521913191B6
:10074000FA87E98738872F83809100022B01770F82
:1007500066087708813011F5E8E4F2E0F491FD874E
:10076000FD85F7FF88C0C301B2010E940A0726E693
:1007700036E646EA5FE30E946E070E94D2066B01EE
:10078000770FEE08FF080E94AF014B015C01C11416
:10079000D104E104F10409F0F1C2BCCF8F3F19F795
:1007A00021E020930002E8E4F2E0F491FD87FF3FAE
:1007B000D1F2F23009F42DC110F5FF2309F445C040
:1007C000F13071F6109280001092810080918100CA
:1007D0008860809381008091810081608093810096
:1007E000F1018491E82FF0E0EE0FFF1FE851FE4F7A
:1007F00085919491F8018491809379023CC02D8574
:10080000243009F446C108F425C1253009F0A8CFE9
:100810001092200110922101809121018860809323
:10082000210180912101816080932101F101849156
:10083000E82FF0E0EE0FFF1FE851FE4F85919491F5
:10084000F80184918093730216C014BC15BC84B562
:10085000826084BD85B5816085BDF1018491E82FFA
:10086000F0E0EE0FFF1FE851FE4F85919491F801E3
:10087000849180937A02F8014491F1018491882354
:1008800099F090E0880F991FFC01E857FE4FA59161
:10089000B491FC01E851FE4F259134918FB7F89443
:1008A0009C91492B4C938FBF2F8138854901B12CE6
:1008B000A12C60E072E18AE790E0A5010E9439086E
:1008C0002B833C834D835E8369017A0131E0C31A37
:1008D000D108E108F1088D858D7F09F074C18FEF93
:1008E000C816D104E104F10409F00CF43BC160E442
:1008F00072E48FE090E0A50194010E94390869013B
:100900007A0191E0C91AD108E108F108ED85E230D9
:1009100009F0DCC082E0FFEFCF16D104E104F1045E
:1009200009F00CF46FC060E970ED83E090E0A50180
:1009300094010E94390869017A0181E0C81AD1083E
:10094000E108F10883E09FEFC916D104E104F10446
:1009500009F00CF457C068E478EE81E090E0A5015E
:1009600094010E94390869017A0191E0C91AD108FD
:10097000E108F10884E0EFEFCE16D104E104F104C0
:1009800009F00CF43FC064E274EF80E090E0A50150
:1009900094010E94390869017A0181E0C81AD108DE
:1009A000E108F10885E09FEFC916D104E104F104E4
:1009B00049F140F162E17AE780E090E0A50194011D
:1009C0000E94390869017A01F1E0CF1AD108E108E3
:1009D000F10886E02FEFC216D104E104F10491F092
:1009E00088F0CB80DC80ED80FE808AE0F594E7948F
:1009F000D794C7948A95D1F781E0C81AD108E10845
:100A0000F10887E09091B100987F892B8093B10025
:100A1000B1C01092B0001092B1008091B00082601D
:100A20008093B0008091B10081608093B100F101AA
:100A30008491E82FF0E0EE0FFF1FE851FE4F859103
:100A400094919093780280937702F8018491809337
:100A5000760211CF10929000109291008091910037
:100A600088608093910080919100816080939100D3
:100A7000F1018491E82FF0E0EE0FFF1FE851FE4FE7
:100A800085919491F801849180937502F3E0FD873C
:100A9000F2CE1092A0001092A1008091A100886077
:100AA0008093A1008091A10081608093A100F10159
:100AB0008491E82FF0E0EE0FFF1FE851FE4F859183
:100AC0009491F801849180937402D5CEEFEFCE1605
:100AD000D104E104F10409F00CF473C068E478EE89
:100AE00081E090E0A50194010E94390869017A0132
:100AF000F1E0CF1AD108E108F1082D8584E0211139
:100B000052CF83E03FEFC316D104E104F10471F149
:100B10006CF162E17AE780E090E0A50194010E9427
:100B2000390869017A0191E0C91AD108E108F10890
:100B300084E0EFEFCE16D104E104F104B9F0B0F097
:100B4000CB80DC80ED80FE809AE0F594E794D7942A
:100B5000C7949A95D1F731E0C31AD108E108F1089A
:100B600085E004C081E0FD85F1114CCF95B5987FFB
:100B7000892B85BD2FEF3FEFA9014114510461047A
:100B8000710409F048C08D85823009F4D6C00CF09C
:100B9000BDC0882309F4C2C0813009F0E4CDD092F1
:100BA0008900C092880020938B0230938C0240937E
:100BB0008D0250938E0280916F00826080936F004F
:100BC000D2CD82E0D0CF91E0C114D10421E0E20681
:100BD000F10484F068E478EE81E090E0A5019401EE
:100BE0000E94390869017A0181E0C81AD108E10838
:100BF000F10893E0ED85E130E9F480918100887F90
:100C0000892B809381002FEF3FEFA90141145104FC
:100C10006104710421F22F813885220F331FAB85C7
:100C2000BC850E94600828EE33E040E050E00E945E
:100C30001708A9CFFD85F33001F580919100887FD9
:100C4000892B809391002FEF3FEFA90141145104AC
:100C50006104710401F7D0929900C092980020932A
:100C600083023093840240938502509386028091E0
:100C7000710082608093710076CD2D85243009F556
:100C80008091A100887F892B8093A1002FEF3FEFF7
:100C9000A901411451046104710409F0BCCFD09240
:100CA000A900C092A80020937F0230938002409355
:100CB0008102509382028091720082608093720060
:100CC00052CD3D85353009F055CF80912101887F87
:100CD000892B809321012FEF3FEFA901411451048B
:100CE0006104710409F097CFD0922901C0922801C4
:100CF00020937B0230937C0240937D0250937E02CE
:100D0000809173008260809373002DCD9D85943017
:100D100031F20CF4A0CF953039F325CDC7BC209328
:100D20008F023093900240939102509392028091EF
:100D30006E00826080936E0016CDC092B300209347
:100D40008702309388024093890250938A028091EF
:100D5000700082608093700006CDE1E0CE1AD10869
:100D6000E108F108F8EE8F0EF3E09F1EA11CB11C04
:100D7000C114D104E104F10409F409CD0E94AF01CA
:100D8000681979098A099B09683E734081059105B4
:100D900020F7FDCC80E090E0892B09F48ECC0E94F6
:100DA00000008BCC0E94D9066894B1110C9468079E
:100DB00008950E944D0788F09F5798F0B92F992702
:100DC000B751B0F0E1F0660F771F881F991F1AF036
:100DD000BA95C9F714C0B13091F00E946707B1E02D
:100DE00008950C946707672F782F8827B85F39F02C
:100DF000B93FCCF3869577956795B395D9F73EF4CF
:100E000090958095709561957F4F8F4F9F4F089576
:100E1000E89409C097FB3EF4909580957095619594
:100E20007F4F8F4F9F4F9923A9F0F92F96E9BB274A
:100E30009395F695879577956795B795F111F8CFC6
:100E4000FAF4BB0F11F460FF1BC06F5F7F4F8F4F31
:100E50009F4F16C0882311F096E911C0772321F027
:100E60009EE8872F762F05C0662371F096E8862FBF
:100E700070E060E02AF09A95660F771F881FDAF716
:100E8000880F9695879597F9089557FD9058440FC8
:100E9000551F59F05F3F71F04795880F97FB991FD9
:100EA00061F09F3F79F08795089512161306140696
:100EB000551FF2CF4695F1DF08C016161706180623
:100EC000991FF1CF86957105610508940895E894FE
:100ED000BB2766277727CB0197F908950E948107E2
:100EE0000C94F2070E94E40738F00E94EB0720F010
:100EF000952311F00C94DB070C94E10711240C945A
:100F000068070E94450770F3959FC1F3950F50E065
:100F1000551F629FF001729FBB27F00DB11D639FAB
:100F2000AA27F00DB11DAA1F649F6627B00DA11D51
:100F3000661F829F2227B00DA11D621F739FB00DF7
:100F4000A11D621F839FA00D611D221F749F332767
:100F5000A00D611D231F849F600D211D822F762F00
:100F60006A2F11249F5750409AF0F1F088234AF0DD
:100F7000EE0FFF1FBB1F661F771F881F9150504049
:100F8000A9F79E3F510580F00C94DB070C9468078D
:100F90005F3FE4F3983ED4F3869577956795B795D0
:100FA000F795E7959F5FC1F7FE2B880F911D9695EA
:100FB000879597F9089597F99F6780E870E060E05A
:100FC00008959FEF80EC089500240A9416161706E2
:100FD00018060906089500240A941216130614062A
:100FE00005060895092E0394000C11F4882352F08D
:100FF000BB0F40F4BF2B11F460FF04C06F5F7F4F45
:101000008F4F9F4F089597FB072E16F4009407D03B
:1010100077FD09D00E94670807FC05D03EF4909543
:1010200081959F4F0895709561957F4F0895A1E236
:101030001A2EAA1BBB1BFD010DC0AA1FBB1FEE1F52
:10104000FF1FA217B307E407F50720F0A21BB30B9D
:10105000E40BF50B661F771F881F991F1A9469F719
:1010600060957095809590959B01AC01BD01CF0175
:101070000895052E97FB1EF400940E94500857FD1A
:1010800007D00E94170807FC03D04EF40C945008B8
:1010900050954095309521953F4F4F4F5F4F0895A4
:1010A00090958095709561957F4F8F4F9F4F0895D4
:1010B000EE0FFF1F881F8BBF0790F691E02D19944C
:1010C0000E947B08B7FF0895821B930B0895AA1B0B
:1010D000BB1B51E107C0AA1FBB1FA617B70710F023
:1010E000A61BB70B881F991F5A95A9F78095909555
:1010F000BC01CD010895A29FB001B39FC001A39F81
:10110000700D811D1124911DB29F700D811D112440
:08111000911D0895F894FFCF32
:10111800FF930293029302930293029302930210A5
:10112800030B024B029302BA02BA02BA02BA02BA1B
:1011380002930293029302930293024B024B02938F
:10114800024B021003040004000200040004000221
:10115800000400040001000800010004000400016C
:10116800000800040004000400080008000400044B
:0A1178000004000400020002000061
:00000001FF
