:100000000C9428010C9459010C9459010C94590139
:100010000C9459010C9459010C9459010C945901F8
:100020000C9459010C9459010C9459010C945901E8
:100030000C9459010C9459010C9459010C945901D8
:100040000C9459010C9459010C9459010C945901C8
:100050000C9459010C9459010C9459010C94A1046D
:100060000C9459010C9459010C9459010C945901A8
:100070000C9459010C9459010C9459010C94590198
:100080000C9459010C9459010C9459010C94590188
:100090000C9459010C9459010C9459010C94590178
:1000A0000C9459010C9459010C9459010C94590168
:1000B0000C9459010C9459010C9459010C94590158
:1000C0000C9459010C9459010C9459010C94590148
:1000D0000C9459010C9459010C946B040C94410438
:1000E0000C9459010C942A030C94CA010C947A01C3
:1000F0000C9401030C940A030C94F9020C94300341
:100100000C94F5020C940E030C9426030C94A70196
:100110000C9459060C9410020C945D020C94180374
:100120000C9414030C94E3020C9404030C94B60195
:100130000C9434030C9422030C94DE020C941C03E4
:100140000C94FD020C94D80100000A0B02090C0D5E
:100150000E0807030401000000000000000000007A
:10016000000000000000000000000000000000008F
:10017000000000001211100000000000000000004C
:10018000000000000000000000000000000000006F
:100190002200250028002B002E003100340002012F
:1001A0000000050108010B010000210024002700C8
:1001B0002A002D0030003300010100000401070176
:1001C0000A010505050507050808080802020202DC
:1001D0000A0A0808040404040101010101010101E3
:1001E0000303030303030303040707070C0C0C0CAE
:1001F0000C0C0C0C02020202060606060606060697
:100200000B0B0B0B0B0B0B0B010210202008081023
:100210002040102040800201020108040201010276
:10022000040810204080804020100804020180044F
:1002300002018040201008040201080402010102AA
:100240000408102040800102040810204080590654
:1002500011241FBECFEFD1E2DEBFCDBF00E00CBF47
:1002600012E0A0E0B2E0EEECFDE000E00BBF02C067
:1002700007900D92AC32B107D9F722E0ACE2B2E0C0
:1002800001C01D92AB3DB207E1F711E0C8E2D1E039
:1002900000E006C021970109802FFE010E94D606CA
:1002A000C732D10780E00807A9F70E94EB040C943D
:1002B000E5060C94000090E0FC01E85FFD4F2491FE
:1002C0008E539E4FFC018491882399F090E0880F13
:1002D000991FFC01E855FE4FA591B491FC01E2572E
:1002E000FE4F859194918FB7F894EC91E22BEC93AB
:1002F0008FBF0895AF92BF92CF92DF92EF92FF929D
:100300000F931F93CF93DF936C017B018B01040F3D
:10031000151FEB015E01AE18BF08C017D10759F0D9
:100320006991D601ED91FC910190F081E02DC6011B
:100330001995892B79F7C501DF91CF911F910F9105
:10034000FF90EF90DF90CF90BF90AF900895FC01A9
:10035000538D448D252F30E0842F90E0821B930B2A
:10036000541710F0CF96089501970895FC01918DD0
:10037000828D981761F0A28DAE0FBF2FB11D5D96D3
:100380008C91928D9F5F9F73928F90E008958FEF75
:100390009FEF0895FC01918D828D981731F0828D29
:1003A000E80FF11D858D90E008958FEF9FEF089580
:1003B000FC01918D228D892F90E0805C9F4F821BE4
:1003C00091098F73992708958EE392E00E94D801D6
:1003D00021E0892B09F420E0822F0895FC01A48DEF
:1003E000A80FB92FB11DA35ABF4F2C91848D90E057
:1003F00001968F739927848FA689B7892C93A0893A
:10040000B1898C91837080648C93938D848D9813C3
:1004100006C00288F389E02D80818F7D8083089556
:10042000EF92FF920F931F93CF93DF93EC0181E044
:10043000888F9B8D8C8D98131AC0E889F9898081EB
:1004400085FF15C09FB7F894EE89FF896083E8891E
:10045000F98980818370806480839FBF81E090E010
:10046000DF91CF911F910F91FF90EF900895F62E9D
:100470000B8D10E00F5F1F4F0F731127E02E8C8D37
:100480008E110CC00FB607FCFACFE889F98980817C
:1004900085FFF5CFCE010E94EE01F1CFEB8DEC0F81
:1004A000FD2FF11DE35AFF4FF0829FB7F8940B8F99
:1004B000EA89FB8980818062CFCFCF93DF93EC0103
:1004C000888D8823B9F0AA89BB89E889F9898C913C
:1004D00085FD03C0808186FD0DC00FB607FCF7CFF8
:1004E0008C9185FFF2CF808185FFEDCFCE010E94F8
:1004F000EE01E9CFDF91CF91089580E090E0892B64
:1005000049F080E090E0892B29F00E9400008111E1
:100510000E94000080E090E0892B49F080E090E0AC
:10052000892B29F00E94000081110E94000080E0C8
:1005300090E0892B49F080E090E0892B29F00E941F
:10054000000081110E94000080E090E0892B29F0DA
:100550000E94E40181110C9400000895282F30E0DE
:10056000F901E85BFE4F9491F901E85FFD4F44917A
:100570002E533E4FF9012491222309F435C09923CB
:1005800011F191509231F8F4E92FF0E08827E4530B
:10059000FD4F8F4F0C94D606FD020103DE02F502DB
:1005A000F902E30204030A030E03140318031C03F5
:1005B00022032603E3022A033003340380918000E0
:1005C0008F7780938000E22FF0E0EE0FFF1FE2575D
:1005D000FE4FA591B4918FB7F894EC91611148C08A
:1005E00040954E234C938FBF0895809180008F7D5E
:1005F000E8CF80918000877FE4CF84B58F7784BD7A
:10060000E2CF84B58F7DFBCF8091B0008F77809350
:10061000B000D9CF8091B0008F7DF9CF809190004C
:100620008F7780939000CFCF809190008F7DF9CF0E
:1006300080919000877FF5CF8091A0008F77809385
:10064000A000C1CF8091A0008F7DF9CF8091A00044
:10065000877FF5CF809120018F7780932001B3CFE2
:10066000809120018F7DF9CF80912001877FF5CF88
:100670004E2BB8CF90917B00977F90937B00865351
:10068000806480937C0080917A00806480937A00FB
:1006900080917A0086FDFCCF80917800909179005E
:1006A00008953FB7F8948091310290913202A09161
:1006B0003302B091340226B5A89B05C02F3F19F034
:1006C0000196A11DB11D3FBFBA2FA92F982F8827D2
:1006D000BC01CD01620F711D811D911D42E0660FAD
:1006E000771F881F991F4A95D1F708958F929F927F
:1006F000AF92BF92CF92DF92EF92FF924B015C01DB
:100700000E9451036B017C010E9451036C197D0909
:100710008E099F09683E734081059105A8F321E089
:10072000821A9108A108B10888EEC80E83E0D81E8D
:10073000E11CF11C81149104A104B10429F7FF907C
:10074000EF90DF90CF90BF90AF909F908F900895E3
:100750008EBD00000DB407FEFDCF8EB50895FC01DF
:1007600001900020E9F73197AF01481B590BBC01FC
:100770008EE392E00C947A018F929F92AF92BF9297
:10078000CF92DF92EF92FF920F931F93CF93DF935D
:10079000CDB7DEB7A1970FB6F894DEBF0FBECDBFC1
:1007A0006C01990FEE08FF08F7FE47C06DE28EE37B
:1007B00092E00E9410028C0122273327A9012C19F4
:1007C0003D094E095F0919A2CE0181967C019AE08C
:1007D000892E912CA12CB12CCA01B901A50194013B
:1007E0000E94A506605DF70162937F012115310526
:1007F0004105510589F790E080E0309719F0CF016D
:100800000E94AF03080F191F82E192E00E94AF031C
:10081000800F911FA1960FB6F894DEBF0FBECDBF1B
:10082000DF91CF911F910F91FF90EF90DF90CF90CC
:10083000BF90AF909F908F900895A701960119A245
:100840008E010F5D1F4F8AE0C82ED12CE12CF12CB8
:10085000CA01B901A70196010E94A506605DF801D1
:1008600062938F01211531054105510589F73097B4
:1008700029F0CF010E94AF038C01C6CF10E000E049
:10088000C3CF1F920F920FB60F9211240BB60F9287
:100890002F933F934F935F936F937F938F939F9388
:1008A000AF93BF93EF93FF938EE392E00E94EE012C
:1008B000FF91EF91BF91AF919F918F917F916F9138
:1008C0005F914F913F912F910F900BBE0F900FBEF4
:1008D0000F901F9018951F920F920FB60F92112430
:1008E0000BB60F922F938F939F93EF93FF93E0910B
:1008F0004E02F0914F028081E0915402F091550236
:1009000082FD1DC09081809157028F5F8F7320916F
:100910005802821741F0E0915702F0E0E25CFD4F8F
:10092000958F80935702FF91EF919F918F912F9117
:100930000F900BBE0F900FBE0F901F9018958081E7
:10094000F2CF1F920F920FB60F9211242F933F9365
:100950008F939F93AF93BF9380912D0290912E021E
:10096000A0912F02B091300230912C0223E0230F8E
:100970002D3758F50196A11DB11D20932C028093AF
:100980002D0290932E02A0932F02B09330028091FB
:10099000310290913202A0913302B091340201965B
:1009A000A11DB11D8093310290933202A0933302B6
:1009B000B0933402BF91AF919F918F913F912F914E
:1009C0000F900FBE0F901F90189526E8230F0296E8
:1009D000A11DB11DD2CF789484B5826084BD84B549
:1009E000816084BD85B5826085BD85B5816085BD2A
:1009F00080916E00816080936E00109281008091E2
:100A00008100826080938100809181008160809369
:100A10008100809180008160809380008091B1008E
:100A200084608093B1008091B00081608093B000B9
:100A3000809191008260809391008091910081600B
:100A400080939100809190008160809390008091CC
:100A5000A10082608093A1008091A10081608093B9
:100A6000A1008091A00081608093A000809121016D
:100A70008260809321018091210181608093210116
:100A80008091200181608093200180917A008460B0
:100A900080937A0080917A00826080937A008091BE
:100AA0007A00816080937A0080917A0080688093D8
:100AB0007A001092C100E0914E02F0914F0282E064
:100AC0008083E0914A02F0914B021082E0914C0247
:100AD000F0914D028FEC808310925602E091520209
:100AE000F091530286E08083E0915002F091510230
:100AF000808180618083E0915002F0915102808179
:100B000088608083E0915002F0915102808180687A
:100B10008083E0915002F091510280818F7D80832B
:100B20008DE20E945B018EE20E945B0161E08DE23A
:100B30000E94AE0261E08EE20E94AE02CFB7F8944E
:100B400080913502811124C0E7EFF1E08491EDE35B
:100B5000F2E09491E82FF0E0EE0FFF1FE855FE4F12
:100B6000A591B491EC91E92321F461E085E30E9421
:100B7000AE0285E30E945B018CB580618CBD8CB5B3
:100B800080648CBD84E30E945B0183E30E945B016F
:100B9000809135028F5F80933502CFBF8CB58C7FFB
:100BA00081608CBD8DB581608DBD84E3C82EDD2450
:100BB000D394E12CF12C86E30E943A0390933D02FA
:100BC00080933C0287E30E943A0326E930E0DC018F
:100BD0000E94DE06A70196010E94860630933B0222
:100BE00020933A0285E192E00E94AF0380913A029D
:100BF00090913B020E94BC038FE192E00E94AF0300
:100C000080913C0290913D020E94BC0300913C0205
:100C100010913D020093380210933902D0913A02AC
:100C2000C0913B02D0933602C093370260E08DE260
:100C30000E94AE026AE070E080E090E00E947603DD
:100C4000802F0E94A803812F0E94A8036AE070E011
:100C500080E090E00E94760361E08DE20E94AE02A7
:100C600064EF71E080E090E00E94760360E08EE245
:100C70000E94AE026AE070E080E090E00E9476039D
:100C80008D2F0E94A8038C2F0E94A8036AE070E0B9
:100C900080E090E00E94760361E08EE20E94AE0266
:100CA00068EC70E080E090E00E9476030E947D0294
:100CB00082CFEEE3F2E01382128288EE93E0A0E0AE
:100CC000B0E084839583A683B78384E092E0918328
:100CD000808385E391E09587848784E391E097871B
:100CE000868780E391E0918B808B81E391E0938B09
:100CF000828B82E391E0958B848B86E391E0978BE6
:100D0000868B118E128E138E148E0895052E97FBEE
:100D10001EF400940E949D0657FD07D00E94A50670
:100D200007FC03D04EF40C949D06509540953095E9
:100D300021953F4F4F4F5F4F089590958095709547
:100D400061957F4F8F4F9F4F0895A1E21A2EAA1BE6
:100D5000BB1BFD010DC0AA1FBB1FEE1FFF1FA2176B
:100D6000B307E407F50720F0A21BB30BE40BF50B68
:100D7000661F771F881F991F1A9469F760957095F1
:100D8000809590959B01AC01BD01CF010895A29F74
:100D9000B001B39FC001A39F700D811D1124911D4F
:100DA000B29F700D811D1124911D0895EE0FFF1F3C
:100DB000881F8BBF0790F691E02D19940E94C706FB
:0E0DC000B7FF0895821B930B0895F894FFCFA0
:100DCE000000000010027A01A7015D02D801B601F1
:100DDE00CA010D0A0053656E736F72203D200052DA
:0C0DEE0065736973746F72203D20000073
:00000001FF
