:100000000C94E3000C9414010C9414010C9414014E
:100010000C9414010C9414010C9414010C9414010C
:100020000C9414010C9414010C9414010C941401FC
:100030000C9414010C9414010C9414010C941401EC
:100040000C9414010C9414010C9414010C941401DC
:100050000C9414010C9414010C9414010C94570288
:100060000C9401030C9414010C9414010C941401CD
:100070000C9414010C9414010C9414010C941401AC
:100080000C9414010C9414010C9414010C9414019C
:100090000C9414010C9414010C9414010C9414018C
:1000A0000C9414010C9414010C9414010C9414017C
:1000B0000C9414010C9414010C9414010C9414016C
:1000C0000C9414010C9414010C9414010C9414015C
:1000D0000C9414010C9414010C94CB020C94A10206
:1000E0000C9414010C9416010C9466010C944301B9
:1000F0000C94AC010C9452010C9474010C946104A6
:100100000C94F90100002200250028002B002E008D
:100110003100340002010000050108010B0100005C
:100120002100240027002A002D00300033000101A7
:100130000000040107010A01050505050705080877
:100140000808020202020A0A080804040404010161
:100150000101010101010303030303030303040776
:1001600007070C0C0C0C0C0C0C0C0202020206060D
:100170000606060606060B0B0B0B0B0B0B0B010200
:1001800010202008081020401020408002010201A9
:100190000804020101020408102040808040201061
:1001A00008040201800402018040201008040201BA
:1001B0000804020101020408102040800102040822
:1001C00010204080610411241FBECFEFD1E2DEBFBA
:1001D000CDBF00E00CBF12E0A0E0B2E0E4E7F9E040
:1001E00000E00BBF02C007900D92A631B107D9F70E
:1001F00022E0A6E1B2E001C01D92A33CB207E1F704
:1002000010E0C3EED0E000E006C021970109802F86
:10021000FE010E94B004C23ED10780E00807A9F7A2
:100220000E9429030C94B8040C940000AF92BF9272
:10023000CF92DF92EF92FF920F931F93CF93DF93B2
:100240006C017B018B01040F151FEB015E01AE18E1
:10025000BF08C017D10759F06991D601ED91FC9103
:100260000190F081E02DC6011995892B79F7C50120
:10027000DF91CF911F910F91FF90EF90DF90CF9082
:10028000BF90AF900895FC01538D448D252F30E031
:10029000842F90E0821B930B541710F0CF96089593
:1002A00001970895FC01918D828D981761F0A28DC0
:1002B000AE0FBF2FB11D5D968C91928D9F5F9F7386
:1002C000928F90E008958FEF9FEF0895FC01918D3C
:1002D000828D981731F0828DE80FF11D858D90E0A9
:1002E00008958FEF9FEF0895FC01918D228D892F46
:1002F00090E0805C9F4F821B91098F73992708952E
:1003000086E292E00E94740121E0892B09F420E04A
:10031000822F0895FC01A48DA80FB92FB11DA35AF7
:10032000BF4F2C91848D90E001968F739927848F15
:10033000A689B7892C93A089B1898C918370806438
:100340008C93938D848D981306C00288F389E02DD9
:1003500080818F7D80830895EF92FF920F931F938A
:10036000CF93DF93EC0181E0888F9B8D8C8D981368
:100370001AC0E889F989808185FF15C09FB7F89474
:10038000EE89FF896083E889F989808183708064C0
:1003900080839FBF81E090E0DF91CF911F910F910B
:1003A000FF90EF900895F62E0B8D10E00F5F1F4F1A
:1003B0000F731127E02E8C8D8E110CC00FB607FC29
:1003C000FACFE889F989808185FFF5CFCE010E94B7
:1003D0008A01F1CFEB8DEC0FFD2FF11DE35AFF4F9A
:1003E000F0829FB7F8940B8FEA89FB898081806245
:1003F000CFCFCF93DF93EC01888D8823B9F0AA8902
:10040000BB89E889F9898C9185FD03C0808186FDCF
:100410000DC00FB607FCF7CF8C9185FFF2CF80811E
:1004200085FFEDCFCE010E948A01E9CFDF91CF9108
:10043000089580E090E0892B49F080E090E0892BDE
:1004400029F00E94000081110E94000080E090E0ED
:10045000892B49F080E090E0892B29F00E94000070
:1004600081110E94000080E090E0892B49F080E03B
:1004700090E0892B29F00E94000081110E94000069
:1004800080E090E0892B29F00E94800181110C947A
:1004900000000895FC0101900020E9F73197AF01B9
:1004A000481B590BBC0186E292E00C9416011F9286
:1004B0000F920FB60F9211242F933F938F939F9318
:1004C000AF93BF938091220290912302A0912402C6
:1004D000B09125023091210223E0230F2D3758F5EA
:1004E0000196A11DB11D20932102809322029093B9
:1004F0002302A0932402B093250280911D029091C3
:100500001E02A0911F02B09120020196A11DB11DF3
:1005100080931D0290931E02A0931F02B0932002AD
:10052000BF91AF919F918F913F912F910F900FBEEF
:100530000F901F90189526E8230F0296A11DB11D5C
:10054000D2CF1F920F920FB60F9211240BB60F92BB
:100550002F933F934F935F936F937F938F939F93CB
:10056000AF93BF93EF93FF9386E292E00E948A01DC
:10057000FF91EF91BF91AF919F918F917F916F917B
:100580005F914F913F912F910F900BBE0F900FBE37
:100590000F901F9018951F920F920FB60F92112473
:1005A0000BB60F922F938F939F93EF93FF93E0914E
:1005B0003602F09137028081E0913C02F0913D02D9
:1005C00082FD1DC0908180913F028F5F8F732091CB
:1005D0004002821741F0E0913F02F0E0EA5DFD4FFA
:1005E000958F80933F02FF91EF919F918F912F9173
:1005F0000F900BBE0F900FBE0F901F90189580812B
:10060000F2CF1F920F920FB60F9211240BB60F92DA
:100610008F939F93EF93FF939EB5E0911602E23084
:1006200068F481E08E0F80931602F0E0E95EFD4FE2
:100630009083823019F481E080931C02FF91EF9146
:100640009F918F910F900BBE0F900FBE0F901F9038
:100650001895CF93DF93CDB7DEB7A1970FB6F89477
:10066000DEBF0FBECDBF789484B5826084BD84B5F3
:10067000816084BD85B5826085BD85B5816085BD9D
:1006800080916E00816080936E0010928100809155
:1006900081008260809381008091810081608093DD
:1006A0008100809180008160809380008091B10002
:1006B00084608093B1008091B00081608093B0002D
:1006C000809191008260809391008091910081607F
:1006D0008093910080919000816080939000809140
:1006E000A10082608093A1008091A100816080932D
:1006F000A1008091A00081608093A00080912101E1
:100700008260809321018091210181608093210189
:100710008091200181608093200180917A00846023
:1007200080937A0080917A00826080937A00809131
:100730007A00816080937A0080917A00806880934B
:100740007A001092C100E0913602F091370282E007
:100750008083E0913202F09133021082E091340202
:10076000F09135028FEC808310923E02E0913A02C4
:10077000F0913B0286E08083E0913802F0913902EB
:10078000808180618083E0913802F091390280811C
:1007900088608083E0913802F0913902808180681E
:1007A0008083E0913802F091390280818F7D8083CF
:1007B000E1EBF1E02491EBE6F1E084918823C9F0CC
:1007C00090E0880F991FFC01E25EFE4F4591549125
:1007D000FC01EC5FFE4FA591B4919FB7F894FA012C
:1007E0003081822F809583238083EC91E22BEC93E0
:1007F0009FBF8CB580648CBD8CB580688CBD8CB57A
:1008000080688CBD3AE0C32ED12CE12CF12C809174
:100810001C028823E9F110921C028091180290E0DA
:10082000982F882720911702820F911D4C01092EC5
:10083000000CAA08BB0897FF2EC06DE286E292E08A
:100840000E94AC0122273327A901281939094A0936
:100850005B0919A28E010F5D1F4FCA01B901A701E3
:1008600096010E948E04605DF80162938F0121154C
:1008700031054105510589F70115110519F0C80128
:100880000E944A0282E192E00E944A0210921602FD
:100890000E941902BCCFA501940119A28E010F5D1F
:1008A0001F4FCA01B901A70196010E948E04605D25
:1008B000F80162938F01211531054105510589F732
:1008C000DBCFE6E2F2E01382128288EE93E0A0E052
:1008D000B0E084839583A683B78384E092E091831C
:1008E000808385E391E09587848784E391E097870F
:1008F000868780E391E0918B808B81E391E0938BFD
:10090000828B82E391E0958B848B86E391E0978BD9
:10091000868B118E128E138E148E0895A1E21A2EDC
:10092000AA1BBB1BFD010DC0AA1FBB1FEE1FFF1F93
:10093000A217B307E407F50720F0A21BB30BE40BE3
:10094000F50B661F771F881F991F1A9469F760952A
:100950007095809590959B01AC01BD01CF010895E4
:10096000EE0FFF1F881F8BBF0790F691E02D1994A3
:04097000F894FFCF29
:1009740000000000AC0116014301F90174015201A9
:0609840066010D0A0000EF
:00000001FF
