:100000000C942B010C945C010C945C010C945C012D
:100010000C945C010C945C010C945C010C945C01EC
:100020000C945C010C945C010C945C010C945C01DC
:100030000C945C010C945C010C945C010C945C01CC
:100040000C945C010C94B2050C945C010C945C0162
:100050000C945C010C945C010C945C010C94DE0427
:100060000C945C010C94A8040C947E040C945C0128
:100070000C945C010C945C010C945C010C945C018C
:100080000C9484050C945C010C945C010C945C0150
:100090000C945C010C945C010C945C010C945C016C
:1000A0000C945C010C945C010C9456050C945C015E
:1000B0000C945C010C945C010C945C010C9428057C
:1000C0000C945C010C945C010C945C010C945C013C
:1000D0000C945C010C945C010C945C010C945C012C
:1000E0000C945C010C94CC020C94BC010C940503A0
:1000F0000C94ED020C949A010C9419030C945E017B
:100100000C94AE010C948B010C941D030C944602CC
:100110000C94FD020C9401030C94F7020C94E6027B
:100120000C9413030C94F3020C9403090C94C7026F
:100130000C94EA020C940B030C94F4010C940F033E
:100140000C94E2020C94E0050C94DE0200000A0B11
:1001500002090C0D0E080703040100000000000056
:10016000000000000000000000000000000000008F
:10017000000000000000000012111000000000004C
:10018000000000000000000000000000000000006F
:10019000000000002200250028002B002E00310066
:1001A000340002010000050108010B0100002100DC
:1001B000240027002A002D00300033000101000038
:1001C000040107010A0105050505070508080808D7
:1001D000020202020A0A08080404040401010101DF
:1001E00001010101030303030303030304070707DA
:1001F0000C0C0C0C0C0C0C0C02020202060606067F
:10020000060606060B0B0B0B0B0B0B0B010210204B
:10021000200808102040102040800201020108043C
:1002200002010102040810204080804020100804D0
:100230000201800402018040201008040201080429
:10024000020101020408102040800102040810206D
:100250004080E005030911241FBECFEFD1E2DEBFCD
:10026000CDBF00E00CBF12E0A0E0B2E0E8E3F8E1AF
:1002700000E00BBF02C007900D92AE31B107D9F775
:1002800023E0AEE1B2E001C01D92A836B207E1F76B
:1002900011E0CAE2D1E000E006C021970109802FF9
:1002A000FE010E94EC09C932D10780E00807A9F7D6
:1002B0000E946E060C940A0C0C940000AF92BF9240
:1002C000CF92DF92EF92FF920F931F93CF93DF9322
:1002D0006C017B018B01040F151FEB015E01AE1851
:1002E000BF08C017D10759F06991D601ED91FC9173
:1002F0000190F081E02DC6011995892B79F7C50190
:10030000DF91CF911F910F91FF90EF90DF90CF90F1
:10031000BF90AF900895FC01538D448D252F30E0A0
:10032000842F90E0821B930B541710F0CF96089502
:1003300001970895FC01918D828D981761F0A28D2F
:10034000AE0FBF2FB11D5D968C91928D9F5F9F73F5
:10035000928F90E008958FEF9FEF0895FC01918DAB
:10036000828D981731F0828DE80FF11D858D90E018
:1003700008958FEF9FEF0895FC01918D228D892FB5
:1003800090E0805C9F4F821B91098F73992708959D
:100390008DE292E00E94BC0121E0892B09F420E06B
:1003A000822F0895FC01A48DA80FB92FB11DA35A67
:1003B000BF4F2C91848D90E001968F739927848F85
:1003C000A689B7892C93A089B1898C9183708064A8
:1003D0008C93938D848D981306C00288F389E02D49
:1003E00080818F7D80830895EF92FF920F931F93FA
:1003F000CF93DF93EC0181E0888F9B8D8C8D9813D8
:100400001AC0E889F989808185FF15C09FB7F894E3
:10041000EE89FF896083E889F9898081837080642F
:1004200080839FBF81E090E0DF91CF911F910F917A
:10043000FF90EF900895F62E0B8D10E00F5F1F4F89
:100440000F731127E02E8C8D8E110CC00FB607FC98
:10045000FACFE889F989808185FFF5CFCE010E9426
:10046000D201F1CFEB8DEC0FFD2FF11DE35AFF4FC1
:10047000F0829FB7F8940B8FEA89FB8980818062B4
:10048000CFCF60E28DE292E00C94F401CF93DF9342
:10049000EC01888D8823B9F0AA89BB89E889F9899C
:1004A0008C9185FD03C0808186FD0DC00FB607FCD1
:1004B000F7CF8C9185FFF2CF808185FFEDCFCE0104
:1004C0000E94D201E9CFDF91CF91089580E090E0C2
:1004D000892B29F00E94C80181110E94000080E050
:1004E00090E0892B49F080E090E0892B29F00E9470
:1004F000000081110E94000080E090E0892B49F00B
:1005000080E090E0892B29F00E94000081110E9478
:10051000000080E090E0892B49F080E090E0892B9A
:1005200029F00E94000081110C9400000895282FEA
:1005300030E0F901E45BFE4F9491F901E45FFD4F77
:1005400044912A533E4FF9012491222309F435C0E6
:10055000992311F191509231F8F4E92FF0E08827B6
:10056000EB54FD4F8F4F0C94EC09E602EA02C702F0
:10057000DE02E202CC02ED02F302F702FD02010309
:1005800005030B030F03CC02130319031D03809112
:1005900080008F7780938000E22FF0E0EE0FFF1F46
:1005A000EE56FE4FA591B4918FB7F894EC9161117E
:1005B00048C040954E234C938FBF08958091800092
:1005C0008F7DE8CF80918000877FE4CF84B58F77DF
:1005D00084BDE2CF84B58F7DFBCF8091B0008F7753
:1005E0008093B000D9CF8091B0008F7DF9CF8091FA
:1005F00090008F7780939000CFCF809190008F7D77
:10060000F9CF80919000877FF5CF8091A0008F7700
:100610008093A000C1CF8091A0008F7DF9CF809101
:10062000A000877FF5CF809120018F7780932001F4
:10063000B3CF809120018F7DF9CF80912001877FFA
:10064000F5CF4E2BB8CF3FB7F89480912702909109
:100650002802A0912902B0912A0226B5A89B05C0C4
:100660002F3F19F00196A11DB11D3FBFBA2FA92F31
:10067000982F8827BC01CD01620F711D811D911D2E
:1006800042E0660F771F881F991F4A95D1F708959A
:10069000AF92BF92CF92DF92EF92FF920F931F9390
:1006A000CF93DF936B017A01EC01C25EDD4F2881AD
:1006B0003CE0389F8001399F100D1124A0905A030F
:1006C000B12C27FF1FC0FB011182108288818F5F30
:1006D000888388819801280F311D87FD3A95F6019E
:1006E0002A153B051CF488818C30C4F180819181EE
:1006F000049680349C4908F473C0F601808191818E
:10070000049670C088819801280F311D87FD3A95A5
:100710002A153B05DCF68881A801480F511D87FD8D
:100720005A95FA01EE0FFF1FE40FF51FE653FD4F38
:10073000808186FFCBCF8881F801E80FF11D87FD0E
:10074000FA95CF01EE0FFF1FE80FF91FE653FD4F9B
:10075000808160E08F730E949702B8CF8081918181
:100760002881A801420F511D27FD5A959A01FA01CF
:10077000EE0FFF1FE20FF31FE653FD4F2181328181
:10078000820F931FF7019183808388819801280F3E
:10079000311D87FD3A95F901EE0FFF1FE20FF31FA0
:1007A000E653FD4F808186FF22C08881080F111D0E
:1007B00087FD1A95F801EE0FFF1FE00FF11FE653BA
:1007C000FD4F808161E08F73DF91CF911F910F9179
:1007D000FF90EF90DF90CF90BF90AF900C94970276
:1007E00080E49CE9F701918380838FEF8883DF9118
:1007F000CF911F910F91FF90EF90DF90CF90BF901E
:10080000AF9008958F929F92AF92BF920F931F93D4
:10081000CF93DF93CDB7DEB7A1970FB6F894DEBFC5
:100820000FBECDBF19A2423008F44AE08E010F5D21
:100830001F4F842E912CB12CA12CA50194010E9454
:10084000AF09E62FB901CA01EA3044F5E05DD801ED
:10085000EE938D01232B242B252B79F790E080E05C
:10086000109769F0FD0101900020E9F73197AF0181
:100870004A1B5B0BBD018DE292E00E945E01A196D6
:100880000FB6F894DEBF0FBECDBFDF91CF911F91A1
:100890000F91BF90AF909F908F900895E95CD7CF54
:1008A000CF93DF93EC0180915B0390915C03009701
:1008B00059F020915D0330915E032C173D0720F025
:1008C00081E0DF91CF910895BE016F5F7F4F0E945D
:1008D000190B009789F090935C0380935B03D0938E
:1008E0005E03C0935D0320915F0330916003232B6F
:1008F00039F7FC011082E4CF80E0E3CF1F920F9222
:100900000FB60F9211240BB60F922F933F934F9374
:100910005F936F937F938F939F93AF93BF93EF9367
:10092000FF938DE292E00E94D201FF91EF91BF917F
:10093000AF919F918F917F916F915F914F913F9177
:100940002F910F900BBE0F900FBE0F901F90189518
:100950001F920F920FB60F9211240BB60F922F9386
:100960008F939F93EF93FF93E0913D02F0913E02AE
:100970008081E0914302F091440282FD1DC090818C
:10098000809146028F5F8F7320914702821741F05A
:10099000E0914602F0E0E35DFD4F958F80934602C3
:1009A000FF91EF919F918F912F910F900BBE0F9020
:1009B0000FBE0F901F9018958081F2CF1F920F925B
:1009C0000FB60F9211242F933F938F939F93AF9362
:1009D000BF938091230290912402A0912502B091AF
:1009E00026023091220223E0230F2D3758F501967D
:1009F000A11DB11D20932202809323029093240213
:100A0000A0932502B093260280912702909128029C
:100A1000A0912902B0912A020196A11DB11D8093D7
:100A2000270290932802A0932902B0932A02BF9133
:100A3000AF919F918F913F912F910F900FBE0F908B
:100A40001F90189526E8230F0296A11DB11DD2CF45
:100A50001F920F920FB60F9211240BB60F922F9385
:100A60003F934F935F936F937F938F939F93AF9336
:100A7000BF93EF93FF9348E251E064E271E090E0AE
:100A800080E00E944803FF91EF91BF91AF919F9149
:100A90008F917F916F915F914F913F912F910F9027
:100AA0000BBE0F900FBE0F901F9018951F920F92C4
:100AB0000FB60F9211240BB60F922F933F934F93C3
:100AC0005F936F937F938F939F93AF93BF93EF93B6
:100AD000FF9348EA50E064EA70E083E090E00E940F
:100AE0004803FF91EF91BF91AF919F918F917F91BB
:100AF0006F915F914F913F912F910F900BBE0F908F
:100B00000FBE0F901F9018951F920F920FB60F9265
:100B100011240BB60F922F933F934F935F936F93D4
:100B20007F938F939F93AF93BF93EF93FF9348E986
:100B300050E064E970E082E090E00E944803FF9199
:100B4000EF91BF91AF919F918F917F916F915F9145
:100B50004F913F912F910F900BBE0F900FBE0F90B2
:100B60001F9018951F920F920FB60F9211240BB67B
:100B70000F922F933F934F935F936F937F938F9336
:100B80009F93AF93BF93EF93FF9348E850E064E8DF
:100B900070E081E090E00E944803FF91EF91BF91E7
:100BA000AF919F918F917F916F915F914F913F9105
:100BB0002F910F900BBE0F900FBE0F901F901895A6
:100BC0001092300210922F0288EE93E0A0E0B0E085
:100BD0008093310290933202A0933302B093340297
:100BE0008AE092E090932E0280932D0285EC90E0B3
:100BF00090933A028093390284EC90E090933C0207
:100C000080933B0280EC90E090933E0280933D0203
:100C100081EC90E09093400280933F0282EC90E060
:100C2000909342028093410286EC90E090934402BC
:100C3000809343021092460210924702109248029B
:100C40001092490280915A038033D8F591E0980FB1
:100C500090935A038093610390E0FC01EE0FFF1F15
:100C6000E80FF91FE653FD4F88EB9BE092838183E9
:100C700010925C0310925B0310925E0310925D036E
:100C80001092600310925F0390E080E00E94500495
:100C900020915B0330915C03811117C02115310550
:100CA00019F0C9010E94900A10925C0310925B0334
:100CB0001092600310925F0310925E0310925D0326
:100CC00008958FEF80936103D3CF10926003109249
:100CD0005F036DE172E0C9010C94030CCF93DF93C5
:100CE00000D000D01F921F92CDB7DEB7789484B5A4
:100CF000826084BD84B5816084BD85B5826085BD18
:100D000085B5816085BD80916E00816080936E00A5
:100D10001092810080918100826080938100809197
:100D20008100816080938100809180008160809348
:100D300080008091B10084608093B1008091B00008
:100D400081608093B00080919100826080939100D7
:100D500080919100816080939100809190008160EA
:100D6000809390008091A10082608093A100809187
:100D7000A10081608093A1008091A0008160809398
:100D8000A000809121018260809321018091210146
:100D900081608093210180912001816080932001F6
:100DA00080917A00846080937A0080917A008260DA
:100DB00080937A0080917A00816080937A0080919C
:100DC0007A00806880937A001092C100E0913D0221
:100DD000F0913E0282E08083E0913902F0913A0284
:100DE0001082E0913B02F0913C028FEC80831092E4
:100DF0004502E0914102F091420286E08083E09159
:100E00003F02F0914002808180618083E0913F0247
:100E1000F0914002808188608083E0913F02F091F0
:100E20004002808180688083E0913F02F09140021F
:100E300080818F7D808380916103803308F069C059
:100E4000E9E1F2E02491E3EDF1E08491882399F067
:100E500090E0880F991FFC01E455FE4FA591B491D5
:100E6000FC01EE56FE4F859194918FB7F894EC916A
:100E7000E22BEC938FBF80916103282F30E0F901C2
:100E8000EE0FFF1FE20FF31FE653FD4F9081907CA2
:100E90009D60908310926203109263032CE0622F96
:100EA0000E94E009829FB001112430E020E0AB01F4
:100EB000420F531FFA01EE0FFF1FE40FF51FE65319
:100EC000FD4F908196FD17C02F5F3F4F2C303105AD
:100ED00071F7813009F001C11092800082E08093A7
:100EE00081001092850010928400B19A80916F0069
:100EF000826080936F00E09161038E2F90E0FC018F
:100F0000EE0FFF1FE80FF91FE653FD4F808180644D
:100F10008083CE0101967C01A8E82A2E312CB8E509
:100F2000CB2EB2E0DB2E8DE292E00E94BC011816BF
:100F300019060CF0CFC08DE292E00E949A01C09792
:100F40008D30910509F0F5C080915B0390915C03B1
:100F5000812C912C5401009719F00E940C094B012F
:100F600090922C0280922B020E944102092C000CCC
:100F7000AA08BB084AE0C501B401B7FE0DC06DE286
:100F80008DE292E00E94F40166277727CB01681971
:100F900079098A099B094AE00E9402040E944102E1
:100FA000A0912B02B0912C02A03292E0B907CCF5AF
:100FB000209162034101821A910827FD9394880CC5
:100FC000991C880C991C092C000CAA08BB082091BC
:100FD0006303C601821B910927FD93959C01220F93
:100FE000331F220F331F032E000C440B550B2819FF
:100FF00039094A095B09A53BB10514F0A4EBB0E03F
:10100000B7FF02C0B0E0A0E00E94A70924EB30E0E7
:1010100040E050E00E947D09820E931EA41EB51E82
:10102000D401E0916103E03388F520916203C101AE
:10103000821B910927FD93959C01220F331F220FDC
:10104000331FA217B30784F020916303C601821BEC
:10105000910927FD93959C01220F331F220F331F07
:10106000A217B3070CF49D0122503109220F331F40
:101070004FB7F8948E2F90E0FC01EE0FFF1FE80FA2
:10108000F91FE653FD4F328321834FBF0E94230394
:101090002B013C0184E1882E912CA12CB12C0E94C3
:1010A00023036419750986099709683E7340810511
:1010B0009105A8F391E0891A9108A108B10828EEDA
:1010C000420E23E0521E611C711C81149104A10484
:1010D000B10429F70E94660226CF823061F4109293
:1010E000900080939100109295001092940088BB1C
:1010F0008093710000CF833069F41092A00082E0E9
:101100008093A1001092A5001092A40089BB809347
:101110007200F1CE8111EFCE1092200182E0809317
:10112000210110922501109224018ABB8093730043
:10113000E2CE8E3F2FEF920799F590E080E00E947B
:10114000500420915B0330915C0381111FC0211575
:10115000310519F0C9010E94900A10925C031092A7
:101160005B031092600310925F0310925E03109273
:101170005D030E94410245E050E068E172E08DE2CB
:1011800092E00E945E010E944102A4CF109260038F
:1011900010925F036DE172E0C9010E94030CE9CF78
:1011A0004AE0B7010E943309F70101900020E9F7F6
:1011B0003197EE19FF09E1F000915F031091600390
:1011C0000E0F1F1FC8010E945004882389F0209130
:1011D0005B0330915C0380915F0390916003B701E2
:1011E000820F931F0E94030C1093600300935F0310
:1011F0000E94410240915F035091600360915B0344
:1012000070915C03BCCF80915B0390915C0300976D
:1012100011F00C94900A08951F93FC0199278827D8
:10122000BC01E89411911032E9F3193010F01E302E
:10123000C8F31B3251F01D3249F4689406C00E9475
:101240003E09610F711D811D911D119110531A30BE
:10125000B0F33EF490958095709561957F4F8F4FD8
:101260009F4F1F910895BB274A3031F4992322F4F0
:10127000BDE2909581959F4F0C945409592F482FAA
:10128000372F262F660F771F881F991F660F771F2E
:10129000881F991F620F731F841F951F660F771F8A
:1012A000881F991F0895BB27FB015527AA27880F80
:1012B000991FAA1FA41710F0A41B83955051B9F7CA
:1012C000A05DAA3308F0A95DA193009779F7B11149
:1012D000B1931192CB010C946D09DC01FC01672FD5
:1012E00071917723E1F7329704C07C916D937083FD
:1012F0006291AE17BF07C8F30895052E97FB1EF441
:1013000000940E94940957FD07D00E94AF0907FC82
:1013100003D04EF40C949409509540953095219546
:101320003F4F4F4F5F4F0895909580957095619511
:101330007F4F8F4F9F4F08950E94D109A59F900D19
:10134000B49F900DA49F800D911D11240895B7FFA7
:101350000C949C090E949C09821B930B0895A1E2A6
:101360001A2EAA1BBB1BFD010DC0AA1FBB1FEE1F1F
:10137000FF1FA217B307E407F50720F0A21BB30B6A
:10138000E40BF50B661F771F881F991F1A9469F7E6
:1013900060957095809590959B01AC01BD01CF0142
:1013A0000895A29FB001B39FC001A39F700D811D3E
:1013B0001124911DB29F700D811D1124911D08955E
:1013C000991B79E004C0991F961708F0961B881F97
:1013D0007A95C9F780950895EE0FFF1F881F8BBF80
:1013E0000790F691E02D19940F931F93CF93DF93FD
:1013F0008230910510F482E090E0E0916603F09174
:10140000670330E020E0B0E0A0E0309799F42115C8
:10141000310509F44AC0281B390B24303105D8F5B1
:101420008A819B816115710589F1FB019383828318
:10143000FE0111C040815181028113814817590773
:10144000E0F04817590799F4109761F012960C9341
:10145000129713961C933296CF01DF91CF911F9173
:101460000F9108950093660310936703F4CF21153D
:10147000310551F04217530738F0A901DB019A01F9
:10148000BD01DF01F801C1CFEF01F9CF90936703F0
:1014900080936603CDCFFE01E20FF31F81939193FA
:1014A0002250310939832883D7CF209164033091AA
:1014B0006503232B41F42091020230910302309303
:1014C00065032093640320910002309101022115ED
:1014D000310541F42DB73EB7409104025091050209
:1014E000241B350BE0916403F0916503E217F307C9
:1014F000A0F42E1B3F0B2817390778F0AC014E5F84
:101500005F4F2417350748F04E0F5F1F5093650358
:1015100040936403819391939FCFF0E0E0E09CCFF0
:10152000CF93DF930097E9F0FC0132971382128288
:10153000A0916603B0916703ED0130E020E01097C1
:10154000A1F420813181820F931F20916403309197
:1015500065032817390709F061C0F0936503E0932C
:101560006403DF91CF910895EA01CE17DF07E8F514
:101570004A815B819E0141155105B1F7E901FB8369
:10158000EA8349915991C40FD51FEC17FD0761F407
:10159000808191810296840F951FE9019983888348
:1015A000828193819B838A83F0E0E0E012968D91A3
:1015B0009C9113970097B9F52D913C911197CD010E
:1015C0000296820F931F20916403309165032817C0
:1015D000390739F6309751F5109267031092660378
:1015E000B0936503A0936403BCCFD383C2834081CF
:1015F0005181840F951FC817D90761F44E5F5F4F63
:1016000088819981480F591F518340838A819B812A
:10161000938382832115310509F0B0CFF0936703DE
:10162000E09366039ECFFD01DC01C0CF13821282DE
:10163000D7CF4F925F926F927F928F929F92AF928D
:10164000BF92CF92DF92EF92FF920F931F93CF93AF
:10165000DF938C01009799F4CB01DF91CF911F911B
:101660000F91FF90EF90DF90CF90BF90AF909F9041
:101670008F907F906F905F904F900C94F409FC01D5
:10168000E60FF71F9C0122503109E217F30708F417
:10169000AEC0D901CD91DC911197C617D70720F1C3
:1016A000C530D10578F0CE0104978617970750F022
:1016B000C61BD70B2297C193D1936D937C93CF0117
:1016C0000E94900AC801DF91CF911F910F91FF9066
:1016D000EF90DF90CF90BF90AF909F908F907F90D2
:1016E0006F905F904F9008955B01AC1ABD0A4C015A
:1016F0008C0E9D1EA0916603B0916703512C412C66
:10170000F12CE12C109731F58091640390916503E1
:101710008815990509F05CC04616570608F058C0B0
:101720008091000290910102009741F48DB79EB71D
:101730004091040250910502841B950BE817F907AC
:1017400008F055C0F0936503E0936403F9017183D9
:101750006083B8CF8D919C91119712966C901297DF
:1017600013967C901397A815B90559F56C0142E0C2
:10177000C40ED11CCA14DB0420F1AC014A195B0968
:10178000DA011296159780F062827382518340834A
:10179000D9016D937C93E114F10471F0D701139694
:1017A000FC93EE9312978ECF22968C0F9D1FF9011A
:1017B00091838083F301EFCFF0936703E093660397
:1017C00081CF4816590608F42C017D01D3019ACF28
:1017D000CB010E94F4097C01009749F0AE01B801E9
:1017E0000E94FA0BC8010E94900A87016BCF10E09B
:1017F00000E068CFFB01DC0102C001900D92415076
:101800005040D8F70895FB01DC0101900D920020B3
:10181000E1F7089511E0CAE2D1E000E006C0802FB0
:10182000FE010E94EC092196011DCB32D10780E018
:081830000807A9F7F894FFCFA7
:1018380000006803800000000000F4015E018B01D5
:0E1848004602BC019A01AE01636C656172003C
:00000001FF
