:100000000C9439010C946A010C946A010C946A01F5
:100010000C946A010C946A010C946A010C946A01B4
:100020000C946A010C946A010C946A010C946A01A4
:100030000C946A010C94050A0C946A010C946A01F0
:100040000C946A010C94780B0C946A010C946A016C
:100050000C946A010C946A010C946A010C94A40A31
:100060000C946A010C946A010C946A010C946A0164
:100070000C946A010C946A010C946A010C946A0154
:100080000C944A0B0C946A010C946A010C946A015A
:100090000C946A010C946A010C946A010C946A0134
:1000A0000C946A010C946A010C941C0B0C946A0168
:1000B0000C946A010C946A010C946A010C94EE0A87
:1000C0000C946A010C946A010C946A010C946A0104
:1000D0000C946A010C946A010C946A010C946A01F4
:1000E0000C946A010C9472020C947F020C949A078F
:1000F0000C9468020C9422030C9476020C94510226
:100100000C945E020C9454020C94B1020C949B0764
:100110000C947A020C9484020C946C020C9480026D
:100120000C9445020C946E0F0C944D020C943F02FB
:100130000C94F4010C9464020C94E2020C94B60E3C
:100140000C9454090C945A020C94490200002100AA
:10015000240027002A002D00300033000101000098
:10016000040107010A0100002000230026002900E5
:100170002C002F00320000010000030106010901DC
:1001800000000A0B02090C0D0E0807030401000011
:10019000000000000000000000000000000000005F
:1001A000000000000000000000000000121110001C
:1001B000000000000000000000000000000000003F
:1001C000000000000000010210202008081020405C
:1001D000102040800201020108040201010204080B
:1001E0001020408080402010080402018004020199
:1001F00080402010080402010804020101020408E2
:1002000010204080010204081020408000002200DD
:10021000250028002B002E003100340002010000D0
:10022000050108010B010505050507050808080873
:10023000020202020A0A080804040404010101017E
:100240000101010103030303030303030407070779
:100250000C0C0C0C0C0C0C0C02020202060606061E
:10026000060606060B0B0B0B0B0B0B0B0200B60E58
:100270006E0F11241FBECFEFD1E2DEBFCDBF00E075
:100280000CBF12E0A0E0B2E0E6ECF8E200E00BBF49
:1002900002C007900D92AA3AB107D9F724E0AAEA62
:1002A000B2E001C01D92A930B207E1F711E0C8E346
:1002B000D1E000E006C021970109802FFE010E94D5
:1002C0002A12C733D10780E00807A9F70E94A60BBE
:1002D0000C9451140C94000096E0899FD0011124D5
:1002E000A258BC4F90967C936E935F9791E0919645
:1002F0009C939197E091EB03F091EC039091EA03CA
:10030000992339F0309751F0811108C080919A03F8
:100310001994309719F05C968C91FACF08958F92CA
:100320009F92AF92BF92FF920F931F93CF93DF9351
:10033000F0907B032FE22F1508F44CC020917D0331
:1003400008E512E0021B110927FD1395000F111F8C
:10035000000F111F20917C03C8E8D0E0C21BD10917
:1003600027FDD395CC0FDD1FCC0FDD1F4E010D2EC9
:10037000000CAA08BB089801012E000C440B550B79
:10038000281939094A095B09DC010E94CD1024EBC8
:1003900030E040E050E00E94A310820E931EA41EA5
:1003A000B51E8C169D062CF0E801801691060CF403
:1003B000E4012297CC0FDD1F2FB7F8948F2D90E02A
:1003C000FC01EE0FFF1FE80FF91FE551FD4FD2832F
:1003D000C1832FBFDF91CF911F910F91FF90BF90ED
:1003E000AF909F908F900895AF92BF92CF92DF927F
:1003F000EF92FF920F931F93CF93DF936C017B01DA
:100400008B01040F151FEB015E01AE18BF08C0176A
:10041000D10759F06991D601ED91FC910190F081DD
:10042000E02DC6011995892B79F7C501DF91CF9190
:100430001F910F91FF90EF90DF90CF90BF90AF9002
:1004400008958150823108F05AC0E82FF0E08827E3
:10045000E35DFD4F8F4F0C942A124D0251023F0273
:10046000450249027F0254025A025E026402680297
:100470006C02720276027F027A028002840280910C
:1004800080008F77809380000895809180008F7D19
:10049000F9CF80918000877FF5CF84B58F7784BDB9
:1004A000089584B58F7DFBCF8091B0008F778093C6
:1004B000B00008958091B0008F7DF9CF80919000B9
:1004C0008F77809390000895809190008F7DF9CF71
:1004D00080919000877FF5CF8091A0008F778093E7
:1004E000A00008958091A0008F7DF9CF8091A00099
:1004F000877FF5CF809120018F7780932001089529
:10050000809120018F7DF9CF80912001877FF5CFE9
:10051000CF93DF93282F30E0F901E058FE4F84910C
:10052000F901EA53FE4FD491F901EA5DFD4FC49100
:10053000CC23A1F081110E942102EC2FF0E0EE0FFC
:10054000FF1FEA59FE4FA591B491EC91ED2381E094
:1005500090E009F480E0DF91CF91089580E090E091
:10056000FACF862F0C9488021F93CF93DF93282F06
:1005700030E0F901E058FE4F8491F901EA53FE4F53
:10058000D491F901EA5DFD4FC491CC23A9F0162F57
:1005900081110E942102EC2FF0E0EE0FFF1FE45FBB
:1005A000FD4FA591B4918FB7F894EC91111108C04B
:1005B000D095DE23DC938FBFDF91CF911F910895FB
:1005C000DE2BF8CF862F642F0C94B402CF93DF93E9
:1005D00090E0FC01EA53FE4F24918A5D9D4FFC019F
:1005E00084918823C9F090E0880F991FFC01E45B97
:1005F000FE4FA591B491FC01E45FFD4FC591D491EC
:1006000061110DC09FB7F8948C91209582238C9333
:100610008881282328839FBFDF91CF91089562307E
:1006200051F49FB7F8943C91822F809583238C934B
:10063000E8812E2BEFCF8FB7F894EC912E2B2C93D3
:100640008FBFEACF862F642F0C94E602CF93809160
:1006500012028D3021F08F3F61F1CF910895ECE6C9
:10066000F2E0C491C7FDF9CF61E08DE00E94E6029F
:10067000CC2309F4F1C0C23009F006C18091B10069
:10068000887F83608093B10089EF8093B30080E915
:1006900091E0A0E0B0E08093DF029093E002A093AD
:1006A000E102B093E202809170008260809370005A
:1006B000D4CF8DE080931202ECE6F2E0C4918C2F4F
:1006C000CF3F59F2C23009F468C060F4CC2379F10D
:1006D000C13009F444C087FDC0CF61E08DE00E94C5
:1006E000E602C9CFC43009F499C008F478C0C53017
:1006F00091F71092200110922101809121018860D0
:100700008093210180912101816080932101E3E3A5
:10071000F2E0E491F0E0EE0FFF1FE45FFD4F859102
:100720009491E3EDF1E0E491E093CB029DCF14BC12
:1007300015BC84B5826084BD85B5816085BDE3E369
:10074000F2E0E491F0E0EE0FFF1FE45FFD4F8591D2
:100750009491E3EDF1E0E491E093D20285CF109221
:1007600080001092810080918100886080938100D8
:1007700080918100816080938100E3E3F2E0E49165
:10078000F0E0EE0FFF1FE45FFD4F85919491E3EDE4
:10079000F1E0E491E093D10267CF1092B0001092A3
:1007A000B1008091B00082608093B0008091B10070
:1007B00081608093B100E3E3F2E0E491F0E0EE0FBA
:1007C000FF1FE45FFD4F859194919093D002809339
:1007D000CF02E3EDF1E0E491E093CE0245CF109239
:1007E0009000109291008091910088608093910018
:1007F00080919100816080939100E3E3F2E0E491C5
:10080000F0E0EE0FFF1FE45FFD4F85919491E3ED63
:10081000F1E0E491E093CD02C3E026CF1092A00076
:100820001092A1008091A10088608093A100809126
:10083000A10081608093A100E3E3F2E0E491F0E0A5
:10084000EE0FFF1FE45FFD4F85919491E3EDF1E022
:10085000E491E093CC0208CF85B5887F836085BDA5
:100860008CE787BD80E991E0A0E0B0E08093E702EB
:100870009093E802A093E902B093EA0280916E009F
:10088000826080936E00E9CEC130F1F480918100E6
:10089000887F8160809381008FE39FE1909389003E
:1008A0008093880080E991E0A0E0B0E08093E302CB
:1008B0009093E402A093E502B093E60280916F006A
:1008C000826080936F00C9CEC330F1F480919100B3
:1008D000887F8160809391008FE39FE190939900DE
:1008E0008093980080E991E0A0E0B0E08093DB0283
:1008F0009093DC02A093DD02B093DE028091710040
:10090000826080937100A9CEC430F1F48091A1007F
:10091000887F81608093A1008FE39FE19093A9007D
:100920008093A80080E991E0A0E0B0E08093D70236
:100930009093D802A093D902B093DA02809172000A
:1009400082608093720089CEC530F1F480912101DC
:10095000887F8160809321018FE39FE1909329013B
:100960008093280180E991E0A0E0B0E08093D30279
:100970009093D402A093D502B093D60280917300D5
:1009800082608093730069CEC23091F034F4CC233E
:1009900069F0C13009F061CE7FCFC43009F4BCCF1B
:1009A0000CF49ACFC53009F058CED6CF8FE359CF8B
:1009B0008FE36BCE3FB7F8948091B4029091B5026B
:1009C000A091B602B091B70226B5A89B05C02F3FF3
:1009D00019F00196A11DB11D3FBFBA2FA92F982F65
:1009E0008827BC01CD01620F711D811D911D42E060
:1009F000660F771F881F991F4A95D1F708958F9228
:100A00009F92AF92BF92CF92DF92EF92FF924B01F3
:100A10005C010E94DA046B017C010E94DA046C190B
:100A20007D098E099F09683E734081059105A8F3F1
:100A300021E0821A9108A108B10888EEC80E83E06F
:100A4000D81EE11CF11C81149104A104B10429F702
:100A5000FF90EF90DF90CF90BF90AF909F908F90DE
:100A600008952FB7F8946091B0027091B10280910F
:100A7000B2029091B3022FBF08950F931F93CF93AB
:100A8000DF93C82FD62F86E0C89FF0011124E258CB
:100A9000FC4F11A2878D90A181309105F1F058F0A3
:100AA00082309105F1F1039709F440C0DF91CF91B5
:100AB0001F910F9108956623C9F361E070E08C2FB8
:100AC0000E946C010E9431056093D6037093D70396
:100AD0008093D8039093D903E9CF0E943105009108
:100AE000D6031091D7032091D8033091D903AB01DD
:100AF000BC01401B510B620B730B8091E80390917A
:100B0000E903B0E0A0E084179507A607B70748F40B
:100B100062E070E08C2FDF91CF911F910F910C94C8
:100B20006C0163E070E0D111C1CFF4CF70E060E000
:100B3000F1CF6F927F928F929F92AF92BF92CF929E
:100B4000DF92EF92FF920F931F93CF93DF9381E099
:100B50008093EA030E9431050091DA031091DB03D0
:100B60002091DC033091DD03AB01BC01401B510B34
:100B7000620B730B8091E6039091E703B0E0A0E075
:100B800084179507A607B70708F014C1C0E0809145
:100B9000E403C81760F4E091E003F091E103EC0F87
:100BA000F11D62E080810E94E602CF5FF0CF712CE0
:100BB000812C912C540183948091E503781608F0E0
:100BC0005FC0072D10E0E091E203F091E303E00F36
:100BD000F11F61E080810E94E602E091E203F09162
:100BE000E303E00FF11F60E080810E94B402D501B1
:100BF000C401072C04C0880F991FAA1FBB1F0A94A9
:100C0000D2F76C017C01E094F094612C8091E403B4
:100C10006816F8F4C62DD0E0E091E003F091E1030E
:100C2000EC0FFD1F80810E9488022496CC0FDD1FEF
:100C3000C258DC4F892B41F4888199818C299D29E8
:100C4000998388836394E2CF888199818E219F2143
:100C5000F7CFE091E203F091E303E00FF11F61E0D1
:100C600080810E94B4028091E2039091E303080F17
:100C7000191F60E0F80180810E94E60273949CCF06
:100C8000CEE7D3E0FE018FEF9FEF278D30A1232B1E
:100C900021F4148E968F858F11A2369623E0EA3BBD
:100CA000F20799F7F12C96E0D92E8091E403F8161B
:100CB00008F050C0E12C0F2D10E0000F111F0A5753
:100CC0001C4F2091E503E21608F042C0F801608154
:100CD00071810E2C02C0769567950A94E2F7F29E18
:100CE000900111242E0D311DEEE7F3E080E0458DDB
:100CF000568D2417350709F461C08F5F36968A3008
:100D0000B1F760FF23C0EEE7F3E090E080E0448DB0
:100D1000411117C0E091DE03F091DF03E20FF31FF2
:100D20004081D89EF001D99EF00D1124E258FC4F6D
:100D3000448F368F258F10A2178E61E00E943D05EB
:100D400005C0019636968A30910509F7E394B9CF2C
:100D5000F394ABCF10E089A18111182F2696F3E010
:100D6000CA3BDF07C1F70E9431056093DA03709335
:100D7000DB038093DC039093DD031123D9F0809192
:100D80009F038823B9F080919D0390919E03019762
:100D900089F480919A03DF91CF911F910F91FF9079
:100DA000EF90DF90CF90BF90AF909F908F907F900B
:100DB0006F9008951092EA0380E0EDCF6170BECF8E
:100DC000AF92BF92CF92DF92EF92FF920F931F9359
:100DD000CF93DF936B017A01EC01C555DD4F28817C
:100DE0003CE0389F8001399F100D1124A090AA0289
:100DF000B12C27FF1FC0FB011182108288818F5FF9
:100E0000888388819801280F311D87FD3A95F60166
:100E10002A153B051CF488818C30C4F180819181B6
:100E2000049680349C4908F473C0F6018081918156
:100E3000049670C088819801280F311D87FD3A956E
:100E40002A153B05DCF68881A801480F511D87FD56
:100E50005A95FA01EE0FFF1FE40FF51FE551FD4F04
:100E6000808186FFCBCF8881F801E80FF11D87FDD7
:100E7000FA95CF01EE0FFF1FE80FF91FE551FD4F67
:100E8000808160E08F730E94B402B8CF808191812D
:100E90002881A801420F511D27FD5A959A01FA0198
:100EA000EE0FFF1FE20FF31FE551FD4F218132814D
:100EB000820F931FF7019183808388819801280F07
:100EC000311D87FD3A95F901EE0FFF1FE20FF31F69
:100ED000E551FD4F808186FF22C08881080F111DDA
:100EE00087FD1A95F801EE0FFF1FE00FF11FE55186
:100EF000FD4F808161E08F73DF91CF911F910F9142
:100F0000FF90EF90DF90CF90BF90AF900C94B40221
:100F100080E49CE9F701918380838FEF8883DF91E0
:100F2000CF911F910F91FF90EF90DF90CF90BF90E6
:100F3000AF900895089590E080E008950E94260300
:100F400090E080E00E948F011092BD021092BC02DE
:100F500061E08EE00E94B40260E085E10C94B4028E
:100F6000FC0101900020E9F73197AF01481B590BB4
:100F7000BC018DEE93E00C94F4018F929F92AF929E
:100F8000BF920F931F93CF93DF93CDB7DEB7A19797
:100F90000FB6F894DEBF0FBECDBF19A2423008F4E1
:100FA0004AE08E010F5D1F4F842E912CB12CA12C95
:100FB000A50194010E94D510E62FB901CA01EA30BB
:100FC000F4F4E05DD801EE938D01232B242B252B27
:100FD00079F790E080E0109719F0CD010E94B007FA
:100FE000A1960FB6F894DEBF0FBECDBFDF91CF91B3
:100FF0001F910F91BF90AF909F908F900895E95CE3
:10100000E1CFCF93DF93EC0160E08E810E94B402C8
:1010100061E08E810E94B40260E08E810E94B40281
:101020008BE891E00197F1F7DF91CF910895CF928E
:10103000DF92EF92FF920F931F93CF93DF936C0198
:101040007C0187E0E80EF11CD0E0C0E0062F10E044
:10105000B8010C2E02C0759567950A94E2F761708D
:10106000F70181917F010E94B4022196C430D1051D
:1010700079F7C601DF91CF911F910F91FF90EF900B
:10108000DF90CF900C940108CF92DF92EF92FF9205
:101090000F931F93CF93DF93EC01F62E642F8C8177
:1010A0000E94B4028D818F3F19F060E00E94B4026B
:1010B0000F2D10E08F8584FF25C06E0187E0C80EDC
:1010C000D11CF12CE12CB8010E2C02C0759567954E
:1010D0000A94E2F76170F60181916F010E94B402F7
:1010E000FFEFEF1AFF0A88E0E816F10461F7CE017E
:1010F000DF91CF911F910F91FF90EF90DF90CF90F4
:101100000C940108B80184E0759567958A95E1F71C
:10111000CE010E9417086F2DCE01DF91CF911F9154
:101120000F91FF90EF90DF90CF900C94170840E064
:10113000682F8DEE93E00C94440881E00E9497089C
:101140008BE39FE10197F1F70895CF93DF9382300E
:1011500029F49091FC0398609093FC038093000421
:101160001092010480E48093020480E180930304E0
:1011700080E58093040461E08091F1030E94E6021F
:101180008091F2038F3F19F061E00E94E60261E076
:101190008091F3030E94E602CDEED3E09E012D5E26
:1011A00033408091FC0384FD0BC084E090E02196E5
:1011B0002817390744F461E08E810E94E602EECFE1
:1011C00088E090E0F4CF8BE39DE00197F1F760E0D9
:1011D0008091F1030E94B40260E08091F3030E94C9
:1011E000B4028091F2038F3F19F060E00E94B402D4
:1011F0008091FC0384FD34C063E08DEE93E00E9497
:101200001708CBE4D6E4CE010197F1F763E08DEE49
:1012100093E00E9417082197F1F763E08DEE93E0C9
:101220000E94170883E592E00197F1F762E08DEEE6
:1012300093E00E9417088091FC0380620E94970847
:1012400084E08093FD038CE00E9497080E949D0833
:1012500082E08093FE0386E0DF91CF910C949708A3
:1012600080620E9497088BE496E40197F1F78091E1
:10127000FC0380620E94970883E592E00197F1F7F2
:101280008091FC0380620E949708D5CFE091000412
:10129000E23040F4E150F0E0E351FC4F8489806893
:1012A0000C949708E1E0F7CF41E00E94440881E008
:1012B00090E0089541E0682F8DEE93E00E9444088D
:1012C00081E090E008950F931F93CF93DF93EC019B
:1012D00088819981009759F02A813B812617370729
:1012E00030F081E0DF91CF911F910F9108958B0134
:1012F0006F5F7F4F0E945713009759F0998388833F
:101300001B830A832C813D81232B59F7FC0110821A
:10131000E8CF80E0E7CFEF92FF920F931F93CF9338
:10132000DF93EC017B018A01BA010E9463092881E5
:101330003981811114C02115310519F0C9010E94AC
:10134000CE12198218821D821C821B821A82CE0143
:10135000DF91CF911F910F91FF90EF9008951D8322
:101360000C83B701C9010E944A14F1CFEF92FF929A
:101370000F931F93CF93DF931F921F92CDB7DEB7CA
:101380000E94460950E040E069EA72E08EEB92E08C
:101390000E948B0984E0E82EF12C0E949905182FF9
:1013A0008823D9F38093CA020E945A0919831A82AA
:1013B0000091C2021091C3020F5F1F4FB8018EEB64
:1013C00092E00E946309882399F02091BE02309137
:1013D000BF028091C2029091C302BE016F5F7F4F36
:1013E000820F931F0E944A141093C3020093C202FB
:1013F00081E0E81AF10889F60F900F90DF91CF9104
:101400001F910F91FF90EF9008951F920F920FB6CA
:101410000F9211240BB60F922F933F934F935F932C
:101420006F937F938F939F93AF93BF93EF93FF93AC
:101430008091DF029091E002A091E102B091E2027E
:10144000892B8A2B8B2BE1F19091CE02E091CF0278
:10145000F091D0028081892780838091DF02909172
:10146000E002A091E102B091E202181619061A06F4
:101470001B069CF48091DF029091E002A091E102B2
:10148000B091E2020197A109B1098093DF02909324
:10149000E002A093E102B093E202FF91EF91BF91CD
:1014A000AF919F918F917F916F915F914F913F91FC
:1014B0002F910F900BBE0F900FBE0F901F9018959D
:1014C00080911202ECE6F2E0E4919FEF9093120219
:1014D000E230E9F040F4EE2389F0E13091F060E091
:1014E0000E94B402DACFE43049F110F1E530B9F7E7
:1014F000909173009D7F90937300F1CF10926E00D6
:10150000EECF90916F009D7F90936F00E8CF909108
:1015100070009D7F9093700091E09093B000909147
:10152000B100987F94609093B1001092B300D7CF30
:10153000909171009D7F90937100D1CF9091720036
:101540009D7F90937200CBCF1F920F920FB60F9298
:1015500011242F933F938F939F93AF93BF938091C9
:10156000B0029091B102A091B202B091B302309159
:10157000AF0223E0230F2D3758F50196A11DB11DB1
:101580002093AF028093B0029093B102A093B20275
:10159000B093B3028091B4029091B502A091B602CB
:1015A000B091B7020196A11DB11D8093B402909332
:1015B000B502A093B602B093B702BF91AF919F91CD
:1015C0008F913F912F910F900FBE0F901F90189504
:1015D00026E8230F0296A11DB11DD2CF1F920F92B4
:1015E0000FB60F9211240BB60F922F933F934F9388
:1015F0005F936F937F938F939F93AF93BF93EF937B
:10160000FF9348E251E064E271E090E080E00E94E4
:10161000E006FF91EF91BF91AF919F918F917F91E4
:101620006F915F914F913F912F910F900BBE0F9053
:101630000FBE0F901F9018951F920F920FB60F922A
:1016400011240BB60F922F933F934F935F936F9399
:101650007F938F939F93AF93BF93EF93FF9348EA4A
:1016600050E064EA70E083E090E00E94E006FF91C1
:10167000EF91BF91AF919F918F917F916F915F910A
:101680004F913F912F910F900BBE0F900FBE0F9077
:101690001F9018951F920F920FB60F9211240BB640
:1016A0000F922F933F934F935F936F937F938F93FB
:1016B0009F93AF93BF93EF93FF9348E950E064E9A2
:1016C00070E082E090E00E94E006FF91EF91BF9110
:1016D000AF919F918F917F916F915F914F913F91CA
:1016E0002F910F900BBE0F900FBE0F901F9018956B
:1016F0001F920F920FB60F9211240BB60F922F93D9
:101700003F934F935F936F937F938F939F93AF9389
:10171000BF93EF93FF9348E850E064E870E081E006
:1017200090E00E94E006FF91EF91BF91AF919F91F1
:101730008F917F916F915F914F913F912F910F907A
:101740000BBE0F900FBE0F901F901895789484B524
:10175000826084BD84B5816084BD85B5826085BDAD
:1017600085B5816085BD80916E00816080936E003B
:10177000109281008091810082608093810080912D
:1017800081008160809381008091800081608093DE
:1017900080008091B10084608093B1008091B0009E
:1017A00081608093B000809191008260809391006D
:1017B0008091910081608093910080919000816080
:1017C000809390008091A10082608093A10080911D
:1017D000A10081608093A1008091A000816080932E
:1017E000A0008091210182608093210180912101DC
:1017F000816080932101809120018160809320018C
:1018000080917A00846080937A0080917A0082606F
:1018100080937A0080917A00816080937A00809131
:101820007A00806880937A001092C10080917B03D7
:10183000803308F052C061E087E00E94E6028091A8
:101840007B03282F30E0F901EE0FFF1FE20FF31F9B
:10185000E551FD4F9081907C9760908310927C03BE
:1018600010927D032CE0622F0E941E12829FB00115
:10187000112430E020E0AB01420F531FFA01EE0FBC
:10188000FF1FE40FF51FE551FD4F908196FD17C036
:101890002F5F3F4F2C30310571F7813009F090C038
:1018A0001092800082E08093810010928500109257
:1018B0008400B19A80916F00826080936F00E09104
:1018C0007B038E2F90E0FC01EE0FFF1FE80FF91F46
:1018D000E551FD4F80818064808390E080E00E942C
:1018E0008F0160E085E10E94B40261E08EE00E9419
:1018F000B40282E00E94A50861E087E00E94E6024F
:1019000061E08DE00E94E60261E08EE00E94E60266
:1019100061E085E10E94E602C8EED3E000E010E05D
:10192000332433940E949D0887E392E00E94B0071D
:101930000E9499058093CA028823A9F18D3209F08B
:101940006BC00E949D0881E492E00E94B0070E9453
:1019500046090E9499058823E1F38093CA02282F43
:10196000082E000C330B20533109309311022093C1
:1019700010020E945A0964EF71E080E090E00E943A
:10198000FF040E949D0881E592E00E94B0070E943A
:1019900046098091CA020E945A0964EF71E080E012
:1019A00090E00E94FF0468EC70E080E090E00E940C
:1019B000FF040115110509F4B5CF0E940000B2CF54
:1019C000823061F410929000809391001092950003
:1019D0001092940088BB8093710071CF833069F4BA
:1019E0001092A00082E08093A1001092A5001092B6
:1019F000A40089BB8093720062CF811160CF1092E6
:101A0000200182E08093210110922501109224018F
:101A10008ABB8093730053CF8B3209F041C00E9480
:101A20009D0882E692E00E94B0070E94B60960918C
:101A3000BE027091BF0261157105E9F04091C202CA
:101A40005091C30284EC92E00E948B090E949D0891
:101A500082E792E00E94B0070E9446094091C802C6
:101A60005091C9026091C4027091C5028DEE93E05D
:101A70000E94F40192CF8091C4029091C502009718
:101A800011F00E94CE121092C5021092C402109260
:101A9000C9021092C8021092C7021092C602D6CF95
:101AA0008D3309F080CF0E949D0882E892E00E9469
:101AB000B0070E94B6090E949D082091C80230918B
:101AC000C9028091C2029091C3022817390709F018
:101AD000A8C08091C4029091C5026091BE0270912D
:101AE000BF02009709F4A2C06115710539F4232BD8
:101AF00009F4A9C0FC01808190E0A3C00E944114B8
:101B0000A0C026013701E89477F82FEF3FEF4FE7A9
:101B10005FE7C301B2010E94191281110DC02FEFBE
:101B20003FEF4FE75FE7C301B2010E947F0F181636
:101B30001CF482E992E0DFC02FEF3FEF4FE75FE454
:101B4000C701B6010E94141218161CF486E992E02F
:101B5000D2C02FEF3FEF4FE75FECC701B6010E9405
:101B60007F0F87FDF3CF20E030E0A901C701B60168
:101B70000E947F0F87FF09C08DE20E945A0946012B
:101B80005701B7FAB094B7F8B0942AE037ED43EABA
:101B90005BE3C501B4010E9407114B015C010E9487
:101BA000E5116B017C010E94840F9B01AC01C50112
:101BB000B4010E9406114B015C014AE0C701B60165
:101BC0000E94BD078EE20E945A0920E030E040E208
:101BD00051E4C501B4010E94E50F4B015C010E9474
:101BE000E5116B01F12CE12C4AE0C701B6010E941E
:101BF000BD07C701B6010E94840F9B01AC01C5015E
:101C0000B4010E94061120E030E040E251E40E945D
:101C1000E50F0E94E51190E080E04AE00E94BD07D8
:101C20006CC08AE992E00E94B007B7CE61157105D9
:101C300051F0232B41F0FB01808190E0919581953B
:101C40009109892B71F784EB90E00E948F010E942B
:101C500026033092BD023092BC0260E08EE00E940A
:101C6000B40261E085E10E94B4020E9431056093F4
:101C7000B8027093B9028093BA029093BB0280912C
:101C8000BD02882309F48FCE0E949D086091100246
:101C900070911102072E000C880B990B0E94860F81
:101CA0006B017C010E9431058090B8029090B902CE
:101CB000A090BA02B090BB02681979098A099B0901
:101CC0000E94840F20E030E04AE754E40E94731140
:101CD0009B01AC01C701B6010E9406116B017C019A
:101CE0004B015C01AC019B010E941912882309F48D
:101CF00008CF8EE892E00E94B0076AE070E080E0D2
:101D000090E00E94FF040E9499058A3211F40E941B
:101D10009E070E943105C090B802D090B902E090B1
:101D2000BA02F090BB02AB01BC014C195D096E090F
:101D30007F0920911002309111022C9FC0012D9F2C
:101D4000900D3C9F900D1124092E000CAA0BBB0B8B
:101D500084179507A607B70708F091CF8091BC02BA
:101D6000882309F48CCF0E949E0789CF1092F0033C
:101D70001092EF0387E292E09093EE038093ED03DD
:101D800086E18093F1038FEF8093F20387E18093E4
:101D9000F30388E18093F40389E18093F5038AE1FA
:101DA0008093F6038BE18093F7031092F80310926F
:101DB000F9031092FA031092FB031092FC0381E0E6
:101DC0000E94A5081092800310928403109283034E
:101DD000109285038DE192E090937F0380937E03C0
:101DE000EAE9F3E01082148213821582369683E0CA
:101DF000E63DF807B9F783E392E09093E10380931F
:101E0000E0038FE292E09093E3038093E20384E0A7
:101E10008093E4038093E50380E092E09093DF03F6
:101E20008093DE038AE090E09093E7038093E603DB
:101E300084EF91E09093E9038093E8031092EC0320
:101E40001092EB031092DA031092DB031092DC0382
:101E50001092DD031092EA038091AA028033D0F53C
:101E600091E0980F9093AA0280937B0390E0FC018D
:101E7000EE0FFF1FE80FF91FE551FD4F88EB9BE0C8
:101E8000928381831092C5021092C4021092C702FD
:101E90001092C6021092C9021092C80244E050E0AB
:101EA00065EA72E084EC92E00E948B091092BF0216
:101EB0001092BE021092C1021092C0021092C30290
:101EC0001092C20250E040E069EA72E08EEB92E0CC
:101ED0000C948B098FEF80937B03D4CF8091BE024B
:101EE0009091BF02009711F00E94CE128091C4021F
:101EF0009091C502009711F00C94CE1208950E94A3
:101F0000C10F08F481E00895E89409C097FB3EF4FE
:101F100090958095709561957F4F8F4F9F4F992336
:101F2000A9F0F92F96E9BB279395F69587957795B4
:101F30006795B795F111F8CFFAF4BB0F11F460FF74
:101F40001BC06F5F7F4F8F4F9F4F16C0882311F0CC
:101F500096E911C0772321F09EE8872F762F05C0E0
:101F6000662371F096E8862F70E060E02AF09A957B
:101F7000660F771F881FDAF7880F9695879597F970
:101F80000895990F0008550FAA0BE0E8FEEF16160A
:101F90001706E807F907C0F012161306E407F5075D
:101FA00098F0621B730B840B950B39F40A2661F0D1
:101FB000232B242B252B21F408950A2609F4A14074
:101FC000A6958FEF811D811D08950E94F80F0C9436
:101FD00069100E945B1038F00E94621020F0952377
:101FE00011F00C9452100C94581011240C949D1064
:101FF0000E947A1070F3959FC1F3950F50E0551F22
:10200000629FF001729FBB27F00DB11D639FAA274D
:10201000F00DB11DAA1F649F6627B00DA11D661F9C
:10202000829F2227B00DA11D621F739FB00DA11DBD
:10203000621F839FA00D611D221F749F3327A00D77
:10204000611D231F849F600D211D822F762F6A2F13
:1020500011249F5750409AF0F1F088234AF0EE0F78
:10206000FF1FBB1F661F771F881F91505040A9F7A5
:102070009E3F510580F00C9452100C949D105F3FD0
:10208000E4F3983ED4F3869577956795B795F795E1
:10209000E7959F5FC1F7FE2B880F911D9695879559
:1020A00097F9089597F99F6780E870E060E00895D8
:1020B0009FEF80EC089500240A9416161706180660
:1020C0000906089500240A9412161306140605063C
:1020D0000895092E0394000C11F4882352F0BB0FCD
:1020E00040F4BF2B11F460FF04C06F5F7F4F8F4F30
:1020F0009F4F089557FD9058440F551F59F05F3F6B
:1021000071F04795880F97FB991F61F09F3F79F019
:1021100087950895121613061406551FF2CF46959B
:10212000F1DF08C0161617061806991FF1CF86951D
:102130007105610508940895E894BB276627772701
:10214000CB0197F90895052E97FB1EF400940E9489
:10215000BA1057FD07D00E94D51007FC03D04EF4EB
:102160000C94BA1050954095309521953F4F4F4FA4
:102170005F4F089590958095709561957F4F8F4F33
:102180009F4F08950E94F710A59F900DB49F900D4A
:10219000A49F800D911D11240895B7FF0C94C210C7
:1021A0000E94C210821B930B0895A1E21A2EAA1B53
:1021B000BB1BFD010DC0AA1FBB1FEE1FFF1FA217F7
:1021C000B307E407F50720F0A21BB30BE40BF50BF4
:1021D000661F771F881F991F1A9469F7609570957D
:1021E000809590959B01AC01BD01CF010895A29F00
:1021F000B001B39FC001A39F700D811D1124911DDB
:10220000B29F700D811D1124911D08955058BB2758
:10221000AA270E941E110C9469100E945B1038F0CE
:102220000E94621020F039F49F3F19F426F40C94B8
:1022300058100EF4E095E7FB0C945210E92F0E9421
:102240007A1058F3BA17620773078407950720F0CE
:1022500079F4A6F50C949C100EF4E0950B2EBA2F91
:10226000A02D0B01B90190010C01CA01A00111249C
:10227000FF27591B99F0593F50F4503E68F11A1648
:10228000F040A22F232F342F4427585FF3CF4695D9
:1022900037952795A795F0405395C9F77EF41F16FB
:1022A000BA0B620B730B840BBAF09150A1F0FF0FC5
:1022B000BB1F661F771F881FC2F70EC0BA0F621FB1
:1022C000731F841F48F4879577956795B795F795A1
:1022D0009E3F08F0B0CF9395880F08F09927EE0F36
:1022E0009795879508950E9487110C9469100E9414
:1022F000621058F00E945B1040F029F45F3F29F013
:102300000C94521051110C949D100C9458100E9472
:102310007A1068F39923B1F3552391F3951B550B6C
:10232000BB27AA2762177307840738F09F5F5F4FA8
:10233000220F331F441FAA1FA9F335D00E2E3AF0E7
:10234000E0E832D091505040E695001CCAF72BD0FF
:10235000FE2F29D0660F771F881FBB1F2617370750
:102360004807AB07B0E809F0BB0B802DBF01FF2782
:1023700093585F4F3AF09E3F510578F00C945210FD
:102380000C949D105F3FE4F3983ED4F386957795C7
:102390006795B795F7959F5FC9F7880F911D96953B
:1023A000879597F90895E1E0660F771F881FBB1F97
:1023B000621773078407BA0720F0621B730B840B44
:1023C000BA0BEE1F88F7E09508950E94821088F0FE
:1023D0009F5798F0B92F9927B751B0F0E1F0660FE9
:1023E000771F881F991F1AF0BA95C9F714C0B1302A
:1023F00091F00E949C10B1E008950C949C10672FFE
:10240000782F8827B85F39F0B93FCCF38695779558
:102410006795B395D9F73EF4909580957095619541
:102420007F4F8F4F9F4F08950E94C10F08F48FEF89
:1024300008950E94C10F880B990B0895991B79E0AC
:1024400004C0991F961708F0961B881F7A95C9F744
:1024500080950895EE0FFF1F881F8BBF0790F691A0
:10246000E02D19940F931F93CF93DF938230910542
:1024700010F482E090E0E0910704F091080430E06D
:1024800020E0B0E0A0E0309799F42115310509F47F
:102490004AC0281B390B24303105D8F58A819B812D
:1024A0006115710589F1FB0193838283FE0111C0DF
:1024B000408151810281138148175907E0F0481784
:1024C000590799F4109761F012960C93129713968E
:1024D0001C933296CF01DF91CF911F910F910895F8
:1024E0000093070410930804F4CF2115310551F02F
:1024F0004217530738F0A901DB019A01BD01DF0142
:10250000F801C1CFEF01F9CF90930804809307043D
:10251000CDCFFE01E20FF31F819391932250310939
:1025200039832883D7CF2091050430910604232BCB
:1025300041F4209115023091160230930604209345
:10254000050420911302309114022115310541F444
:102550002DB73EB74091170250911802241B350B3E
:10256000E0910504F0910604E217F307A0F42E1B96
:102570003F0B2817390778F0AC014E5F5F4F2417E7
:10258000350748F04E0F5F1F509306044093050433
:10259000819391939FCFF0E0E0E09CCFCF93DF93C6
:1025A0000097E9F0FC01329713821282A091070490
:1025B000B0910804ED0130E020E01097A1F42081F3
:1025C0003181820F931F2091050430910604281752
:1025D000390709F061C0F0930604E0930504DF9128
:1025E000CF910895EA01CE17DF07E8F54A815B81B4
:1025F0009E0141155105B1F7E901FB83EA83499139
:102600005991C40FD51FEC17FD0761F480819181AA
:102610000296840F951FE9019983888382819381B3
:102620009B838A83F0E0E0E012968D919C91139752
:102630000097B9F52D913C911197CD010296820F2B
:10264000931F20910504309106042817390739F6A5
:10265000309751F51092080410920704B0930604C5
:10266000A0930504BCCFD383C28340815181840FE2
:10267000951FC817D90761F44E5F5F4F8881998114
:10268000480F591F518340838A819B8193838283A2
:102690002115310509F0B0CFF0930804E093070449
:1026A0009ECFFD01DC01C0CF13821282D7CF4F92A3
:1026B0005F926F927F928F929F92AF92BF92CF92D2
:1026C000DF92EF92FF920F931F93CF93DF938C01D2
:1026D000009799F4CB01DF91CF911F910F91FF905B
:1026E000EF90DF90CF90BF90AF909F908F907F90B2
:1026F0006F905F904F900C943212FC01E60FF71F21
:102700009C0122503109E217F30708F4AEC0D90149
:10271000CD91DC911197C617D70720F1C530D105AF
:1027200078F0CE0104978617970750F0C61BD70B99
:102730002297C193D1936D937C93CF010E94CE12C7
:10274000C801DF91CF911F910F91FF90EF90DF9023
:10275000CF90BF90AF909F908F907F906F905F9041
:102760004F9008955B01AC1ABD0A4C018C0E9D1E62
:10277000A0910704B0910804512C412CF12CE12CBC
:10278000109731F5809105049091060488159905FC
:1027900009F05CC04616570608F058C08091130235
:1027A00090911402009741F48DB79EB740911702A3
:1027B00050911802841B950BE817F90708F055C0D3
:1027C000F0930604E0930504F90171836083B8CFA8
:1027D0008D919C91119712966C90129713967C9004
:1027E0001397A815B90559F56C0142E0C40ED11C28
:1027F000CA14DB0420F1AC014A195B09DA01129614
:10280000159780F06282738251834083D9016D9362
:102810007C93E114F10471F0D7011396FC93EE93CD
:1028200012978ECF22968C0F9D1FF9019183808382
:10283000F301EFCFF0930804E093070481CF48162B
:10284000590608F42C017D01D3019ACFCB010E94D7
:1028500032127C01009749F0AE01B8010E94381491
:10286000C8010E94CE1287016BCF10E000E068CF54
:10287000FB01DC0102C001900D9241505040D8F79D
:102880000895FB01DC018D91019080190110D9F3AD
:10289000990B0895FB01DC0101900D920020E1F7F6
:1028A000089511E0C8E3D1E000E006C0802FFE01EA
:1028B0000E942A122196011DC933D10780E0080722
:0628C000A9F7F894FFCF18
:1028C6003738392F343536783132332D2A303D2B8F
:1028D6000500FF000009048000000000002203E25A
:1028E60002B102000000005409F4019B079A073266
:1028F6003334352E2F30314D61696E204D656E753E
:1029060000456E746572206E65772074696D653A50
:102916000054696D6572206368616E676564207432
:102926006F00456E746572206E65772070617373F3
:102936003A0050617373206368616E676564207442
:102946006F00456E74657220706173733A006E6134
:102956006E00696E66006F76660057726F6E67204E
:0A29660070617373003030303000F0
:00000001FF
